{
  "_format": "hh-sol-artifact-1",
  "contractName": "RealEstate",
  "sourceName": "contracts/RealEstate.sol",
  "abi": [
    {
      "inputs": [],
      "stateMutability": "nonpayable",
      "type": "constructor"
    },
    {
      "anonymous": false,
      "inputs": [
        {
          "indexed": true,
          "internalType": "address",
          "name": "owner",
          "type": "address"
        },
        {
          "indexed": true,
          "internalType": "address",
          "name": "approved",
          "type": "address"
        },
        {
          "indexed": true,
          "internalType": "uint256",
          "name": "tokenId",
          "type": "uint256"
        }
      ],
      "name": "Approval",
      "type": "event"
    },
    {
      "anonymous": false,
      "inputs": [
        {
          "indexed": true,
          "internalType": "address",
          "name": "owner",
          "type": "address"
        },
        {
          "indexed": true,
          "internalType": "address",
          "name": "operator",
          "type": "address"
        },
        {
          "indexed": false,
          "internalType": "bool",
          "name": "approved",
          "type": "bool"
        }
      ],
      "name": "ApprovalForAll",
      "type": "event"
    },
    {
      "anonymous": false,
      "inputs": [
        {
          "indexed": true,
          "internalType": "address",
          "name": "from",
          "type": "address"
        },
        {
          "indexed": true,
          "internalType": "address",
          "name": "to",
          "type": "address"
        },
        {
          "indexed": true,
          "internalType": "uint256",
          "name": "tokenId",
          "type": "uint256"
        }
      ],
      "name": "Transfer",
      "type": "event"
    },
    {
      "inputs": [],
      "name": "_tokenIds",
      "outputs": [
        {
          "internalType": "uint256",
          "name": "_value",
          "type": "uint256"
        }
      ],
      "stateMutability": "view",
      "type": "function"
    },
    {
      "inputs": [
        {
          "internalType": "address",
          "name": "to",
          "type": "address"
        },
        {
          "internalType": "uint256",
          "name": "tokenId",
          "type": "uint256"
        }
      ],
      "name": "approve",
      "outputs": [],
      "stateMutability": "nonpayable",
      "type": "function"
    },
    {
      "inputs": [
        {
          "internalType": "address",
          "name": "owner",
          "type": "address"
        }
      ],
      "name": "balanceOf",
      "outputs": [
        {
          "internalType": "uint256",
          "name": "",
          "type": "uint256"
        }
      ],
      "stateMutability": "view",
      "type": "function"
    },
    {
      "inputs": [
        {
          "internalType": "uint256",
          "name": "tokenId",
          "type": "uint256"
        }
      ],
      "name": "getApproved",
      "outputs": [
        {
          "internalType": "address",
          "name": "",
          "type": "address"
        }
      ],
      "stateMutability": "view",
      "type": "function"
    },
    {
      "inputs": [
        {
          "internalType": "address",
          "name": "owner",
          "type": "address"
        },
        {
          "internalType": "address",
          "name": "operator",
          "type": "address"
        }
      ],
      "name": "isApprovedForAll",
      "outputs": [
        {
          "internalType": "bool",
          "name": "",
          "type": "bool"
        }
      ],
      "stateMutability": "view",
      "type": "function"
    },
    {
      "inputs": [
        {
          "internalType": "string",
          "name": "tokenURI",
          "type": "string"
        }
      ],
      "name": "mint",
      "outputs": [
        {
          "internalType": "uint256",
          "name": "",
          "type": "uint256"
        }
      ],
      "stateMutability": "nonpayable",
      "type": "function"
    },
    {
      "inputs": [],
      "name": "name",
      "outputs": [
        {
          "internalType": "string",
          "name": "",
          "type": "string"
        }
      ],
      "stateMutability": "view",
      "type": "function"
    },
    {
      "inputs": [
        {
          "internalType": "uint256",
          "name": "tokenId",
          "type": "uint256"
        }
      ],
      "name": "ownerOf",
      "outputs": [
        {
          "internalType": "address",
          "name": "",
          "type": "address"
        }
      ],
      "stateMutability": "view",
      "type": "function"
    },
    {
      "inputs": [
        {
          "internalType": "address",
          "name": "from",
          "type": "address"
        },
        {
          "internalType": "address",
          "name": "to",
          "type": "address"
        },
        {
          "internalType": "uint256",
          "name": "tokenId",
          "type": "uint256"
        }
      ],
      "name": "safeTransferFrom",
      "outputs": [],
      "stateMutability": "nonpayable",
      "type": "function"
    },
    {
      "inputs": [
        {
          "internalType": "address",
          "name": "from",
          "type": "address"
        },
        {
          "internalType": "address",
          "name": "to",
          "type": "address"
        },
        {
          "internalType": "uint256",
          "name": "tokenId",
          "type": "uint256"
        },
        {
          "internalType": "bytes",
          "name": "data",
          "type": "bytes"
        }
      ],
      "name": "safeTransferFrom",
      "outputs": [],
      "stateMutability": "nonpayable",
      "type": "function"
    },
    {
      "inputs": [
        {
          "internalType": "address",
          "name": "operator",
          "type": "address"
        },
        {
          "internalType": "bool",
          "name": "approved",
          "type": "bool"
        }
      ],
      "name": "setApprovalForAll",
      "outputs": [],
      "stateMutability": "nonpayable",
      "type": "function"
    },
    {
      "inputs": [
        {
          "internalType": "bytes4",
          "name": "interfaceId",
          "type": "bytes4"
        }
      ],
      "name": "supportsInterface",
      "outputs": [
        {
          "internalType": "bool",
          "name": "",
          "type": "bool"
        }
      ],
      "stateMutability": "view",
      "type": "function"
    },
    {
      "inputs": [],
      "name": "symbol",
      "outputs": [
        {
          "internalType": "string",
          "name": "",
          "type": "string"
        }
      ],
      "stateMutability": "view",
      "type": "function"
    },
    {
      "inputs": [
        {
          "internalType": "uint256",
          "name": "tokenId",
          "type": "uint256"
        }
      ],
      "name": "tokenURI",
      "outputs": [
        {
          "internalType": "string",
          "name": "",
          "type": "string"
        }
      ],
      "stateMutability": "view",
      "type": "function"
    },
    {
      "inputs": [],
      "name": "totalSupply",
      "outputs": [
        {
          "internalType": "uint256",
          "name": "",
          "type": "uint256"
        }
      ],
      "stateMutability": "view",
      "type": "function"
    },
    {
      "inputs": [
        {
          "internalType": "address",
          "name": "from",
          "type": "address"
        },
        {
          "internalType": "address",
          "name": "to",
          "type": "address"
        },
        {
          "internalType": "uint256",
          "name": "tokenId",
          "type": "uint256"
        }
      ],
      "name": "transferFrom",
      "outputs": [],
      "stateMutability": "nonpayable",
      "type": "function"
    }
  ],
  "bytecode": "0x60806040523480156200001157600080fd5b506040518060400160405280600b81526020017f5265616c204573746174650000000000000000000000000000000000000000008152506040518060400160405280600481526020017f5245414c0000000000000000000000000000000000000000000000000000000081525081600090816200008f919062000324565b508060019081620000a1919062000324565b5050506200040b565b600081519050919050565b7f4e487b7100000000000000000000000000000000000000000000000000000000600052604160045260246000fd5b7f4e487b7100000000000000000000000000000000000000000000000000000000600052602260045260246000fd5b600060028204905060018216806200012c57607f821691505b602082108103620001425762000141620000e4565b5b50919050565b60008190508160005260206000209050919050565b60006020601f8301049050919050565b600082821b905092915050565b600060088302620001ac7fffffffffffffffffffffffffffffffffffffffffffffffffffffffffffffffff826200016d565b620001b886836200016d565b95508019841693508086168417925050509392505050565b6000819050919050565b6000819050919050565b600062000205620001ff620001f984620001d0565b620001da565b620001d0565b9050919050565b6000819050919050565b6200022183620001e4565b6200023962000230826200020c565b8484546200017a565b825550505050565b600090565b6200025062000241565b6200025d81848462000216565b505050565b5b8181101562000285576200027960008262000246565b60018101905062000263565b5050565b601f821115620002d4576200029e8162000148565b620002a9846200015d565b81016020851015620002b9578190505b620002d1620002c8856200015d565b83018262000262565b50505b505050565b600082821c905092915050565b6000620002f960001984600802620002d9565b1980831691505092915050565b6000620003148383620002e6565b9150826002028217905092915050565b6200032f82620000aa565b67ffffffffffffffff8111156200034b576200034a620000b5565b5b62000357825462000113565b6200036482828562000289565b600060209050601f8311600181146200039c576000841562000387578287015190505b62000393858262000306565b86555062000403565b601f198416620003ac8662000148565b60005b82811015620003d657848901518255600182019150602085019450602081019050620003af565b86831015620003f65784890151620003f2601f891682620002e6565b8355505b6001600288020188555050505b505050505050565b612aa3806200041b6000396000f3fe608060405234801561001057600080fd5b50600436106101005760003560e01c806370a0823111610097578063b88d4fde11610066578063b88d4fde146102ad578063c87b56dd146102c9578063d85d3d27146102f9578063e985e9c51461032957610100565b806370a082311461022557806395d89b4114610255578063a22cb46514610273578063aa46a4001461028f57610100565b806318160ddd116100d357806318160ddd1461019f57806323b872dd146101bd57806342842e0e146101d95780636352211e146101f557610100565b806301ffc9a71461010557806306fdde0314610135578063081812fc14610153578063095ea7b314610183575b600080fd5b61011f600480360381019061011a91906119a5565b610359565b60405161012c91906119ed565b60405180910390f35b61013d61043b565b60405161014a9190611a98565b60405180910390f35b61016d60048036038101906101689190611af0565b6104cd565b60405161017a9190611b5e565b60405180910390f35b61019d60048036038101906101989190611ba5565b610513565b005b6101a761062a565b6040516101b49190611bf4565b60405180910390f35b6101d760048036038101906101d29190611c0f565b61063b565b005b6101f360048036038101906101ee9190611c0f565b61069b565b005b61020f600480360381019061020a9190611af0565b6106bb565b60405161021c9190611b5e565b60405180910390f35b61023f600480360381019061023a9190611c62565b610741565b60405161024c9190611bf4565b60405180910390f35b61025d6107f8565b60405161026a9190611a98565b60405180910390f35b61028d60048036038101906102889190611cbb565b61088a565b005b6102976108a0565b6040516102a49190611bf4565b60405180910390f35b6102c760048036038101906102c29190611e30565b6108ac565b005b6102e360048036038101906102de9190611af0565b61090e565b6040516102f09190611a98565b60405180910390f35b610313600480360381019061030e9190611f54565b610a20565b6040516103209190611bf4565b60405180910390f35b610343600480360381019061033e9190611f9d565b610a57565b60405161035091906119ed565b60405180910390f35b60007f80ac58cd000000000000000000000000000000000000000000000000000000007bffffffffffffffffffffffffffffffffffffffffffffffffffffffff1916827bffffffffffffffffffffffffffffffffffffffffffffffffffffffff1916148061042457507f5b5e139f000000000000000000000000000000000000000000000000000000007bffffffffffffffffffffffffffffffffffffffffffffffffffffffff1916827bffffffffffffffffffffffffffffffffffffffffffffffffffffffff1916145b80610434575061043382610aeb565b5b9050919050565b60606000805461044a9061200c565b80601f01602080910402602001604051908101604052809291908181526020018280546104769061200c565b80156104c35780601f10610498576101008083540402835291602001916104c3565b820191906000526020600020905b8154815290600101906020018083116104a657829003601f168201915b5050505050905090565b60006104d882610b55565b6004600083815260200190815260200160002060009054906101000a900473ffffffffffffffffffffffffffffffffffffffff169050919050565b600061051e826106bb565b90508073ffffffffffffffffffffffffffffffffffffffff168373ffffffffffffffffffffffffffffffffffffffff160361058e576040517f08c379a0000000000000000000000000000000000000000000000000000000008152600401610585906120af565b60405180910390fd5b8073ffffffffffffffffffffffffffffffffffffffff166105ad610ba0565b73ffffffffffffffffffffffffffffffffffffffff1614806105dc57506105db816105d6610ba0565b610a57565b5b61061b576040517f08c379a000000000000000000000000000000000000000000000000000000000815260040161061290612141565b60405180910390fd5b6106258383610ba8565b505050565b60006106366007610c61565b905090565b61064c610646610ba0565b82610c6f565b61068b576040517f08c379a0000000000000000000000000000000000000000000000000000000008152600401610682906121d3565b60405180910390fd5b610696838383610d04565b505050565b6106b6838383604051806020016040528060008152506108ac565b505050565b6000806106c783610ffd565b9050600073ffffffffffffffffffffffffffffffffffffffff168173ffffffffffffffffffffffffffffffffffffffff1603610738576040517f08c379a000000000000000000000000000000000000000000000000000000000815260040161072f9061223f565b60405180910390fd5b80915050919050565b60008073ffffffffffffffffffffffffffffffffffffffff168273ffffffffffffffffffffffffffffffffffffffff16036107b1576040517f08c379a00000000000000000000000000000000000000000000000000000000081526004016107a8906122d1565b60405180910390fd5b600360008373ffffffffffffffffffffffffffffffffffffffff1673ffffffffffffffffffffffffffffffffffffffff168152602001908152602001600020549050919050565b6060600180546108079061200c565b80601f01602080910402602001604051908101604052809291908181526020018280546108339061200c565b80156108805780601f1061085557610100808354040283529160200191610880565b820191906000526020600020905b81548152906001019060200180831161086357829003601f168201915b5050505050905090565b61089c610895610ba0565b838361103a565b5050565b60078060000154905081565b6108bd6108b7610ba0565b83610c6f565b6108fc576040517f08c379a00000000000000000000000000000000000000000000000000000000081526004016108f3906121d3565b60405180910390fd5b610908848484846111a6565b50505050565b606061091982610b55565b60006006600084815260200190815260200160002080546109399061200c565b80601f01602080910402602001604051908101604052809291908181526020018280546109659061200c565b80156109b25780601f10610987576101008083540402835291602001916109b2565b820191906000526020600020905b81548152906001019060200180831161099557829003601f168201915b5050505050905060006109c3611202565b905060008151036109d8578192505050610a1b565b600082511115610a0d5780826040516020016109f592919061232d565b60405160208183030381529060405292505050610a1b565b610a1684611219565b925050505b919050565b6000610a2c6007611281565b6000610a386007610c61565b9050610a443382611297565b610a4e81846114b4565b80915050919050565b6000600560008473ffffffffffffffffffffffffffffffffffffffff1673ffffffffffffffffffffffffffffffffffffffff16815260200190815260200160002060008373ffffffffffffffffffffffffffffffffffffffff1673ffffffffffffffffffffffffffffffffffffffff16815260200190815260200160002060009054906101000a900460ff16905092915050565b60007f01ffc9a7000000000000000000000000000000000000000000000000000000007bffffffffffffffffffffffffffffffffffffffffffffffffffffffff1916827bffffffffffffffffffffffffffffffffffffffffffffffffffffffff1916149050919050565b610b5e81611521565b610b9d576040517f08c379a0000000000000000000000000000000000000000000000000000000008152600401610b949061223f565b60405180910390fd5b50565b600033905090565b816004600083815260200190815260200160002060006101000a81548173ffffffffffffffffffffffffffffffffffffffff021916908373ffffffffffffffffffffffffffffffffffffffff160217905550808273ffffffffffffffffffffffffffffffffffffffff16610c1b836106bb565b73ffffffffffffffffffffffffffffffffffffffff167f8c5be1e5ebec7d5bd14f71427d1e84f3dd0314c0f7b2291e5b200ac8c7c3b92560405160405180910390a45050565b600081600001549050919050565b600080610c7b836106bb565b90508073ffffffffffffffffffffffffffffffffffffffff168473ffffffffffffffffffffffffffffffffffffffff161480610cbd5750610cbc8185610a57565b5b80610cfb57508373ffffffffffffffffffffffffffffffffffffffff16610ce3846104cd565b73ffffffffffffffffffffffffffffffffffffffff16145b91505092915050565b8273ffffffffffffffffffffffffffffffffffffffff16610d24826106bb565b73ffffffffffffffffffffffffffffffffffffffff1614610d7a576040517f08c379a0000000000000000000000000000000000000000000000000000000008152600401610d71906123c3565b60405180910390fd5b600073ffffffffffffffffffffffffffffffffffffffff168273ffffffffffffffffffffffffffffffffffffffff1603610de9576040517f08c379a0000000000000000000000000000000000000000000000000000000008152600401610de090612455565b60405180910390fd5b610df68383836001611562565b8273ffffffffffffffffffffffffffffffffffffffff16610e16826106bb565b73ffffffffffffffffffffffffffffffffffffffff1614610e6c576040517f08c379a0000000000000000000000000000000000000000000000000000000008152600401610e63906123c3565b60405180910390fd5b6004600082815260200190815260200160002060006101000a81549073ffffffffffffffffffffffffffffffffffffffff02191690556001600360008573ffffffffffffffffffffffffffffffffffffffff1673ffffffffffffffffffffffffffffffffffffffff168152602001908152602001600020600082825403925050819055506001600360008473ffffffffffffffffffffffffffffffffffffffff1673ffffffffffffffffffffffffffffffffffffffff16815260200190815260200160002060008282540192505081905550816002600083815260200190815260200160002060006101000a81548173ffffffffffffffffffffffffffffffffffffffff021916908373ffffffffffffffffffffffffffffffffffffffff160217905550808273ffffffffffffffffffffffffffffffffffffffff168473ffffffffffffffffffffffffffffffffffffffff167fddf252ad1be2c89b69c2b068fc378daa952ba7f163c4a11628f55a4df523b3ef60405160405180910390a4610ff88383836001611568565b505050565b60006002600083815260200190815260200160002060009054906101000a900473ffffffffffffffffffffffffffffffffffffffff169050919050565b8173ffffffffffffffffffffffffffffffffffffffff168373ffffffffffffffffffffffffffffffffffffffff16036110a8576040517f08c379a000000000000000000000000000000000000000000000000000000000815260040161109f906124c1565b60405180910390fd5b80600560008573ffffffffffffffffffffffffffffffffffffffff1673ffffffffffffffffffffffffffffffffffffffff16815260200190815260200160002060008473ffffffffffffffffffffffffffffffffffffffff1673ffffffffffffffffffffffffffffffffffffffff16815260200190815260200160002060006101000a81548160ff0219169083151502179055508173ffffffffffffffffffffffffffffffffffffffff168373ffffffffffffffffffffffffffffffffffffffff167f17307eab39ab6107e8899845ad3d59bd9653f200f220920489ca2b5937696c318360405161119991906119ed565b60405180910390a3505050565b6111b1848484610d04565b6111bd8484848461156e565b6111fc576040517f08c379a00000000000000000000000000000000000000000000000000000000081526004016111f390612553565b60405180910390fd5b50505050565b606060405180602001604052806000815250905090565b606061122482610b55565b600061122e611202565b9050600081511161124e5760405180602001604052806000815250611279565b80611258846116f5565b60405160200161126992919061232d565b6040516020818303038152906040525b915050919050565b6001816000016000828254019250508190555050565b600073ffffffffffffffffffffffffffffffffffffffff168273ffffffffffffffffffffffffffffffffffffffff1603611306576040517f08c379a00000000000000000000000000000000000000000000000000000000081526004016112fd906125bf565b60405180910390fd5b61130f81611521565b1561134f576040517f08c379a00000000000000000000000000000000000000000000000000000000081526004016113469061262b565b60405180910390fd5b61135d600083836001611562565b61136681611521565b156113a6576040517f08c379a000000000000000000000000000000000000000000000000000000000815260040161139d9061262b565b60405180910390fd5b6001600360008473ffffffffffffffffffffffffffffffffffffffff1673ffffffffffffffffffffffffffffffffffffffff16815260200190815260200160002060008282540192505081905550816002600083815260200190815260200160002060006101000a81548173ffffffffffffffffffffffffffffffffffffffff021916908373ffffffffffffffffffffffffffffffffffffffff160217905550808273ffffffffffffffffffffffffffffffffffffffff16600073ffffffffffffffffffffffffffffffffffffffff167fddf252ad1be2c89b69c2b068fc378daa952ba7f163c4a11628f55a4df523b3ef60405160405180910390a46114b0600083836001611568565b5050565b6114bd82611521565b6114fc576040517f08c379a00000000000000000000000000000000000000000000000000000000081526004016114f3906126bd565b60405180910390fd5b8060066000848152602001908152602001600020908161151c9190612889565b505050565b60008073ffffffffffffffffffffffffffffffffffffffff1661154383610ffd565b73ffffffffffffffffffffffffffffffffffffffff1614159050919050565b50505050565b50505050565b600061158f8473ffffffffffffffffffffffffffffffffffffffff166117c3565b156116e8578373ffffffffffffffffffffffffffffffffffffffff1663150b7a026115b8610ba0565b8786866040518563ffffffff1660e01b81526004016115da94939291906129b0565b6020604051808303816000875af192505050801561161657506040513d601f19601f820116820180604052508101906116139190612a11565b60015b611698573d8060008114611646576040519150601f19603f3d011682016040523d82523d6000602084013e61164b565b606091505b506000815103611690576040517f08c379a000000000000000000000000000000000000000000000000000000000815260040161168790612553565b60405180910390fd5b805181602001fd5b63150b7a0260e01b7bffffffffffffffffffffffffffffffffffffffffffffffffffffffff1916817bffffffffffffffffffffffffffffffffffffffffffffffffffffffff1916149150506116ed565b600190505b949350505050565b606060006001611704846117e6565b01905060008167ffffffffffffffff81111561172357611722611d05565b5b6040519080825280601f01601f1916602001820160405280156117555781602001600182028036833780820191505090505b509050600082602001820190505b6001156117b8578080600190039150507f3031323334353637383961626364656600000000000000000000000000000000600a86061a8153600a85816117ac576117ab612a3e565b5b04945060008503611763575b819350505050919050565b6000808273ffffffffffffffffffffffffffffffffffffffff163b119050919050565b600080600090507a184f03e93ff9f4daa797ed6e38ed64bf6a1f0100000000000000008310611844577a184f03e93ff9f4daa797ed6e38ed64bf6a1f010000000000000000838161183a57611839612a3e565b5b0492506040810190505b6d04ee2d6d415b85acef81000000008310611881576d04ee2d6d415b85acef8100000000838161187757611876612a3e565b5b0492506020810190505b662386f26fc1000083106118b057662386f26fc1000083816118a6576118a5612a3e565b5b0492506010810190505b6305f5e10083106118d9576305f5e10083816118cf576118ce612a3e565b5b0492506008810190505b61271083106118fe5761271083816118f4576118f3612a3e565b5b0492506004810190505b60648310611921576064838161191757611916612a3e565b5b0492506002810190505b600a8310611930576001810190505b80915050919050565b6000604051905090565b600080fd5b600080fd5b60007fffffffff0000000000000000000000000000000000000000000000000000000082169050919050565b6119828161194d565b811461198d57600080fd5b50565b60008135905061199f81611979565b92915050565b6000602082840312156119bb576119ba611943565b5b60006119c984828501611990565b91505092915050565b60008115159050919050565b6119e7816119d2565b82525050565b6000602082019050611a0260008301846119de565b92915050565b600081519050919050565b600082825260208201905092915050565b60005b83811015611a42578082015181840152602081019050611a27565b60008484015250505050565b6000601f19601f8301169050919050565b6000611a6a82611a08565b611a748185611a13565b9350611a84818560208601611a24565b611a8d81611a4e565b840191505092915050565b60006020820190508181036000830152611ab28184611a5f565b905092915050565b6000819050919050565b611acd81611aba565b8114611ad857600080fd5b50565b600081359050611aea81611ac4565b92915050565b600060208284031215611b0657611b05611943565b5b6000611b1484828501611adb565b91505092915050565b600073ffffffffffffffffffffffffffffffffffffffff82169050919050565b6000611b4882611b1d565b9050919050565b611b5881611b3d565b82525050565b6000602082019050611b736000830184611b4f565b92915050565b611b8281611b3d565b8114611b8d57600080fd5b50565b600081359050611b9f81611b79565b92915050565b60008060408385031215611bbc57611bbb611943565b5b6000611bca85828601611b90565b9250506020611bdb85828601611adb565b9150509250929050565b611bee81611aba565b82525050565b6000602082019050611c096000830184611be5565b92915050565b600080600060608486031215611c2857611c27611943565b5b6000611c3686828701611b90565b9350506020611c4786828701611b90565b9250506040611c5886828701611adb565b9150509250925092565b600060208284031215611c7857611c77611943565b5b6000611c8684828501611b90565b91505092915050565b611c98816119d2565b8114611ca357600080fd5b50565b600081359050611cb581611c8f565b92915050565b60008060408385031215611cd257611cd1611943565b5b6000611ce085828601611b90565b9250506020611cf185828601611ca6565b9150509250929050565b600080fd5b600080fd5b7f4e487b7100000000000000000000000000000000000000000000000000000000600052604160045260246000fd5b611d3d82611a4e565b810181811067ffffffffffffffff82111715611d5c57611d5b611d05565b5b80604052505050565b6000611d6f611939565b9050611d7b8282611d34565b919050565b600067ffffffffffffffff821115611d9b57611d9a611d05565b5b611da482611a4e565b9050602081019050919050565b82818337600083830152505050565b6000611dd3611dce84611d80565b611d65565b905082815260208101848484011115611def57611dee611d00565b5b611dfa848285611db1565b509392505050565b600082601f830112611e1757611e16611cfb565b5b8135611e27848260208601611dc0565b91505092915050565b60008060008060808587031215611e4a57611e49611943565b5b6000611e5887828801611b90565b9450506020611e6987828801611b90565b9350506040611e7a87828801611adb565b925050606085013567ffffffffffffffff811115611e9b57611e9a611948565b5b611ea787828801611e02565b91505092959194509250565b600067ffffffffffffffff821115611ece57611ecd611d05565b5b611ed782611a4e565b9050602081019050919050565b6000611ef7611ef284611eb3565b611d65565b905082815260208101848484011115611f1357611f12611d00565b5b611f1e848285611db1565b509392505050565b600082601f830112611f3b57611f3a611cfb565b5b8135611f4b848260208601611ee4565b91505092915050565b600060208284031215611f6a57611f69611943565b5b600082013567ffffffffffffffff811115611f8857611f87611948565b5b611f9484828501611f26565b91505092915050565b60008060408385031215611fb457611fb3611943565b5b6000611fc285828601611b90565b9250506020611fd385828601611b90565b9150509250929050565b7f4e487b7100000000000000000000000000000000000000000000000000000000600052602260045260246000fd5b6000600282049050600182168061202457607f821691505b60208210810361203757612036611fdd565b5b50919050565b7f4552433732313a20617070726f76616c20746f2063757272656e74206f776e6560008201527f7200000000000000000000000000000000000000000000000000000000000000602082015250565b6000612099602183611a13565b91506120a48261203d565b604082019050919050565b600060208201905081810360008301526120c88161208c565b9050919050565b7f4552433732313a20617070726f76652063616c6c6572206973206e6f7420746f60008201527f6b656e206f776e6572206f7220617070726f76656420666f7220616c6c000000602082015250565b600061212b603d83611a13565b9150612136826120cf565b604082019050919050565b6000602082019050818103600083015261215a8161211e565b9050919050565b7f4552433732313a2063616c6c6572206973206e6f7420746f6b656e206f776e6560008201527f72206f7220617070726f76656400000000000000000000000000000000000000602082015250565b60006121bd602d83611a13565b91506121c882612161565b604082019050919050565b600060208201905081810360008301526121ec816121b0565b9050919050565b7f4552433732313a20696e76616c696420746f6b656e2049440000000000000000600082015250565b6000612229601883611a13565b9150612234826121f3565b602082019050919050565b600060208201905081810360008301526122588161221c565b9050919050565b7f4552433732313a2061646472657373207a65726f206973206e6f74206120766160008201527f6c6964206f776e65720000000000000000000000000000000000000000000000602082015250565b60006122bb602983611a13565b91506122c68261225f565b604082019050919050565b600060208201905081810360008301526122ea816122ae565b9050919050565b600081905092915050565b600061230782611a08565b61231181856122f1565b9350612321818560208601611a24565b80840191505092915050565b600061233982856122fc565b915061234582846122fc565b91508190509392505050565b7f4552433732313a207472616e736665722066726f6d20696e636f72726563742060008201527f6f776e6572000000000000000000000000000000000000000000000000000000602082015250565b60006123ad602583611a13565b91506123b882612351565b604082019050919050565b600060208201905081810360008301526123dc816123a0565b9050919050565b7f4552433732313a207472616e7366657220746f20746865207a65726f2061646460008201527f7265737300000000000000000000000000000000000000000000000000000000602082015250565b600061243f602483611a13565b915061244a826123e3565b604082019050919050565b6000602082019050818103600083015261246e81612432565b9050919050565b7f4552433732313a20617070726f766520746f2063616c6c657200000000000000600082015250565b60006124ab601983611a13565b91506124b682612475565b602082019050919050565b600060208201905081810360008301526124da8161249e565b9050919050565b7f4552433732313a207472616e7366657220746f206e6f6e20455243373231526560008201527f63656976657220696d706c656d656e7465720000000000000000000000000000602082015250565b600061253d603283611a13565b9150612548826124e1565b604082019050919050565b6000602082019050818103600083015261256c81612530565b9050919050565b7f4552433732313a206d696e7420746f20746865207a65726f2061646472657373600082015250565b60006125a9602083611a13565b91506125b482612573565b602082019050919050565b600060208201905081810360008301526125d88161259c565b9050919050565b7f4552433732313a20746f6b656e20616c7265616479206d696e74656400000000600082015250565b6000612615601c83611a13565b9150612620826125df565b602082019050919050565b6000602082019050818103600083015261264481612608565b9050919050565b7f45524337323155524953746f726167653a2055524920736574206f66206e6f6e60008201527f6578697374656e7420746f6b656e000000000000000000000000000000000000602082015250565b60006126a7602e83611a13565b91506126b28261264b565b604082019050919050565b600060208201905081810360008301526126d68161269a565b9050919050565b60008190508160005260206000209050919050565b60006020601f8301049050919050565b600082821b905092915050565b60006008830261273f7fffffffffffffffffffffffffffffffffffffffffffffffffffffffffffffffff82612702565b6127498683612702565b95508019841693508086168417925050509392505050565b6000819050919050565b600061278661278161277c84611aba565b612761565b611aba565b9050919050565b6000819050919050565b6127a08361276b565b6127b46127ac8261278d565b84845461270f565b825550505050565b600090565b6127c96127bc565b6127d4818484612797565b505050565b5b818110156127f8576127ed6000826127c1565b6001810190506127da565b5050565b601f82111561283d5761280e816126dd565b612817846126f2565b81016020851015612826578190505b61283a612832856126f2565b8301826127d9565b50505b505050565b600082821c905092915050565b600061286060001984600802612842565b1980831691505092915050565b6000612879838361284f565b9150826002028217905092915050565b61289282611a08565b67ffffffffffffffff8111156128ab576128aa611d05565b5b6128b5825461200c565b6128c08282856127fc565b600060209050601f8311600181146128f357600084156128e1578287015190505b6128eb858261286d565b865550612953565b601f198416612901866126dd565b60005b8281101561292957848901518255600182019150602085019450602081019050612904565b868310156129465784890151612942601f89168261284f565b8355505b6001600288020188555050505b505050505050565b600081519050919050565b600082825260208201905092915050565b60006129828261295b565b61298c8185612966565b935061299c818560208601611a24565b6129a581611a4e565b840191505092915050565b60006080820190506129c56000830187611b4f565b6129d26020830186611b4f565b6129df6040830185611be5565b81810360608301526129f18184612977565b905095945050505050565b600081519050612a0b81611979565b92915050565b600060208284031215612a2757612a26611943565b5b6000612a35848285016129fc565b91505092915050565b7f4e487b7100000000000000000000000000000000000000000000000000000000600052601260045260246000fdfea2646970667358221220adf34ca35a1707d95eabe64dd67d7e3bfe9a85f71fa75dd6a2f250c6e09ad5af64736f6c63430008120033",
  "linkReferences": {},
  "deployedLinkReferences": {}
}