{
  "contractName": "RealEstateMarketplace",
  "abi": [
    {
      "inputs": [],
      "stateMutability": "nonpayable",
      "type": "constructor"
    },
    {
      "anonymous": false,
      "inputs": [
        {
          "indexed": true,
          "internalType": "address",
          "name": "owner",
          "type": "address"
        },
        {
          "indexed": true,
          "internalType": "address",
          "name": "approved",
          "type": "address"
        },
        {
          "indexed": true,
          "internalType": "uint256",
          "name": "tokenId",
          "type": "uint256"
        }
      ],
      "name": "Approval",
      "type": "event"
    },
    {
      "anonymous": false,
      "inputs": [
        {
          "indexed": true,
          "internalType": "address",
          "name": "owner",
          "type": "address"
        },
        {
          "indexed": true,
          "internalType": "address",
          "name": "operator",
          "type": "address"
        },
        {
          "indexed": false,
          "internalType": "bool",
          "name": "approved",
          "type": "bool"
        }
      ],
      "name": "ApprovalForAll",
      "type": "event"
    },
    {
      "anonymous": false,
      "inputs": [
        {
          "indexed": true,
          "internalType": "address",
          "name": "from",
          "type": "address"
        },
        {
          "indexed": true,
          "internalType": "address",
          "name": "to",
          "type": "address"
        },
        {
          "indexed": true,
          "internalType": "uint256",
          "name": "tokenId",
          "type": "uint256"
        }
      ],
      "name": "Transfer",
      "type": "event"
    },
    {
      "inputs": [
        {
          "internalType": "address",
          "name": "to",
          "type": "address"
        },
        {
          "internalType": "uint256",
          "name": "tokenId",
          "type": "uint256"
        }
      ],
      "name": "approve",
      "outputs": [],
      "stateMutability": "nonpayable",
      "type": "function"
    },
    {
      "inputs": [
        {
          "internalType": "address",
          "name": "owner",
          "type": "address"
        }
      ],
      "name": "balanceOf",
      "outputs": [
        {
          "internalType": "uint256",
          "name": "",
          "type": "uint256"
        }
      ],
      "stateMutability": "view",
      "type": "function",
      "constant": true
    },
    {
      "inputs": [
        {
          "internalType": "uint256",
          "name": "tokenId",
          "type": "uint256"
        }
      ],
      "name": "getApproved",
      "outputs": [
        {
          "internalType": "address",
          "name": "",
          "type": "address"
        }
      ],
      "stateMutability": "view",
      "type": "function",
      "constant": true
    },
    {
      "inputs": [
        {
          "internalType": "address",
          "name": "owner",
          "type": "address"
        },
        {
          "internalType": "address",
          "name": "operator",
          "type": "address"
        }
      ],
      "name": "isApprovedForAll",
      "outputs": [
        {
          "internalType": "bool",
          "name": "",
          "type": "bool"
        }
      ],
      "stateMutability": "view",
      "type": "function",
      "constant": true
    },
    {
      "inputs": [],
      "name": "name",
      "outputs": [
        {
          "internalType": "string",
          "name": "",
          "type": "string"
        }
      ],
      "stateMutability": "view",
      "type": "function",
      "constant": true
    },
    {
      "inputs": [
        {
          "internalType": "uint256",
          "name": "tokenId",
          "type": "uint256"
        }
      ],
      "name": "ownerOf",
      "outputs": [
        {
          "internalType": "address",
          "name": "",
          "type": "address"
        }
      ],
      "stateMutability": "view",
      "type": "function",
      "constant": true
    },
    {
      "inputs": [
        {
          "internalType": "uint256",
          "name": "",
          "type": "uint256"
        }
      ],
      "name": "properties",
      "outputs": [
        {
          "internalType": "string",
          "name": "name",
          "type": "string"
        },
        {
          "internalType": "string",
          "name": "description",
          "type": "string"
        },
        {
          "internalType": "uint256",
          "name": "price",
          "type": "uint256"
        },
        {
          "internalType": "bool",
          "name": "forSale",
          "type": "bool"
        },
        {
          "internalType": "string",
          "name": "imageurl",
          "type": "string"
        }
      ],
      "stateMutability": "view",
      "type": "function",
      "constant": true
    },
    {
      "inputs": [
        {
          "internalType": "uint256",
          "name": "",
          "type": "uint256"
        }
      ],
      "name": "propertyToOwner",
      "outputs": [
        {
          "internalType": "address",
          "name": "",
          "type": "address"
        }
      ],
      "stateMutability": "view",
      "type": "function",
      "constant": true
    },
    {
      "inputs": [
        {
          "internalType": "uint256",
          "name": "",
          "type": "uint256"
        }
      ],
      "name": "propertyToSeller",
      "outputs": [
        {
          "internalType": "address",
          "name": "",
          "type": "address"
        }
      ],
      "stateMutability": "view",
      "type": "function",
      "constant": true
    },
    {
      "inputs": [
        {
          "internalType": "address",
          "name": "from",
          "type": "address"
        },
        {
          "internalType": "address",
          "name": "to",
          "type": "address"
        },
        {
          "internalType": "uint256",
          "name": "tokenId",
          "type": "uint256"
        }
      ],
      "name": "safeTransferFrom",
      "outputs": [],
      "stateMutability": "nonpayable",
      "type": "function"
    },
    {
      "inputs": [
        {
          "internalType": "address",
          "name": "from",
          "type": "address"
        },
        {
          "internalType": "address",
          "name": "to",
          "type": "address"
        },
        {
          "internalType": "uint256",
          "name": "tokenId",
          "type": "uint256"
        },
        {
          "internalType": "bytes",
          "name": "data",
          "type": "bytes"
        }
      ],
      "name": "safeTransferFrom",
      "outputs": [],
      "stateMutability": "nonpayable",
      "type": "function"
    },
    {
      "inputs": [
        {
          "internalType": "address",
          "name": "operator",
          "type": "address"
        },
        {
          "internalType": "bool",
          "name": "approved",
          "type": "bool"
        }
      ],
      "name": "setApprovalForAll",
      "outputs": [],
      "stateMutability": "nonpayable",
      "type": "function"
    },
    {
      "inputs": [
        {
          "internalType": "bytes4",
          "name": "interfaceId",
          "type": "bytes4"
        }
      ],
      "name": "supportsInterface",
      "outputs": [
        {
          "internalType": "bool",
          "name": "",
          "type": "bool"
        }
      ],
      "stateMutability": "view",
      "type": "function",
      "constant": true
    },
    {
      "inputs": [],
      "name": "symbol",
      "outputs": [
        {
          "internalType": "string",
          "name": "",
          "type": "string"
        }
      ],
      "stateMutability": "view",
      "type": "function",
      "constant": true
    },
    {
      "inputs": [
        {
          "internalType": "uint256",
          "name": "index",
          "type": "uint256"
        }
      ],
      "name": "tokenByIndex",
      "outputs": [
        {
          "internalType": "uint256",
          "name": "",
          "type": "uint256"
        }
      ],
      "stateMutability": "view",
      "type": "function",
      "constant": true
    },
    {
      "inputs": [
        {
          "internalType": "address",
          "name": "owner",
          "type": "address"
        },
        {
          "internalType": "uint256",
          "name": "index",
          "type": "uint256"
        }
      ],
      "name": "tokenOfOwnerByIndex",
      "outputs": [
        {
          "internalType": "uint256",
          "name": "",
          "type": "uint256"
        }
      ],
      "stateMutability": "view",
      "type": "function",
      "constant": true
    },
    {
      "inputs": [
        {
          "internalType": "uint256",
          "name": "tokenId",
          "type": "uint256"
        }
      ],
      "name": "tokenURI",
      "outputs": [
        {
          "internalType": "string",
          "name": "",
          "type": "string"
        }
      ],
      "stateMutability": "view",
      "type": "function",
      "constant": true
    },
    {
      "inputs": [],
      "name": "totalSupply",
      "outputs": [
        {
          "internalType": "uint256",
          "name": "",
          "type": "uint256"
        }
      ],
      "stateMutability": "view",
      "type": "function",
      "constant": true
    },
    {
      "inputs": [
        {
          "internalType": "address",
          "name": "from",
          "type": "address"
        },
        {
          "internalType": "address",
          "name": "to",
          "type": "address"
        },
        {
          "internalType": "uint256",
          "name": "tokenId",
          "type": "uint256"
        }
      ],
      "name": "transferFrom",
      "outputs": [],
      "stateMutability": "nonpayable",
      "type": "function"
    },
    {
      "inputs": [
        {
          "internalType": "string",
          "name": "_name",
          "type": "string"
        },
        {
          "internalType": "string",
          "name": "_description",
          "type": "string"
        },
        {
          "internalType": "uint256",
          "name": "_price",
          "type": "uint256"
        },
        {
          "internalType": "string",
          "name": "_imageurl",
          "type": "string"
        }
      ],
      "name": "createProperty",
      "outputs": [],
      "stateMutability": "nonpayable",
      "type": "function"
    },
    {
      "inputs": [
        {
          "internalType": "uint256",
          "name": "_propertyId",
          "type": "uint256"
        }
      ],
      "name": "getProperty",
      "outputs": [
        {
          "internalType": "string",
          "name": "name",
          "type": "string"
        },
        {
          "internalType": "string",
          "name": "description",
          "type": "string"
        },
        {
          "internalType": "uint256",
          "name": "price",
          "type": "uint256"
        },
        {
          "internalType": "address",
          "name": "owner",
          "type": "address"
        },
        {
          "internalType": "bool",
          "name": "forSale",
          "type": "bool"
        },
        {
          "internalType": "string",
          "name": "imageurl",
          "type": "string"
        }
      ],
      "stateMutability": "view",
      "type": "function",
      "constant": true
    },
    {
      "inputs": [
        {
          "internalType": "uint256",
          "name": "_propertyId",
          "type": "uint256"
        },
        {
          "internalType": "string",
          "name": "name",
          "type": "string"
        }
      ],
      "name": "buyProperty",
      "outputs": [],
      "stateMutability": "payable",
      "type": "function",
      "payable": true
    },
    {
      "inputs": [
        {
          "internalType": "uint256",
          "name": "_propertyId",
          "type": "uint256"
        },
        {
          "internalType": "uint256",
          "name": "_price",
          "type": "uint256"
        }
      ],
      "name": "listPropertyForSale",
      "outputs": [],
      "stateMutability": "nonpayable",
      "type": "function"
    },
    {
      "inputs": [
        {
          "internalType": "uint256",
          "name": "_propertyId",
          "type": "uint256"
        },
        {
          "internalType": "uint256",
          "name": "_price",
          "type": "uint256"
        }
      ],
      "name": "sellProperty",
      "outputs": [],
      "stateMutability": "nonpayable",
      "type": "function"
    },
    {
      "inputs": [
        {
          "internalType": "uint256",
          "name": "_propertyId",
          "type": "uint256"
        }
      ],
      "name": "getPropertySeller",
      "outputs": [
        {
          "internalType": "address",
          "name": "",
          "type": "address"
        }
      ],
      "stateMutability": "view",
      "type": "function",
      "constant": true
    }
  ],
  "bytecode": "0x60806040523480156200001157600080fd5b506040518060400160405280600d81526020017f5265616c4573746174654e4654000000000000000000000000000000000000008152506040518060400160405280600281526020017f5245000000000000000000000000000000000000000000000000000000000000815250816000908051906020019062000096929190620000b8565b508060019080519060200190620000af929190620000b8565b505050620001cc565b828054620000c69062000197565b90600052602060002090601f016020900481019282620000ea576000855562000136565b82601f106200010557805160ff191683800117855562000136565b8280016001018555821562000136579182015b828111156200013557825182559160200191906001019062000118565b5b50905062000145919062000149565b5090565b5b80821115620001645760008160009055506001016200014a565b5090565b7f4e487b7100000000000000000000000000000000000000000000000000000000600052602260045260246000fd5b60006002820490506001821680620001b057607f821691505b602082108103620001c657620001c562000168565b5b50919050565b6141f080620001dc6000396000f3fe6080604052600436106101665760003560e01c80633a7e1c2d116100d1578063a22cb4651161008a578063c87b56dd11610064578063c87b56dd1461058e578063e985e9c5146105cb578063ed46a8cf14610608578063f7b108081461063157610166565b8063a22cb46514610513578063b87008a31461053c578063b88d4fde1461056557610166565b80633a7e1c2d146103cb57806342842e0e146104085780634f6ccce7146104315780636352211e1461046e57806370a08231146104ab57806395d89b41146104e857610166565b806318160ddd1161012357806318160ddd1461029f5780631955cf81146102ca57806323b872dd146102e65780632f745c591461030f57806332665ffb1461034c57806335c848601461038e57610166565b806301ffc9a71461016b57806306fdde03146101a8578063081812fc146101d3578063095ea7b3146102105780630b56e383146102395780630f55415b14610276575b600080fd5b34801561017757600080fd5b50610192600480360381019061018d9190612de6565b610672565b60405161019f9190612e2e565b60405180910390f35b3480156101b457600080fd5b506101bd6106ec565b6040516101ca9190612ee2565b60405180910390f35b3480156101df57600080fd5b506101fa60048036038101906101f59190612f3a565b61077e565b6040516102079190612fa8565b60405180910390f35b34801561021c57600080fd5b5061023760048036038101906102329190612fef565b6107c4565b005b34801561024557600080fd5b50610260600480360381019061025b9190612f3a565b6108db565b60405161026d9190612fa8565b60405180910390f35b34801561028257600080fd5b5061029d6004803603810190610298919061302f565b61090e565b005b3480156102ab57600080fd5b506102b4610a6f565b6040516102c1919061307e565b60405180910390f35b6102e460048036038101906102df91906131ce565b610a7c565b005b3480156102f257600080fd5b5061030d6004803603810190610308919061322a565b610cc6565b005b34801561031b57600080fd5b5061033660048036038101906103319190612fef565b610d26565b604051610343919061307e565b60405180910390f35b34801561035857600080fd5b50610373600480360381019061036e9190612f3a565b610dcb565b6040516103859695949392919061327d565b60405180910390f35b34801561039a57600080fd5b506103b560048036038101906103b09190612f3a565b611054565b6040516103c29190612fa8565b60405180910390f35b3480156103d757600080fd5b506103f260048036038101906103ed9190612f3a565b611087565b6040516103ff9190612fa8565b60405180910390f35b34801561041457600080fd5b5061042f600480360381019061042a919061322a565b61110c565b005b34801561043d57600080fd5b5061045860048036038101906104539190612f3a565b61112c565b604051610465919061307e565b60405180910390f35b34801561047a57600080fd5b5061049560048036038101906104909190612f3a565b61119d565b6040516104a29190612fa8565b60405180910390f35b3480156104b757600080fd5b506104d260048036038101906104cd91906132f3565b611223565b6040516104df919061307e565b60405180910390f35b3480156104f457600080fd5b506104fd6112da565b60405161050a9190612ee2565b60405180910390f35b34801561051f57600080fd5b5061053a6004803603810190610535919061334c565b61136c565b005b34801561054857600080fd5b50610563600480360381019061055e919061338c565b611382565b005b34801561057157600080fd5b5061058c600480360381019061058791906134e8565b611519565b005b34801561059a57600080fd5b506105b560048036038101906105b09190612f3a565b61157b565b6040516105c29190612ee2565b60405180910390f35b3480156105d757600080fd5b506105f260048036038101906105ed919061356b565b6115e3565b6040516105ff9190612e2e565b60405180910390f35b34801561061457600080fd5b5061062f600480360381019061062a919061302f565b611677565b005b34801561063d57600080fd5b5061065860048036038101906106539190612f3a565b6117d8565b6040516106699594939291906135ab565b60405180910390f35b60007f780e9d63000000000000000000000000000000000000000000000000000000007bffffffffffffffffffffffffffffffffffffffffffffffffffffffff1916827bffffffffffffffffffffffffffffffffffffffffffffffffffffffff191614806106e557506106e4826119c3565b5b9050919050565b6060600080546106fb90613642565b80601f016020809104026020016040519081016040528092919081815260200182805461072790613642565b80156107745780601f1061074957610100808354040283529160200191610774565b820191906000526020600020905b81548152906001019060200180831161075757829003601f168201915b5050505050905090565b600061078982611aa5565b6004600083815260200190815260200160002060009054906101000a900473ffffffffffffffffffffffffffffffffffffffff169050919050565b60006107cf8261119d565b90508073ffffffffffffffffffffffffffffffffffffffff168373ffffffffffffffffffffffffffffffffffffffff160361083f576040517f08c379a0000000000000000000000000000000000000000000000000000000008152600401610836906136e5565b60405180910390fd5b8073ffffffffffffffffffffffffffffffffffffffff1661085e611af0565b73ffffffffffffffffffffffffffffffffffffffff16148061088d575061088c81610887611af0565b6115e3565b5b6108cc576040517f08c379a00000000000000000000000000000000000000000000000000000000081526004016108c390613777565b60405180910390fd5b6108d68383611af8565b505050565b600b6020528060005260406000206000915054906101000a900473ffffffffffffffffffffffffffffffffffffffff1681565b61091782611bb1565b610956576040517f08c379a000000000000000000000000000000000000000000000000000000000815260040161094d906137e3565b60405180910390fd5b3373ffffffffffffffffffffffffffffffffffffffff166109768361119d565b73ffffffffffffffffffffffffffffffffffffffff16146109cc576040517f08c379a00000000000000000000000000000000000000000000000000000000081526004016109c39061384f565b60405180910390fd5b6000600a83815481106109e2576109e161386f565b5b9060005260206000209060050201905033600c600085815260200190815260200160002060006101000a81548173ffffffffffffffffffffffffffffffffffffffff021916908373ffffffffffffffffffffffffffffffffffffffff16021790555081816002018190555060018160030160006101000a81548160ff021916908315150217905550505050565b6000600880549050905090565b610a8582611bb1565b610ac4576040517f08c379a0000000000000000000000000000000000000000000000000000000008152600401610abb906137e3565b60405180910390fd5b6000600a8381548110610ada57610ad961386f565b5b906000526020600020906005020190508060030160009054906101000a900460ff16610b3b576040517f08c379a0000000000000000000000000000000000000000000000000000000008152600401610b32906138ea565b60405180910390fd5b80600201543414610b81576040517f08c379a0000000000000000000000000000000000000000000000000000000008152600401610b7890613956565b60405180910390fd5b6000610b8c8461119d565b905060008190508073ffffffffffffffffffffffffffffffffffffffff166108fc349081150290604051600060405180830381858888f19350505050158015610bd9573d6000803e3d6000fd5b50610be5823387611bf2565b83836000019080519060200190610bfd929190612cd7565b5033600b600087815260200190815260200160002060006101000a81548173ffffffffffffffffffffffffffffffffffffffff021916908373ffffffffffffffffffffffffffffffffffffffff16021790555081600c600087815260200190815260200160002060006101000a81548173ffffffffffffffffffffffffffffffffffffffff021916908373ffffffffffffffffffffffffffffffffffffffff16021790555060008360030160006101000a81548160ff0219169083151502179055505050505050565b610cd7610cd1611af0565b82611eeb565b610d16576040517f08c379a0000000000000000000000000000000000000000000000000000000008152600401610d0d906139e8565b60405180910390fd5b610d21838383611bf2565b505050565b6000610d3183611223565b8210610d72576040517f08c379a0000000000000000000000000000000000000000000000000000000008152600401610d6990613a7a565b60405180910390fd5b600660008473ffffffffffffffffffffffffffffffffffffffff1673ffffffffffffffffffffffffffffffffffffffff168152602001908152602001600020600083815260200190815260200160002054905092915050565b60608060008060006060610dde87611bb1565b610e1d576040517f08c379a0000000000000000000000000000000000000000000000000000000008152600401610e14906137e3565b60405180910390fd5b6000600a8881548110610e3357610e3261386f565b5b9060005260206000209060050201905080600001816001018260020154600b60008c815260200190815260200160002060009054906101000a900473ffffffffffffffffffffffffffffffffffffffff168460030160009054906101000a900460ff1685600401858054610ea690613642565b80601f0160208091040260200160405190810160405280929190818152602001828054610ed290613642565b8015610f1f5780601f10610ef457610100808354040283529160200191610f1f565b820191906000526020600020905b815481529060010190602001808311610f0257829003601f168201915b50505050509550848054610f3290613642565b80601f0160208091040260200160405190810160405280929190818152602001828054610f5e90613642565b8015610fab5780601f10610f8057610100808354040283529160200191610fab565b820191906000526020600020905b815481529060010190602001808311610f8e57829003601f168201915b50505050509450808054610fbe90613642565b80601f0160208091040260200160405190810160405280929190818152602001828054610fea90613642565b80156110375780601f1061100c57610100808354040283529160200191611037565b820191906000526020600020905b81548152906001019060200180831161101a57829003601f168201915b505050505090509650965096509650965096505091939550919395565b600c6020528060005260406000206000915054906101000a900473ffffffffffffffffffffffffffffffffffffffff1681565b600061109282611bb1565b6110d1576040517f08c379a00000000000000000000000000000000000000000000000000000000081526004016110c8906137e3565b60405180910390fd5b600c600083815260200190815260200160002060009054906101000a900473ffffffffffffffffffffffffffffffffffffffff169050919050565b61112783838360405180602001604052806000815250611519565b505050565b6000611136610a6f565b8210611177576040517f08c379a000000000000000000000000000000000000000000000000000000000815260040161116e90613b0c565b60405180910390fd5b6008828154811061118b5761118a61386f565b5b90600052602060002001549050919050565b6000806111a983611f80565b9050600073ffffffffffffffffffffffffffffffffffffffff168173ffffffffffffffffffffffffffffffffffffffff160361121a576040517f08c379a000000000000000000000000000000000000000000000000000000000815260040161121190613b78565b60405180910390fd5b80915050919050565b60008073ffffffffffffffffffffffffffffffffffffffff168273ffffffffffffffffffffffffffffffffffffffff1603611293576040517f08c379a000000000000000000000000000000000000000000000000000000000815260040161128a90613c0a565b60405180910390fd5b600360008373ffffffffffffffffffffffffffffffffffffffff1673ffffffffffffffffffffffffffffffffffffffff168152602001908152602001600020549050919050565b6060600180546112e990613642565b80601f016020809104026020016040519081016040528092919081815260200182805461131590613642565b80156113625780601f1061133757610100808354040283529160200191611362565b820191906000526020600020905b81548152906001019060200180831161134557829003601f168201915b5050505050905090565b61137e611377611af0565b8383611fbd565b5050565b6000600a805490509050600a6040518060a0016040528087815260200186815260200185815260200160011515815260200184815250908060018154018082558091505060019003906000526020600020906005020160009091909190915060008201518160000190805190602001906113fd929190612cd7565b50602082015181600101908051906020019061141a929190612cd7565b506040820151816002015560608201518160030160006101000a81548160ff0219169083151502179055506080820151816004019080519060200190611461929190612cd7565b50505061146e3382612129565b33600b600083815260200190815260200160002060006101000a81548173ffffffffffffffffffffffffffffffffffffffff021916908373ffffffffffffffffffffffffffffffffffffffff16021790555033600c600083815260200190815260200160002060006101000a81548173ffffffffffffffffffffffffffffffffffffffff021916908373ffffffffffffffffffffffffffffffffffffffff1602179055505050505050565b61152a611524611af0565b83611eeb565b611569576040517f08c379a0000000000000000000000000000000000000000000000000000000008152600401611560906139e8565b60405180910390fd5b61157584848484612147565b50505050565b606061158682611aa5565b60006115906121a3565b905060008151116115b057604051806020016040528060008152506115db565b806115ba846121ba565b6040516020016115cb929190613c66565b6040516020818303038152906040525b915050919050565b6000600560008473ffffffffffffffffffffffffffffffffffffffff1673ffffffffffffffffffffffffffffffffffffffff16815260200190815260200160002060008373ffffffffffffffffffffffffffffffffffffffff1673ffffffffffffffffffffffffffffffffffffffff16815260200190815260200160002060009054906101000a900460ff16905092915050565b61168082611bb1565b6116bf576040517f08c379a00000000000000000000000000000000000000000000000000000000081526004016116b6906137e3565b60405180910390fd5b3373ffffffffffffffffffffffffffffffffffffffff166116df8361119d565b73ffffffffffffffffffffffffffffffffffffffff1614611735576040517f08c379a000000000000000000000000000000000000000000000000000000000815260040161172c9061384f565b60405180910390fd5b6000600a838154811061174b5761174a61386f565b5b9060005260206000209060050201905081816002018190555060018160030160006101000a81548160ff02191690831515021790555033600c600085815260200190815260200160002060006101000a81548173ffffffffffffffffffffffffffffffffffffffff021916908373ffffffffffffffffffffffffffffffffffffffff160217905550505050565b600a81815481106117e857600080fd5b906000526020600020906005020160009150905080600001805461180b90613642565b80601f016020809104026020016040519081016040528092919081815260200182805461183790613642565b80156118845780601f1061185957610100808354040283529160200191611884565b820191906000526020600020905b81548152906001019060200180831161186757829003601f168201915b50505050509080600101805461189990613642565b80601f01602080910402602001604051908101604052809291908181526020018280546118c590613642565b80156119125780601f106118e757610100808354040283529160200191611912565b820191906000526020600020905b8154815290600101906020018083116118f557829003601f168201915b5050505050908060020154908060030160009054906101000a900460ff169080600401805461194090613642565b80601f016020809104026020016040519081016040528092919081815260200182805461196c90613642565b80156119b95780601f1061198e576101008083540402835291602001916119b9565b820191906000526020600020905b81548152906001019060200180831161199c57829003601f168201915b5050505050905085565b60007f80ac58cd000000000000000000000000000000000000000000000000000000007bffffffffffffffffffffffffffffffffffffffffffffffffffffffff1916827bffffffffffffffffffffffffffffffffffffffffffffffffffffffff19161480611a8e57507f5b5e139f000000000000000000000000000000000000000000000000000000007bffffffffffffffffffffffffffffffffffffffffffffffffffffffff1916827bffffffffffffffffffffffffffffffffffffffffffffffffffffffff1916145b80611a9e5750611a9d82612288565b5b9050919050565b611aae81611bb1565b611aed576040517f08c379a0000000000000000000000000000000000000000000000000000000008152600401611ae490613b78565b60405180910390fd5b50565b600033905090565b816004600083815260200190815260200160002060006101000a81548173ffffffffffffffffffffffffffffffffffffffff021916908373ffffffffffffffffffffffffffffffffffffffff160217905550808273ffffffffffffffffffffffffffffffffffffffff16611b6b8361119d565b73ffffffffffffffffffffffffffffffffffffffff167f8c5be1e5ebec7d5bd14f71427d1e84f3dd0314c0f7b2291e5b200ac8c7c3b92560405160405180910390a45050565b60008073ffffffffffffffffffffffffffffffffffffffff16611bd383611f80565b73ffffffffffffffffffffffffffffffffffffffff1614159050919050565b8273ffffffffffffffffffffffffffffffffffffffff16611c128261119d565b73ffffffffffffffffffffffffffffffffffffffff1614611c68576040517f08c379a0000000000000000000000000000000000000000000000000000000008152600401611c5f90613cfc565b60405180910390fd5b600073ffffffffffffffffffffffffffffffffffffffff168273ffffffffffffffffffffffffffffffffffffffff1603611cd7576040517f08c379a0000000000000000000000000000000000000000000000000000000008152600401611cce90613d8e565b60405180910390fd5b611ce483838360016122f2565b8273ffffffffffffffffffffffffffffffffffffffff16611d048261119d565b73ffffffffffffffffffffffffffffffffffffffff1614611d5a576040517f08c379a0000000000000000000000000000000000000000000000000000000008152600401611d5190613cfc565b60405180910390fd5b6004600082815260200190815260200160002060006101000a81549073ffffffffffffffffffffffffffffffffffffffff02191690556001600360008573ffffffffffffffffffffffffffffffffffffffff1673ffffffffffffffffffffffffffffffffffffffff168152602001908152602001600020600082825403925050819055506001600360008473ffffffffffffffffffffffffffffffffffffffff1673ffffffffffffffffffffffffffffffffffffffff16815260200190815260200160002060008282540192505081905550816002600083815260200190815260200160002060006101000a81548173ffffffffffffffffffffffffffffffffffffffff021916908373ffffffffffffffffffffffffffffffffffffffff160217905550808273ffffffffffffffffffffffffffffffffffffffff168473ffffffffffffffffffffffffffffffffffffffff167fddf252ad1be2c89b69c2b068fc378daa952ba7f163c4a11628f55a4df523b3ef60405160405180910390a4611ee68383836001612450565b505050565b600080611ef78361119d565b90508073ffffffffffffffffffffffffffffffffffffffff168473ffffffffffffffffffffffffffffffffffffffff161480611f395750611f3881856115e3565b5b80611f7757508373ffffffffffffffffffffffffffffffffffffffff16611f5f8461077e565b73ffffffffffffffffffffffffffffffffffffffff16145b91505092915050565b60006002600083815260200190815260200160002060009054906101000a900473ffffffffffffffffffffffffffffffffffffffff169050919050565b8173ffffffffffffffffffffffffffffffffffffffff168373ffffffffffffffffffffffffffffffffffffffff160361202b576040517f08c379a000000000000000000000000000000000000000000000000000000000815260040161202290613dfa565b60405180910390fd5b80600560008573ffffffffffffffffffffffffffffffffffffffff1673ffffffffffffffffffffffffffffffffffffffff16815260200190815260200160002060008473ffffffffffffffffffffffffffffffffffffffff1673ffffffffffffffffffffffffffffffffffffffff16815260200190815260200160002060006101000a81548160ff0219169083151502179055508173ffffffffffffffffffffffffffffffffffffffff168373ffffffffffffffffffffffffffffffffffffffff167f17307eab39ab6107e8899845ad3d59bd9653f200f220920489ca2b5937696c318360405161211c9190612e2e565b60405180910390a3505050565b612143828260405180602001604052806000815250612456565b5050565b612152848484611bf2565b61215e848484846124b1565b61219d576040517f08c379a000000000000000000000000000000000000000000000000000000000815260040161219490613e8c565b60405180910390fd5b50505050565b606060405180602001604052806000815250905090565b6060600060016121c984612638565b01905060008167ffffffffffffffff8111156121e8576121e76130a3565b5b6040519080825280601f01601f19166020018201604052801561221a5781602001600182028036833780820191505090505b509050600082602001820190505b60011561227d578080600190039150507f3031323334353637383961626364656600000000000000000000000000000000600a86061a8153600a858161227157612270613eac565b5b04945060008503612228575b819350505050919050565b60007f01ffc9a7000000000000000000000000000000000000000000000000000000007bffffffffffffffffffffffffffffffffffffffffffffffffffffffff1916827bffffffffffffffffffffffffffffffffffffffffffffffffffffffff1916149050919050565b6122fe8484848461278b565b6001811115612342576040517f08c379a000000000000000000000000000000000000000000000000000000000815260040161233990613f4d565b60405180910390fd5b6000829050600073ffffffffffffffffffffffffffffffffffffffff168573ffffffffffffffffffffffffffffffffffffffff16036123895761238481612791565b6123c8565b8373ffffffffffffffffffffffffffffffffffffffff168573ffffffffffffffffffffffffffffffffffffffff16146123c7576123c685826127da565b5b5b600073ffffffffffffffffffffffffffffffffffffffff168473ffffffffffffffffffffffffffffffffffffffff160361240a5761240581612947565b612449565b8473ffffffffffffffffffffffffffffffffffffffff168473ffffffffffffffffffffffffffffffffffffffff1614612448576124478482612a18565b5b5b5050505050565b50505050565b6124608383612a97565b61246d60008484846124b1565b6124ac576040517f08c379a00000000000000000000000000000000000000000000000000000000081526004016124a390613e8c565b60405180910390fd5b505050565b60006124d28473ffffffffffffffffffffffffffffffffffffffff16612cb4565b1561262b578373ffffffffffffffffffffffffffffffffffffffff1663150b7a026124fb611af0565b8786866040518563ffffffff1660e01b815260040161251d9493929190613fc2565b6020604051808303816000875af192505050801561255957506040513d601f19601f820116820180604052508101906125569190614023565b60015b6125db573d8060008114612589576040519150601f19603f3d011682016040523d82523d6000602084013e61258e565b606091505b5060008151036125d3576040517f08c379a00000000000000000000000000000000000000000000000000000000081526004016125ca90613e8c565b60405180910390fd5b805181602001fd5b63150b7a0260e01b7bffffffffffffffffffffffffffffffffffffffffffffffffffffffff1916817bffffffffffffffffffffffffffffffffffffffffffffffffffffffff191614915050612630565b600190505b949350505050565b600080600090507a184f03e93ff9f4daa797ed6e38ed64bf6a1f0100000000000000008310612696577a184f03e93ff9f4daa797ed6e38ed64bf6a1f010000000000000000838161268c5761268b613eac565b5b0492506040810190505b6d04ee2d6d415b85acef810000000083106126d3576d04ee2d6d415b85acef810000000083816126c9576126c8613eac565b5b0492506020810190505b662386f26fc10000831061270257662386f26fc1000083816126f8576126f7613eac565b5b0492506010810190505b6305f5e100831061272b576305f5e100838161272157612720613eac565b5b0492506008810190505b612710831061275057612710838161274657612745613eac565b5b0492506004810190505b60648310612773576064838161276957612768613eac565b5b0492506002810190505b600a8310612782576001810190505b80915050919050565b50505050565b6008805490506009600083815260200190815260200160002081905550600881908060018154018082558091505060019003906000526020600020016000909190919091505550565b600060016127e784611223565b6127f1919061407f565b90506000600760008481526020019081526020016000205490508181146128d6576000600660008673ffffffffffffffffffffffffffffffffffffffff1673ffffffffffffffffffffffffffffffffffffffff168152602001908152602001600020600084815260200190815260200160002054905080600660008773ffffffffffffffffffffffffffffffffffffffff1673ffffffffffffffffffffffffffffffffffffffff168152602001908152602001600020600084815260200190815260200160002081905550816007600083815260200190815260200160002081905550505b6007600084815260200190815260200160002060009055600660008573ffffffffffffffffffffffffffffffffffffffff1673ffffffffffffffffffffffffffffffffffffffff16815260200190815260200160002060008381526020019081526020016000206000905550505050565b6000600160088054905061295b919061407f565b905060006009600084815260200190815260200160002054905060006008838154811061298b5761298a61386f565b5b9060005260206000200154905080600883815481106129ad576129ac61386f565b5b9060005260206000200181905550816009600083815260200190815260200160002081905550600960008581526020019081526020016000206000905560088054806129fc576129fb6140b3565b5b6001900381819060005260206000200160009055905550505050565b6000612a2383611223565b905081600660008573ffffffffffffffffffffffffffffffffffffffff1673ffffffffffffffffffffffffffffffffffffffff168152602001908152602001600020600083815260200190815260200160002081905550806007600084815260200190815260200160002081905550505050565b600073ffffffffffffffffffffffffffffffffffffffff168273ffffffffffffffffffffffffffffffffffffffff1603612b06576040517f08c379a0000000000000000000000000000000000000000000000000000000008152600401612afd9061412e565b60405180910390fd5b612b0f81611bb1565b15612b4f576040517f08c379a0000000000000000000000000000000000000000000000000000000008152600401612b469061419a565b60405180910390fd5b612b5d6000838360016122f2565b612b6681611bb1565b15612ba6576040517f08c379a0000000000000000000000000000000000000000000000000000000008152600401612b9d9061419a565b60405180910390fd5b6001600360008473ffffffffffffffffffffffffffffffffffffffff1673ffffffffffffffffffffffffffffffffffffffff16815260200190815260200160002060008282540192505081905550816002600083815260200190815260200160002060006101000a81548173ffffffffffffffffffffffffffffffffffffffff021916908373ffffffffffffffffffffffffffffffffffffffff160217905550808273ffffffffffffffffffffffffffffffffffffffff16600073ffffffffffffffffffffffffffffffffffffffff167fddf252ad1be2c89b69c2b068fc378daa952ba7f163c4a11628f55a4df523b3ef60405160405180910390a4612cb0600083836001612450565b5050565b6000808273ffffffffffffffffffffffffffffffffffffffff163b119050919050565b828054612ce390613642565b90600052602060002090601f016020900481019282612d055760008555612d4c565b82601f10612d1e57805160ff1916838001178555612d4c565b82800160010185558215612d4c579182015b82811115612d4b578251825591602001919060010190612d30565b5b509050612d599190612d5d565b5090565b5b80821115612d76576000816000905550600101612d5e565b5090565b6000604051905090565b600080fd5b600080fd5b60007fffffffff0000000000000000000000000000000000000000000000000000000082169050919050565b612dc381612d8e565b8114612dce57600080fd5b50565b600081359050612de081612dba565b92915050565b600060208284031215612dfc57612dfb612d84565b5b6000612e0a84828501612dd1565b91505092915050565b60008115159050919050565b612e2881612e13565b82525050565b6000602082019050612e436000830184612e1f565b92915050565b600081519050919050565b600082825260208201905092915050565b60005b83811015612e83578082015181840152602081019050612e68565b83811115612e92576000848401525b50505050565b6000601f19601f8301169050919050565b6000612eb482612e49565b612ebe8185612e54565b9350612ece818560208601612e65565b612ed781612e98565b840191505092915050565b60006020820190508181036000830152612efc8184612ea9565b905092915050565b6000819050919050565b612f1781612f04565b8114612f2257600080fd5b50565b600081359050612f3481612f0e565b92915050565b600060208284031215612f5057612f4f612d84565b5b6000612f5e84828501612f25565b91505092915050565b600073ffffffffffffffffffffffffffffffffffffffff82169050919050565b6000612f9282612f67565b9050919050565b612fa281612f87565b82525050565b6000602082019050612fbd6000830184612f99565b92915050565b612fcc81612f87565b8114612fd757600080fd5b50565b600081359050612fe981612fc3565b92915050565b6000806040838503121561300657613005612d84565b5b600061301485828601612fda565b925050602061302585828601612f25565b9150509250929050565b6000806040838503121561304657613045612d84565b5b600061305485828601612f25565b925050602061306585828601612f25565b9150509250929050565b61307881612f04565b82525050565b6000602082019050613093600083018461306f565b92915050565b600080fd5b600080fd5b7f4e487b7100000000000000000000000000000000000000000000000000000000600052604160045260246000fd5b6130db82612e98565b810181811067ffffffffffffffff821117156130fa576130f96130a3565b5b80604052505050565b600061310d612d7a565b905061311982826130d2565b919050565b600067ffffffffffffffff821115613139576131386130a3565b5b61314282612e98565b9050602081019050919050565b82818337600083830152505050565b600061317161316c8461311e565b613103565b90508281526020810184848401111561318d5761318c61309e565b5b61319884828561314f565b509392505050565b600082601f8301126131b5576131b4613099565b5b81356131c584826020860161315e565b91505092915050565b600080604083850312156131e5576131e4612d84565b5b60006131f385828601612f25565b925050602083013567ffffffffffffffff81111561321457613213612d89565b5b613220858286016131a0565b9150509250929050565b60008060006060848603121561324357613242612d84565b5b600061325186828701612fda565b935050602061326286828701612fda565b925050604061327386828701612f25565b9150509250925092565b600060c08201905081810360008301526132978189612ea9565b905081810360208301526132ab8188612ea9565b90506132ba604083018761306f565b6132c76060830186612f99565b6132d46080830185612e1f565b81810360a08301526132e68184612ea9565b9050979650505050505050565b60006020828403121561330957613308612d84565b5b600061331784828501612fda565b91505092915050565b61332981612e13565b811461333457600080fd5b50565b60008135905061334681613320565b92915050565b6000806040838503121561336357613362612d84565b5b600061337185828601612fda565b925050602061338285828601613337565b9150509250929050565b600080600080608085870312156133a6576133a5612d84565b5b600085013567ffffffffffffffff8111156133c4576133c3612d89565b5b6133d0878288016131a0565b945050602085013567ffffffffffffffff8111156133f1576133f0612d89565b5b6133fd878288016131a0565b935050604061340e87828801612f25565b925050606085013567ffffffffffffffff81111561342f5761342e612d89565b5b61343b878288016131a0565b91505092959194509250565b600067ffffffffffffffff821115613462576134616130a3565b5b61346b82612e98565b9050602081019050919050565b600061348b61348684613447565b613103565b9050828152602081018484840111156134a7576134a661309e565b5b6134b284828561314f565b509392505050565b600082601f8301126134cf576134ce613099565b5b81356134df848260208601613478565b91505092915050565b6000806000806080858703121561350257613501612d84565b5b600061351087828801612fda565b945050602061352187828801612fda565b935050604061353287828801612f25565b925050606085013567ffffffffffffffff81111561355357613552612d89565b5b61355f878288016134ba565b91505092959194509250565b6000806040838503121561358257613581612d84565b5b600061359085828601612fda565b92505060206135a185828601612fda565b9150509250929050565b600060a08201905081810360008301526135c58188612ea9565b905081810360208301526135d98187612ea9565b90506135e8604083018661306f565b6135f56060830185612e1f565b81810360808301526136078184612ea9565b90509695505050505050565b7f4e487b7100000000000000000000000000000000000000000000000000000000600052602260045260246000fd5b6000600282049050600182168061365a57607f821691505b60208210810361366d5761366c613613565b5b50919050565b7f4552433732313a20617070726f76616c20746f2063757272656e74206f776e6560008201527f7200000000000000000000000000000000000000000000000000000000000000602082015250565b60006136cf602183612e54565b91506136da82613673565b604082019050919050565b600060208201905081810360008301526136fe816136c2565b9050919050565b7f4552433732313a20617070726f76652063616c6c6572206973206e6f7420746f60008201527f6b656e206f776e6572206f7220617070726f76656420666f7220616c6c000000602082015250565b6000613761603d83612e54565b915061376c82613705565b604082019050919050565b6000602082019050818103600083015261379081613754565b9050919050565b7f50726f706572747920646f6573206e6f74206578697374000000000000000000600082015250565b60006137cd601783612e54565b91506137d882613797565b602082019050919050565b600060208201905081810360008301526137fc816137c0565b9050919050565b7f4e6f74207468652070726f7065727479206f776e657200000000000000000000600082015250565b6000613839601683612e54565b915061384482613803565b602082019050919050565b600060208201905081810360008301526138688161382c565b9050919050565b7f4e487b7100000000000000000000000000000000000000000000000000000000600052603260045260246000fd5b7f50726f7065727479206973206e6f7420666f722073616c650000000000000000600082015250565b60006138d4601883612e54565b91506138df8261389e565b602082019050919050565b60006020820190508181036000830152613903816138c7565b9050919050565b7f496e636f7272656374207061796d656e7420616d6f756e740000000000000000600082015250565b6000613940601883612e54565b915061394b8261390a565b602082019050919050565b6000602082019050818103600083015261396f81613933565b9050919050565b7f4552433732313a2063616c6c6572206973206e6f7420746f6b656e206f776e6560008201527f72206f7220617070726f76656400000000000000000000000000000000000000602082015250565b60006139d2602d83612e54565b91506139dd82613976565b604082019050919050565b60006020820190508181036000830152613a01816139c5565b9050919050565b7f455243373231456e756d657261626c653a206f776e657220696e646578206f7560008201527f74206f6620626f756e6473000000000000000000000000000000000000000000602082015250565b6000613a64602b83612e54565b9150613a6f82613a08565b604082019050919050565b60006020820190508181036000830152613a9381613a57565b9050919050565b7f455243373231456e756d657261626c653a20676c6f62616c20696e646578206f60008201527f7574206f6620626f756e64730000000000000000000000000000000000000000602082015250565b6000613af6602c83612e54565b9150613b0182613a9a565b604082019050919050565b60006020820190508181036000830152613b2581613ae9565b9050919050565b7f4552433732313a20696e76616c696420746f6b656e2049440000000000000000600082015250565b6000613b62601883612e54565b9150613b6d82613b2c565b602082019050919050565b60006020820190508181036000830152613b9181613b55565b9050919050565b7f4552433732313a2061646472657373207a65726f206973206e6f74206120766160008201527f6c6964206f776e65720000000000000000000000000000000000000000000000602082015250565b6000613bf4602983612e54565b9150613bff82613b98565b604082019050919050565b60006020820190508181036000830152613c2381613be7565b9050919050565b600081905092915050565b6000613c4082612e49565b613c4a8185613c2a565b9350613c5a818560208601612e65565b80840191505092915050565b6000613c728285613c35565b9150613c7e8284613c35565b91508190509392505050565b7f4552433732313a207472616e736665722066726f6d20696e636f72726563742060008201527f6f776e6572000000000000000000000000000000000000000000000000000000602082015250565b6000613ce6602583612e54565b9150613cf182613c8a565b604082019050919050565b60006020820190508181036000830152613d1581613cd9565b9050919050565b7f4552433732313a207472616e7366657220746f20746865207a65726f2061646460008201527f7265737300000000000000000000000000000000000000000000000000000000602082015250565b6000613d78602483612e54565b9150613d8382613d1c565b604082019050919050565b60006020820190508181036000830152613da781613d6b565b9050919050565b7f4552433732313a20617070726f766520746f2063616c6c657200000000000000600082015250565b6000613de4601983612e54565b9150613def82613dae565b602082019050919050565b60006020820190508181036000830152613e1381613dd7565b9050919050565b7f4552433732313a207472616e7366657220746f206e6f6e20455243373231526560008201527f63656976657220696d706c656d656e7465720000000000000000000000000000602082015250565b6000613e76603283612e54565b9150613e8182613e1a565b604082019050919050565b60006020820190508181036000830152613ea581613e69565b9050919050565b7f4e487b7100000000000000000000000000000000000000000000000000000000600052601260045260246000fd5b7f455243373231456e756d657261626c653a20636f6e736563757469766520747260008201527f616e7366657273206e6f7420737570706f727465640000000000000000000000602082015250565b6000613f37603583612e54565b9150613f4282613edb565b604082019050919050565b60006020820190508181036000830152613f6681613f2a565b9050919050565b600081519050919050565b600082825260208201905092915050565b6000613f9482613f6d565b613f9e8185613f78565b9350613fae818560208601612e65565b613fb781612e98565b840191505092915050565b6000608082019050613fd76000830187612f99565b613fe46020830186612f99565b613ff1604083018561306f565b81810360608301526140038184613f89565b905095945050505050565b60008151905061401d81612dba565b92915050565b60006020828403121561403957614038612d84565b5b60006140478482850161400e565b91505092915050565b7f4e487b7100000000000000000000000000000000000000000000000000000000600052601160045260246000fd5b600061408a82612f04565b915061409583612f04565b9250828210156140a8576140a7614050565b5b828203905092915050565b7f4e487b7100000000000000000000000000000000000000000000000000000000600052603160045260246000fd5b7f4552433732313a206d696e7420746f20746865207a65726f2061646472657373600082015250565b6000614118602083612e54565b9150614123826140e2565b602082019050919050565b600060208201905081810360008301526141478161410b565b9050919050565b7f4552433732313a20746f6b656e20616c7265616479206d696e74656400000000600082015250565b6000614184601c83612e54565b915061418f8261414e565b602082019050919050565b600060208201905081810360008301526141b381614177565b905091905056fea26469706673582212207f99671ca2a54625f65d9020ed9803b60253e003a706b08a197169cd50ecd36f64736f6c634300080d0033",
  "immutableReferences": {},
  "source": "// SPDX-License-Identifier: MIT\npragma solidity ^0.8.0;\n\nimport \"@openzeppelin/contracts/token/ERC721/extensions/ERC721Enumerable.sol\";\n\ncontract RealEstateMarketplace is ERC721Enumerable {\n    struct Property {\n        string name;\n        string description;\n        uint256 price;\n        bool forSale;\n        string imageurl;\n    }\n\n    Property[] public properties;\n\n    mapping(uint256 => address) public propertyToOwner;\n    mapping(uint256 => address) public propertyToSeller;\n\n    constructor() ERC721(\"RealEstateNFT\", \"RE\") {}\n\n    function createProperty(\n        string memory _name,\n        string memory _description,\n        uint256 _price,\n        string memory _imageurl\n    ) external {\n        uint256 propertyId = properties.length;\n        properties.push(Property(_name, _description, _price, true, _imageurl));\n        _safeMint(msg.sender, propertyId);\n        propertyToOwner[propertyId] = msg.sender;\n        propertyToSeller[propertyId] = msg.sender;\n    }\n\n    function getProperty(uint256 _propertyId)\n        external\n        view\n        returns (\n            string memory name,\n            string memory description,\n            uint256 price,\n            address owner,\n            bool forSale,\n            string memory imageurl\n        )\n    {\n        require(_exists(_propertyId), \"Property does not exist\");\n        Property storage property = properties[_propertyId];\n        return (\n            property.name,\n            property.description,\n            property.price,\n            propertyToOwner[_propertyId],\n            property.forSale,\n            property.imageurl\n        );\n    }\n\n    function buyProperty(uint256 _propertyId, string memory name) external payable {\n        require(_exists(_propertyId), \"Property does not exist\");\n        Property storage property = properties[_propertyId];\n        require(property.forSale, \"Property is not for sale\");\n        require(msg.value == property.price, \"Incorrect payment amount\");\n\n        address propertyOwner = ownerOf(_propertyId);\n        address payable seller = payable(propertyOwner);\n        seller.transfer(msg.value);\n        _transfer(propertyOwner, msg.sender, _propertyId);\n        property.name = name;\n        propertyToOwner[_propertyId] = msg.sender;\n        propertyToSeller[_propertyId] = propertyOwner;\n        property.forSale = false;\n    }\n\n    function listPropertyForSale(uint256 _propertyId, uint256 _price) external {\n        require(_exists(_propertyId), \"Property does not exist\");\n        require(ownerOf(_propertyId) == msg.sender, \"Not the property owner\");\n        Property storage property = properties[_propertyId];\n        propertyToSeller[_propertyId] = msg.sender;\n        property.price = _price;\n        property.forSale = true;\n    }\n\n    function sellProperty(uint256 _propertyId, uint256 _price) external {\n        require(_exists(_propertyId), \"Property does not exist\");\n        require(ownerOf(_propertyId) == msg.sender, \"Not the property owner\");\n        Property storage property = properties[_propertyId];\n        property.price = _price;\n        property.forSale = true;\n        propertyToSeller[_propertyId] = msg.sender;\n    }\n\n    function getPropertySeller(uint256 _propertyId) external view returns (address) {\n        require(_exists(_propertyId), \"Property does not exist\");\n        return propertyToSeller[_propertyId];\n    }\n}\n",
  "sourcePath": "/home/bharat/Desktop/Thesis/RealEstate_dapp/contracts/restate.sol",
  "compiler": {
    "name": "solc",
    "version": "0.8.13+commit.abaa5c0e.Emscripten.clang"
  },
  "schemaVersion": "3.4.14",
  "updatedAt": "2023-05-27T05:09:44.725Z",
  "networkType": "ethereum",
  "devdoc": {
    "kind": "dev",
    "methods": {
      "approve(address,uint256)": {
        "details": "See {IERC721-approve}."
      },
      "balanceOf(address)": {
        "details": "See {IERC721-balanceOf}."
      },
      "getApproved(uint256)": {
        "details": "See {IERC721-getApproved}."
      },
      "isApprovedForAll(address,address)": {
        "details": "See {IERC721-isApprovedForAll}."
      },
      "name()": {
        "details": "See {IERC721Metadata-name}."
      },
      "ownerOf(uint256)": {
        "details": "See {IERC721-ownerOf}."
      },
      "safeTransferFrom(address,address,uint256)": {
        "details": "See {IERC721-safeTransferFrom}."
      },
      "safeTransferFrom(address,address,uint256,bytes)": {
        "details": "See {IERC721-safeTransferFrom}."
      },
      "setApprovalForAll(address,bool)": {
        "details": "See {IERC721-setApprovalForAll}."
      },
      "supportsInterface(bytes4)": {
        "details": "See {IERC165-supportsInterface}."
      },
      "symbol()": {
        "details": "See {IERC721Metadata-symbol}."
      },
      "tokenByIndex(uint256)": {
        "details": "See {IERC721Enumerable-tokenByIndex}."
      },
      "tokenOfOwnerByIndex(address,uint256)": {
        "details": "See {IERC721Enumerable-tokenOfOwnerByIndex}."
      },
      "tokenURI(uint256)": {
        "details": "See {IERC721Metadata-tokenURI}."
      },
      "totalSupply()": {
        "details": "See {IERC721Enumerable-totalSupply}."
      },
      "transferFrom(address,address,uint256)": {
        "details": "See {IERC721-transferFrom}."
      }
    },
    "version": 1
  },
  "userdoc": {
    "kind": "user",
    "methods": {},
    "version": 1
  }
}