{
  "contractName": "RealEstateMarketplace",
  "abi": [
    {
      "inputs": [],
      "stateMutability": "nonpayable",
      "type": "constructor"
    },
    {
      "anonymous": false,
      "inputs": [
        {
          "indexed": true,
          "internalType": "address",
          "name": "owner",
          "type": "address"
        },
        {
          "indexed": true,
          "internalType": "address",
          "name": "approved",
          "type": "address"
        },
        {
          "indexed": true,
          "internalType": "uint256",
          "name": "tokenId",
          "type": "uint256"
        }
      ],
      "name": "Approval",
      "type": "event"
    },
    {
      "anonymous": false,
      "inputs": [
        {
          "indexed": true,
          "internalType": "address",
          "name": "owner",
          "type": "address"
        },
        {
          "indexed": true,
          "internalType": "address",
          "name": "operator",
          "type": "address"
        },
        {
          "indexed": false,
          "internalType": "bool",
          "name": "approved",
          "type": "bool"
        }
      ],
      "name": "ApprovalForAll",
      "type": "event"
    },
    {
      "anonymous": false,
      "inputs": [
        {
          "indexed": true,
          "internalType": "address",
          "name": "from",
          "type": "address"
        },
        {
          "indexed": true,
          "internalType": "address",
          "name": "to",
          "type": "address"
        },
        {
          "indexed": true,
          "internalType": "uint256",
          "name": "tokenId",
          "type": "uint256"
        }
      ],
      "name": "Transfer",
      "type": "event"
    },
    {
      "inputs": [
        {
          "internalType": "address",
          "name": "to",
          "type": "address"
        },
        {
          "internalType": "uint256",
          "name": "tokenId",
          "type": "uint256"
        }
      ],
      "name": "approve",
      "outputs": [],
      "stateMutability": "nonpayable",
      "type": "function"
    },
    {
      "inputs": [
        {
          "internalType": "address",
          "name": "owner",
          "type": "address"
        }
      ],
      "name": "balanceOf",
      "outputs": [
        {
          "internalType": "uint256",
          "name": "",
          "type": "uint256"
        }
      ],
      "stateMutability": "view",
      "type": "function",
      "constant": true
    },
    {
      "inputs": [
        {
          "internalType": "uint256",
          "name": "tokenId",
          "type": "uint256"
        }
      ],
      "name": "getApproved",
      "outputs": [
        {
          "internalType": "address",
          "name": "",
          "type": "address"
        }
      ],
      "stateMutability": "view",
      "type": "function",
      "constant": true
    },
    {
      "inputs": [
        {
          "internalType": "address",
          "name": "owner",
          "type": "address"
        },
        {
          "internalType": "address",
          "name": "operator",
          "type": "address"
        }
      ],
      "name": "isApprovedForAll",
      "outputs": [
        {
          "internalType": "bool",
          "name": "",
          "type": "bool"
        }
      ],
      "stateMutability": "view",
      "type": "function",
      "constant": true
    },
    {
      "inputs": [],
      "name": "name",
      "outputs": [
        {
          "internalType": "string",
          "name": "",
          "type": "string"
        }
      ],
      "stateMutability": "view",
      "type": "function",
      "constant": true
    },
    {
      "inputs": [
        {
          "internalType": "uint256",
          "name": "tokenId",
          "type": "uint256"
        }
      ],
      "name": "ownerOf",
      "outputs": [
        {
          "internalType": "address",
          "name": "",
          "type": "address"
        }
      ],
      "stateMutability": "view",
      "type": "function",
      "constant": true
    },
    {
      "inputs": [
        {
          "internalType": "uint256",
          "name": "",
          "type": "uint256"
        }
      ],
      "name": "properties",
      "outputs": [
        {
          "internalType": "string",
          "name": "name",
          "type": "string"
        },
        {
          "internalType": "string",
          "name": "description",
          "type": "string"
        },
        {
          "internalType": "uint256",
          "name": "price",
          "type": "uint256"
        },
        {
          "internalType": "bool",
          "name": "forSale",
          "type": "bool"
        },
        {
          "internalType": "address",
          "name": "approvedBuyer",
          "type": "address"
        }
      ],
      "stateMutability": "view",
      "type": "function",
      "constant": true
    },
    {
      "inputs": [
        {
          "internalType": "address",
          "name": "from",
          "type": "address"
        },
        {
          "internalType": "address",
          "name": "to",
          "type": "address"
        },
        {
          "internalType": "uint256",
          "name": "tokenId",
          "type": "uint256"
        }
      ],
      "name": "safeTransferFrom",
      "outputs": [],
      "stateMutability": "nonpayable",
      "type": "function"
    },
    {
      "inputs": [
        {
          "internalType": "address",
          "name": "from",
          "type": "address"
        },
        {
          "internalType": "address",
          "name": "to",
          "type": "address"
        },
        {
          "internalType": "uint256",
          "name": "tokenId",
          "type": "uint256"
        },
        {
          "internalType": "bytes",
          "name": "data",
          "type": "bytes"
        }
      ],
      "name": "safeTransferFrom",
      "outputs": [],
      "stateMutability": "nonpayable",
      "type": "function"
    },
    {
      "inputs": [
        {
          "internalType": "address",
          "name": "operator",
          "type": "address"
        },
        {
          "internalType": "bool",
          "name": "approved",
          "type": "bool"
        }
      ],
      "name": "setApprovalForAll",
      "outputs": [],
      "stateMutability": "nonpayable",
      "type": "function"
    },
    {
      "inputs": [
        {
          "internalType": "bytes4",
          "name": "interfaceId",
          "type": "bytes4"
        }
      ],
      "name": "supportsInterface",
      "outputs": [
        {
          "internalType": "bool",
          "name": "",
          "type": "bool"
        }
      ],
      "stateMutability": "view",
      "type": "function",
      "constant": true
    },
    {
      "inputs": [],
      "name": "symbol",
      "outputs": [
        {
          "internalType": "string",
          "name": "",
          "type": "string"
        }
      ],
      "stateMutability": "view",
      "type": "function",
      "constant": true
    },
    {
      "inputs": [
        {
          "internalType": "uint256",
          "name": "index",
          "type": "uint256"
        }
      ],
      "name": "tokenByIndex",
      "outputs": [
        {
          "internalType": "uint256",
          "name": "",
          "type": "uint256"
        }
      ],
      "stateMutability": "view",
      "type": "function",
      "constant": true
    },
    {
      "inputs": [
        {
          "internalType": "address",
          "name": "owner",
          "type": "address"
        },
        {
          "internalType": "uint256",
          "name": "index",
          "type": "uint256"
        }
      ],
      "name": "tokenOfOwnerByIndex",
      "outputs": [
        {
          "internalType": "uint256",
          "name": "",
          "type": "uint256"
        }
      ],
      "stateMutability": "view",
      "type": "function",
      "constant": true
    },
    {
      "inputs": [
        {
          "internalType": "uint256",
          "name": "tokenId",
          "type": "uint256"
        }
      ],
      "name": "tokenURI",
      "outputs": [
        {
          "internalType": "string",
          "name": "",
          "type": "string"
        }
      ],
      "stateMutability": "view",
      "type": "function",
      "constant": true
    },
    {
      "inputs": [],
      "name": "totalSupply",
      "outputs": [
        {
          "internalType": "uint256",
          "name": "",
          "type": "uint256"
        }
      ],
      "stateMutability": "view",
      "type": "function",
      "constant": true
    },
    {
      "inputs": [
        {
          "internalType": "address",
          "name": "from",
          "type": "address"
        },
        {
          "internalType": "address",
          "name": "to",
          "type": "address"
        },
        {
          "internalType": "uint256",
          "name": "tokenId",
          "type": "uint256"
        }
      ],
      "name": "transferFrom",
      "outputs": [],
      "stateMutability": "nonpayable",
      "type": "function"
    },
    {
      "inputs": [
        {
          "internalType": "string",
          "name": "_name",
          "type": "string"
        },
        {
          "internalType": "string",
          "name": "_description",
          "type": "string"
        },
        {
          "internalType": "uint256",
          "name": "_price",
          "type": "uint256"
        }
      ],
      "name": "createProperty",
      "outputs": [],
      "stateMutability": "nonpayable",
      "type": "function"
    },
    {
      "inputs": [
        {
          "internalType": "uint256",
          "name": "_propertyId",
          "type": "uint256"
        }
      ],
      "name": "getProperty",
      "outputs": [
        {
          "internalType": "string",
          "name": "name",
          "type": "string"
        },
        {
          "internalType": "string",
          "name": "description",
          "type": "string"
        },
        {
          "internalType": "uint256",
          "name": "price",
          "type": "uint256"
        },
        {
          "internalType": "address",
          "name": "owner",
          "type": "address"
        },
        {
          "internalType": "bool",
          "name": "forSale",
          "type": "bool"
        },
        {
          "internalType": "address",
          "name": "approvedBuyer",
          "type": "address"
        }
      ],
      "stateMutability": "view",
      "type": "function",
      "constant": true
    },
    {
      "inputs": [
        {
          "internalType": "uint256",
          "name": "_propertyId",
          "type": "uint256"
        },
        {
          "internalType": "string",
          "name": "name",
          "type": "string"
        }
      ],
      "name": "buyProperty",
      "outputs": [],
      "stateMutability": "payable",
      "type": "function",
      "payable": true
    },
    {
      "inputs": [
        {
          "internalType": "uint256",
          "name": "_propertyId",
          "type": "uint256"
        },
        {
          "internalType": "uint256",
          "name": "_price",
          "type": "uint256"
        }
      ],
      "name": "listPropertyForSale",
      "outputs": [],
      "stateMutability": "nonpayable",
      "type": "function"
    }
  ],
  "bytecode": "0x60806040523480156200001157600080fd5b506040518060400160405280600d81526020017f5265616c4573746174654e4654000000000000000000000000000000000000008152506040518060400160405280600281526020017f5245000000000000000000000000000000000000000000000000000000000000815250816000908051906020019062000096929190620000b8565b508060019080519060200190620000af929190620000b8565b505050620001cc565b828054620000c69062000197565b90600052602060002090601f016020900481019282620000ea576000855562000136565b82601f106200010557805160ff191683800117855562000136565b8280016001018555821562000136579182015b828111156200013557825182559160200191906001019062000118565b5b50905062000145919062000149565b5090565b5b80821115620001645760008160009055506001016200014a565b5090565b7f4e487b7100000000000000000000000000000000000000000000000000000000600052602260045260246000fd5b60006002820490506001821680620001b057607f821691505b602082108103620001c657620001c562000168565b5b50919050565b613cc080620001dc6000396000f3fe60806040526004361061012a5760003560e01c806332665ffb116100ab57806395d89b411161006f57806395d89b411461041e578063a22cb46514610449578063b88d4fde14610472578063c87b56dd1461049b578063e985e9c5146104d8578063f7b10808146105155761012a565b806332665ffb146102fc57806342842e0e1461033e5780634f6ccce7146103675780636352211e146103a457806370a08231146103e15761012a565b806318160ddd116100f257806318160ddd146102265780631955cf811461025157806323b872dd1461026d57806324e9b512146102965780632f745c59146102bf5761012a565b806301ffc9a71461012f57806306fdde031461016c578063081812fc14610197578063095ea7b3146101d45780630f55415b146101fd575b600080fd5b34801561013b57600080fd5b50610156600480360381019061015191906128f4565b610556565b604051610163919061293c565b60405180910390f35b34801561017857600080fd5b506101816105d0565b60405161018e91906129f0565b60405180910390f35b3480156101a357600080fd5b506101be60048036038101906101b99190612a48565b610662565b6040516101cb9190612ab6565b60405180910390f35b3480156101e057600080fd5b506101fb60048036038101906101f69190612afd565b6106a8565b005b34801561020957600080fd5b50610224600480360381019061021f9190612b3d565b6107bf565b005b34801561023257600080fd5b5061023b6108ce565b6040516102489190612b8c565b60405180910390f35b61026b60048036038101906102669190612cdc565b6108db565b005b34801561027957600080fd5b50610294600480360381019061028f9190612d38565b610ad3565b005b3480156102a257600080fd5b506102bd60048036038101906102b89190612d8b565b610b33565b005b3480156102cb57600080fd5b506102e660048036038101906102e19190612afd565b610cb8565b6040516102f39190612b8c565b60405180910390f35b34801561030857600080fd5b50610323600480360381019061031e9190612a48565b610d5d565b60405161033596959493929190612e16565b60405180910390f35b34801561034a57600080fd5b5061036560048036038101906103609190612d38565b610f7a565b005b34801561037357600080fd5b5061038e60048036038101906103899190612a48565b610f9a565b60405161039b9190612b8c565b60405180910390f35b3480156103b057600080fd5b506103cb60048036038101906103c69190612a48565b61100b565b6040516103d89190612ab6565b60405180910390f35b3480156103ed57600080fd5b5061040860048036038101906104039190612e85565b611091565b6040516104159190612b8c565b60405180910390f35b34801561042a57600080fd5b50610433611148565b60405161044091906129f0565b60405180910390f35b34801561045557600080fd5b50610470600480360381019061046b9190612ede565b6111da565b005b34801561047e57600080fd5b5061049960048036038101906104949190612fbf565b6111f0565b005b3480156104a757600080fd5b506104c260048036038101906104bd9190612a48565b611252565b6040516104cf91906129f0565b60405180910390f35b3480156104e457600080fd5b506104ff60048036038101906104fa9190613042565b6112ba565b60405161050c919061293c565b60405180910390f35b34801561052157600080fd5b5061053c60048036038101906105379190612a48565b61134e565b60405161054d959493929190613082565b60405180910390f35b60007f780e9d63000000000000000000000000000000000000000000000000000000007bffffffffffffffffffffffffffffffffffffffffffffffffffffffff1916827bffffffffffffffffffffffffffffffffffffffffffffffffffffffff191614806105c957506105c8826114d1565b5b9050919050565b6060600080546105df90613112565b80601f016020809104026020016040519081016040528092919081815260200182805461060b90613112565b80156106585780601f1061062d57610100808354040283529160200191610658565b820191906000526020600020905b81548152906001019060200180831161063b57829003601f168201915b5050505050905090565b600061066d826115b3565b6004600083815260200190815260200160002060009054906101000a900473ffffffffffffffffffffffffffffffffffffffff169050919050565b60006106b38261100b565b90508073ffffffffffffffffffffffffffffffffffffffff168373ffffffffffffffffffffffffffffffffffffffff1603610723576040517f08c379a000000000000000000000000000000000000000000000000000000000815260040161071a906131b5565b60405180910390fd5b8073ffffffffffffffffffffffffffffffffffffffff166107426115fe565b73ffffffffffffffffffffffffffffffffffffffff16148061077157506107708161076b6115fe565b6112ba565b5b6107b0576040517f08c379a00000000000000000000000000000000000000000000000000000000081526004016107a790613247565b60405180910390fd5b6107ba8383611606565b505050565b6107c8826116bf565b610807576040517f08c379a00000000000000000000000000000000000000000000000000000000081526004016107fe906132b3565b60405180910390fd5b3373ffffffffffffffffffffffffffffffffffffffff166108278361100b565b73ffffffffffffffffffffffffffffffffffffffff161461087d576040517f08c379a00000000000000000000000000000000000000000000000000000000081526004016108749061331f565b60405180910390fd5b6000600a83815481106108935761089261333f565b5b9060005260206000209060040201905081816002018190555060018160030160006101000a81548160ff021916908315150217905550505050565b6000600880549050905090565b6108e4826116bf565b610923576040517f08c379a000000000000000000000000000000000000000000000000000000000815260040161091a906132b3565b60405180910390fd5b6000600a83815481106109395761093861333f565b5b906000526020600020906004020190508060030160009054906101000a900460ff1661099a576040517f08c379a0000000000000000000000000000000000000000000000000000000008152600401610991906133ba565b60405180910390fd5b806002015434146109e0576040517f08c379a00000000000000000000000000000000000000000000000000000000081526004016109d790613426565b60405180910390fd5b60006109eb8461100b565b905060008190508073ffffffffffffffffffffffffffffffffffffffff166108fc349081150290604051600060405180830381858888f19350505050158015610a38573d6000803e3d6000fd5b50610a44823387611700565b83836000019080519060200190610a5c9291906127e5565b5033600b600087815260200190815260200160002060006101000a81548173ffffffffffffffffffffffffffffffffffffffff021916908373ffffffffffffffffffffffffffffffffffffffff16021790555060008360030160006101000a81548160ff0219169083151502179055505050505050565b610ae4610ade6115fe565b826119f9565b610b23576040517f08c379a0000000000000000000000000000000000000000000000000000000008152600401610b1a906134b8565b60405180910390fd5b610b2e838383611700565b505050565b6000600a805490509050600a6040518060a00160405280868152602001858152602001848152602001600115158152602001600073ffffffffffffffffffffffffffffffffffffffff1681525090806001815401808255809150506001900390600052602060002090600402016000909190919091506000820151816000019080519060200190610bc59291906127e5565b506020820151816001019080519060200190610be29291906127e5565b506040820151816002015560608201518160030160006101000a81548160ff02191690831515021790555060808201518160030160016101000a81548173ffffffffffffffffffffffffffffffffffffffff021916908373ffffffffffffffffffffffffffffffffffffffff1602179055505050610c603382611a8e565b33600b600083815260200190815260200160002060006101000a81548173ffffffffffffffffffffffffffffffffffffffff021916908373ffffffffffffffffffffffffffffffffffffffff16021790555050505050565b6000610cc383611091565b8210610d04576040517f08c379a0000000000000000000000000000000000000000000000000000000008152600401610cfb9061354a565b60405180910390fd5b600660008473ffffffffffffffffffffffffffffffffffffffff1673ffffffffffffffffffffffffffffffffffffffff168152602001908152602001600020600083815260200190815260200160002054905092915050565b606080600080600080610d6f876116bf565b610dae576040517f08c379a0000000000000000000000000000000000000000000000000000000008152600401610da5906132b3565b60405180910390fd5b6000600a8881548110610dc457610dc361333f565b5b9060005260206000209060040201905080600001816001018260020154600b60008c815260200190815260200160002060009054906101000a900473ffffffffffffffffffffffffffffffffffffffff168460030160009054906101000a900460ff168560030160019054906101000a900473ffffffffffffffffffffffffffffffffffffffff16858054610e5890613112565b80601f0160208091040260200160405190810160405280929190818152602001828054610e8490613112565b8015610ed15780601f10610ea657610100808354040283529160200191610ed1565b820191906000526020600020905b815481529060010190602001808311610eb457829003601f168201915b50505050509550848054610ee490613112565b80601f0160208091040260200160405190810160405280929190818152602001828054610f1090613112565b8015610f5d5780601f10610f3257610100808354040283529160200191610f5d565b820191906000526020600020905b815481529060010190602001808311610f4057829003601f168201915b505050505094509650965096509650965096505091939550919395565b610f95838383604051806020016040528060008152506111f0565b505050565b6000610fa46108ce565b8210610fe5576040517f08c379a0000000000000000000000000000000000000000000000000000000008152600401610fdc906135dc565b60405180910390fd5b60088281548110610ff957610ff861333f565b5b90600052602060002001549050919050565b60008061101783611aac565b9050600073ffffffffffffffffffffffffffffffffffffffff168173ffffffffffffffffffffffffffffffffffffffff1603611088576040517f08c379a000000000000000000000000000000000000000000000000000000000815260040161107f90613648565b60405180910390fd5b80915050919050565b60008073ffffffffffffffffffffffffffffffffffffffff168273ffffffffffffffffffffffffffffffffffffffff1603611101576040517f08c379a00000000000000000000000000000000000000000000000000000000081526004016110f8906136da565b60405180910390fd5b600360008373ffffffffffffffffffffffffffffffffffffffff1673ffffffffffffffffffffffffffffffffffffffff168152602001908152602001600020549050919050565b60606001805461115790613112565b80601f016020809104026020016040519081016040528092919081815260200182805461118390613112565b80156111d05780601f106111a5576101008083540402835291602001916111d0565b820191906000526020600020905b8154815290600101906020018083116111b357829003601f168201915b5050505050905090565b6111ec6111e56115fe565b8383611ae9565b5050565b6112016111fb6115fe565b836119f9565b611240576040517f08c379a0000000000000000000000000000000000000000000000000000000008152600401611237906134b8565b60405180910390fd5b61124c84848484611c55565b50505050565b606061125d826115b3565b6000611267611cb1565b9050600081511161128757604051806020016040528060008152506112b2565b8061129184611cc8565b6040516020016112a2929190613736565b6040516020818303038152906040525b915050919050565b6000600560008473ffffffffffffffffffffffffffffffffffffffff1673ffffffffffffffffffffffffffffffffffffffff16815260200190815260200160002060008373ffffffffffffffffffffffffffffffffffffffff1673ffffffffffffffffffffffffffffffffffffffff16815260200190815260200160002060009054906101000a900460ff16905092915050565b600a818154811061135e57600080fd5b906000526020600020906004020160009150905080600001805461138190613112565b80601f01602080910402602001604051908101604052809291908181526020018280546113ad90613112565b80156113fa5780601f106113cf576101008083540402835291602001916113fa565b820191906000526020600020905b8154815290600101906020018083116113dd57829003601f168201915b50505050509080600101805461140f90613112565b80601f016020809104026020016040519081016040528092919081815260200182805461143b90613112565b80156114885780601f1061145d57610100808354040283529160200191611488565b820191906000526020600020905b81548152906001019060200180831161146b57829003601f168201915b5050505050908060020154908060030160009054906101000a900460ff16908060030160019054906101000a900473ffffffffffffffffffffffffffffffffffffffff16905085565b60007f80ac58cd000000000000000000000000000000000000000000000000000000007bffffffffffffffffffffffffffffffffffffffffffffffffffffffff1916827bffffffffffffffffffffffffffffffffffffffffffffffffffffffff1916148061159c57507f5b5e139f000000000000000000000000000000000000000000000000000000007bffffffffffffffffffffffffffffffffffffffffffffffffffffffff1916827bffffffffffffffffffffffffffffffffffffffffffffffffffffffff1916145b806115ac57506115ab82611d96565b5b9050919050565b6115bc816116bf565b6115fb576040517f08c379a00000000000000000000000000000000000000000000000000000000081526004016115f290613648565b60405180910390fd5b50565b600033905090565b816004600083815260200190815260200160002060006101000a81548173ffffffffffffffffffffffffffffffffffffffff021916908373ffffffffffffffffffffffffffffffffffffffff160217905550808273ffffffffffffffffffffffffffffffffffffffff166116798361100b565b73ffffffffffffffffffffffffffffffffffffffff167f8c5be1e5ebec7d5bd14f71427d1e84f3dd0314c0f7b2291e5b200ac8c7c3b92560405160405180910390a45050565b60008073ffffffffffffffffffffffffffffffffffffffff166116e183611aac565b73ffffffffffffffffffffffffffffffffffffffff1614159050919050565b8273ffffffffffffffffffffffffffffffffffffffff166117208261100b565b73ffffffffffffffffffffffffffffffffffffffff1614611776576040517f08c379a000000000000000000000000000000000000000000000000000000000815260040161176d906137cc565b60405180910390fd5b600073ffffffffffffffffffffffffffffffffffffffff168273ffffffffffffffffffffffffffffffffffffffff16036117e5576040517f08c379a00000000000000000000000000000000000000000000000000000000081526004016117dc9061385e565b60405180910390fd5b6117f28383836001611e00565b8273ffffffffffffffffffffffffffffffffffffffff166118128261100b565b73ffffffffffffffffffffffffffffffffffffffff1614611868576040517f08c379a000000000000000000000000000000000000000000000000000000000815260040161185f906137cc565b60405180910390fd5b6004600082815260200190815260200160002060006101000a81549073ffffffffffffffffffffffffffffffffffffffff02191690556001600360008573ffffffffffffffffffffffffffffffffffffffff1673ffffffffffffffffffffffffffffffffffffffff168152602001908152602001600020600082825403925050819055506001600360008473ffffffffffffffffffffffffffffffffffffffff1673ffffffffffffffffffffffffffffffffffffffff16815260200190815260200160002060008282540192505081905550816002600083815260200190815260200160002060006101000a81548173ffffffffffffffffffffffffffffffffffffffff021916908373ffffffffffffffffffffffffffffffffffffffff160217905550808273ffffffffffffffffffffffffffffffffffffffff168473ffffffffffffffffffffffffffffffffffffffff167fddf252ad1be2c89b69c2b068fc378daa952ba7f163c4a11628f55a4df523b3ef60405160405180910390a46119f48383836001611f5e565b505050565b600080611a058361100b565b90508073ffffffffffffffffffffffffffffffffffffffff168473ffffffffffffffffffffffffffffffffffffffff161480611a475750611a4681856112ba565b5b80611a8557508373ffffffffffffffffffffffffffffffffffffffff16611a6d84610662565b73ffffffffffffffffffffffffffffffffffffffff16145b91505092915050565b611aa8828260405180602001604052806000815250611f64565b5050565b60006002600083815260200190815260200160002060009054906101000a900473ffffffffffffffffffffffffffffffffffffffff169050919050565b8173ffffffffffffffffffffffffffffffffffffffff168373ffffffffffffffffffffffffffffffffffffffff1603611b57576040517f08c379a0000000000000000000000000000000000000000000000000000000008152600401611b4e906138ca565b60405180910390fd5b80600560008573ffffffffffffffffffffffffffffffffffffffff1673ffffffffffffffffffffffffffffffffffffffff16815260200190815260200160002060008473ffffffffffffffffffffffffffffffffffffffff1673ffffffffffffffffffffffffffffffffffffffff16815260200190815260200160002060006101000a81548160ff0219169083151502179055508173ffffffffffffffffffffffffffffffffffffffff168373ffffffffffffffffffffffffffffffffffffffff167f17307eab39ab6107e8899845ad3d59bd9653f200f220920489ca2b5937696c3183604051611c48919061293c565b60405180910390a3505050565b611c60848484611700565b611c6c84848484611fbf565b611cab576040517f08c379a0000000000000000000000000000000000000000000000000000000008152600401611ca29061395c565b60405180910390fd5b50505050565b606060405180602001604052806000815250905090565b606060006001611cd784612146565b01905060008167ffffffffffffffff811115611cf657611cf5612bb1565b5b6040519080825280601f01601f191660200182016040528015611d285781602001600182028036833780820191505090505b509050600082602001820190505b600115611d8b578080600190039150507f3031323334353637383961626364656600000000000000000000000000000000600a86061a8153600a8581611d7f57611d7e61397c565b5b04945060008503611d36575b819350505050919050565b60007f01ffc9a7000000000000000000000000000000000000000000000000000000007bffffffffffffffffffffffffffffffffffffffffffffffffffffffff1916827bffffffffffffffffffffffffffffffffffffffffffffffffffffffff1916149050919050565b611e0c84848484612299565b6001811115611e50576040517f08c379a0000000000000000000000000000000000000000000000000000000008152600401611e4790613a1d565b60405180910390fd5b6000829050600073ffffffffffffffffffffffffffffffffffffffff168573ffffffffffffffffffffffffffffffffffffffff1603611e9757611e928161229f565b611ed6565b8373ffffffffffffffffffffffffffffffffffffffff168573ffffffffffffffffffffffffffffffffffffffff1614611ed557611ed485826122e8565b5b5b600073ffffffffffffffffffffffffffffffffffffffff168473ffffffffffffffffffffffffffffffffffffffff1603611f1857611f1381612455565b611f57565b8473ffffffffffffffffffffffffffffffffffffffff168473ffffffffffffffffffffffffffffffffffffffff1614611f5657611f558482612526565b5b5b5050505050565b50505050565b611f6e83836125a5565b611f7b6000848484611fbf565b611fba576040517f08c379a0000000000000000000000000000000000000000000000000000000008152600401611fb19061395c565b60405180910390fd5b505050565b6000611fe08473ffffffffffffffffffffffffffffffffffffffff166127c2565b15612139578373ffffffffffffffffffffffffffffffffffffffff1663150b7a026120096115fe565b8786866040518563ffffffff1660e01b815260040161202b9493929190613a92565b6020604051808303816000875af192505050801561206757506040513d601f19601f820116820180604052508101906120649190613af3565b60015b6120e9573d8060008114612097576040519150601f19603f3d011682016040523d82523d6000602084013e61209c565b606091505b5060008151036120e1576040517f08c379a00000000000000000000000000000000000000000000000000000000081526004016120d89061395c565b60405180910390fd5b805181602001fd5b63150b7a0260e01b7bffffffffffffffffffffffffffffffffffffffffffffffffffffffff1916817bffffffffffffffffffffffffffffffffffffffffffffffffffffffff19161491505061213e565b600190505b949350505050565b600080600090507a184f03e93ff9f4daa797ed6e38ed64bf6a1f01000000000000000083106121a4577a184f03e93ff9f4daa797ed6e38ed64bf6a1f010000000000000000838161219a5761219961397c565b5b0492506040810190505b6d04ee2d6d415b85acef810000000083106121e1576d04ee2d6d415b85acef810000000083816121d7576121d661397c565b5b0492506020810190505b662386f26fc10000831061221057662386f26fc1000083816122065761220561397c565b5b0492506010810190505b6305f5e1008310612239576305f5e100838161222f5761222e61397c565b5b0492506008810190505b612710831061225e5761271083816122545761225361397c565b5b0492506004810190505b6064831061228157606483816122775761227661397c565b5b0492506002810190505b600a8310612290576001810190505b80915050919050565b50505050565b6008805490506009600083815260200190815260200160002081905550600881908060018154018082558091505060019003906000526020600020016000909190919091505550565b600060016122f584611091565b6122ff9190613b4f565b90506000600760008481526020019081526020016000205490508181146123e4576000600660008673ffffffffffffffffffffffffffffffffffffffff1673ffffffffffffffffffffffffffffffffffffffff168152602001908152602001600020600084815260200190815260200160002054905080600660008773ffffffffffffffffffffffffffffffffffffffff1673ffffffffffffffffffffffffffffffffffffffff168152602001908152602001600020600084815260200190815260200160002081905550816007600083815260200190815260200160002081905550505b6007600084815260200190815260200160002060009055600660008573ffffffffffffffffffffffffffffffffffffffff1673ffffffffffffffffffffffffffffffffffffffff16815260200190815260200160002060008381526020019081526020016000206000905550505050565b600060016008805490506124699190613b4f565b90506000600960008481526020019081526020016000205490506000600883815481106124995761249861333f565b5b9060005260206000200154905080600883815481106124bb576124ba61333f565b5b90600052602060002001819055508160096000838152602001908152602001600020819055506009600085815260200190815260200160002060009055600880548061250a57612509613b83565b5b6001900381819060005260206000200160009055905550505050565b600061253183611091565b905081600660008573ffffffffffffffffffffffffffffffffffffffff1673ffffffffffffffffffffffffffffffffffffffff168152602001908152602001600020600083815260200190815260200160002081905550806007600084815260200190815260200160002081905550505050565b600073ffffffffffffffffffffffffffffffffffffffff168273ffffffffffffffffffffffffffffffffffffffff1603612614576040517f08c379a000000000000000000000000000000000000000000000000000000000815260040161260b90613bfe565b60405180910390fd5b61261d816116bf565b1561265d576040517f08c379a000000000000000000000000000000000000000000000000000000000815260040161265490613c6a565b60405180910390fd5b61266b600083836001611e00565b612674816116bf565b156126b4576040517f08c379a00000000000000000000000000000000000000000000000000000000081526004016126ab90613c6a565b60405180910390fd5b6001600360008473ffffffffffffffffffffffffffffffffffffffff1673ffffffffffffffffffffffffffffffffffffffff16815260200190815260200160002060008282540192505081905550816002600083815260200190815260200160002060006101000a81548173ffffffffffffffffffffffffffffffffffffffff021916908373ffffffffffffffffffffffffffffffffffffffff160217905550808273ffffffffffffffffffffffffffffffffffffffff16600073ffffffffffffffffffffffffffffffffffffffff167fddf252ad1be2c89b69c2b068fc378daa952ba7f163c4a11628f55a4df523b3ef60405160405180910390a46127be600083836001611f5e565b5050565b6000808273ffffffffffffffffffffffffffffffffffffffff163b119050919050565b8280546127f190613112565b90600052602060002090601f016020900481019282612813576000855561285a565b82601f1061282c57805160ff191683800117855561285a565b8280016001018555821561285a579182015b8281111561285957825182559160200191906001019061283e565b5b509050612867919061286b565b5090565b5b8082111561288457600081600090555060010161286c565b5090565b6000604051905090565b600080fd5b600080fd5b60007fffffffff0000000000000000000000000000000000000000000000000000000082169050919050565b6128d18161289c565b81146128dc57600080fd5b50565b6000813590506128ee816128c8565b92915050565b60006020828403121561290a57612909612892565b5b6000612918848285016128df565b91505092915050565b60008115159050919050565b61293681612921565b82525050565b6000602082019050612951600083018461292d565b92915050565b600081519050919050565b600082825260208201905092915050565b60005b83811015612991578082015181840152602081019050612976565b838111156129a0576000848401525b50505050565b6000601f19601f8301169050919050565b60006129c282612957565b6129cc8185612962565b93506129dc818560208601612973565b6129e5816129a6565b840191505092915050565b60006020820190508181036000830152612a0a81846129b7565b905092915050565b6000819050919050565b612a2581612a12565b8114612a3057600080fd5b50565b600081359050612a4281612a1c565b92915050565b600060208284031215612a5e57612a5d612892565b5b6000612a6c84828501612a33565b91505092915050565b600073ffffffffffffffffffffffffffffffffffffffff82169050919050565b6000612aa082612a75565b9050919050565b612ab081612a95565b82525050565b6000602082019050612acb6000830184612aa7565b92915050565b612ada81612a95565b8114612ae557600080fd5b50565b600081359050612af781612ad1565b92915050565b60008060408385031215612b1457612b13612892565b5b6000612b2285828601612ae8565b9250506020612b3385828601612a33565b9150509250929050565b60008060408385031215612b5457612b53612892565b5b6000612b6285828601612a33565b9250506020612b7385828601612a33565b9150509250929050565b612b8681612a12565b82525050565b6000602082019050612ba16000830184612b7d565b92915050565b600080fd5b600080fd5b7f4e487b7100000000000000000000000000000000000000000000000000000000600052604160045260246000fd5b612be9826129a6565b810181811067ffffffffffffffff82111715612c0857612c07612bb1565b5b80604052505050565b6000612c1b612888565b9050612c278282612be0565b919050565b600067ffffffffffffffff821115612c4757612c46612bb1565b5b612c50826129a6565b9050602081019050919050565b82818337600083830152505050565b6000612c7f612c7a84612c2c565b612c11565b905082815260208101848484011115612c9b57612c9a612bac565b5b612ca6848285612c5d565b509392505050565b600082601f830112612cc357612cc2612ba7565b5b8135612cd3848260208601612c6c565b91505092915050565b60008060408385031215612cf357612cf2612892565b5b6000612d0185828601612a33565b925050602083013567ffffffffffffffff811115612d2257612d21612897565b5b612d2e85828601612cae565b9150509250929050565b600080600060608486031215612d5157612d50612892565b5b6000612d5f86828701612ae8565b9350506020612d7086828701612ae8565b9250506040612d8186828701612a33565b9150509250925092565b600080600060608486031215612da457612da3612892565b5b600084013567ffffffffffffffff811115612dc257612dc1612897565b5b612dce86828701612cae565b935050602084013567ffffffffffffffff811115612def57612dee612897565b5b612dfb86828701612cae565b9250506040612e0c86828701612a33565b9150509250925092565b600060c0820190508181036000830152612e3081896129b7565b90508181036020830152612e4481886129b7565b9050612e536040830187612b7d565b612e606060830186612aa7565b612e6d608083018561292d565b612e7a60a0830184612aa7565b979650505050505050565b600060208284031215612e9b57612e9a612892565b5b6000612ea984828501612ae8565b91505092915050565b612ebb81612921565b8114612ec657600080fd5b50565b600081359050612ed881612eb2565b92915050565b60008060408385031215612ef557612ef4612892565b5b6000612f0385828601612ae8565b9250506020612f1485828601612ec9565b9150509250929050565b600067ffffffffffffffff821115612f3957612f38612bb1565b5b612f42826129a6565b9050602081019050919050565b6000612f62612f5d84612f1e565b612c11565b905082815260208101848484011115612f7e57612f7d612bac565b5b612f89848285612c5d565b509392505050565b600082601f830112612fa657612fa5612ba7565b5b8135612fb6848260208601612f4f565b91505092915050565b60008060008060808587031215612fd957612fd8612892565b5b6000612fe787828801612ae8565b9450506020612ff887828801612ae8565b935050604061300987828801612a33565b925050606085013567ffffffffffffffff81111561302a57613029612897565b5b61303687828801612f91565b91505092959194509250565b6000806040838503121561305957613058612892565b5b600061306785828601612ae8565b925050602061307885828601612ae8565b9150509250929050565b600060a082019050818103600083015261309c81886129b7565b905081810360208301526130b081876129b7565b90506130bf6040830186612b7d565b6130cc606083018561292d565b6130d96080830184612aa7565b9695505050505050565b7f4e487b7100000000000000000000000000000000000000000000000000000000600052602260045260246000fd5b6000600282049050600182168061312a57607f821691505b60208210810361313d5761313c6130e3565b5b50919050565b7f4552433732313a20617070726f76616c20746f2063757272656e74206f776e6560008201527f7200000000000000000000000000000000000000000000000000000000000000602082015250565b600061319f602183612962565b91506131aa82613143565b604082019050919050565b600060208201905081810360008301526131ce81613192565b9050919050565b7f4552433732313a20617070726f76652063616c6c6572206973206e6f7420746f60008201527f6b656e206f776e6572206f7220617070726f76656420666f7220616c6c000000602082015250565b6000613231603d83612962565b915061323c826131d5565b604082019050919050565b6000602082019050818103600083015261326081613224565b9050919050565b7f50726f706572747920646f6573206e6f74206578697374000000000000000000600082015250565b600061329d601783612962565b91506132a882613267565b602082019050919050565b600060208201905081810360008301526132cc81613290565b9050919050565b7f4e6f74207468652070726f7065727479206f776e657200000000000000000000600082015250565b6000613309601683612962565b9150613314826132d3565b602082019050919050565b60006020820190508181036000830152613338816132fc565b9050919050565b7f4e487b7100000000000000000000000000000000000000000000000000000000600052603260045260246000fd5b7f50726f7065727479206973206e6f7420666f722073616c650000000000000000600082015250565b60006133a4601883612962565b91506133af8261336e565b602082019050919050565b600060208201905081810360008301526133d381613397565b9050919050565b7f496e636f7272656374207061796d656e7420616d6f756e740000000000000000600082015250565b6000613410601883612962565b915061341b826133da565b602082019050919050565b6000602082019050818103600083015261343f81613403565b9050919050565b7f4552433732313a2063616c6c6572206973206e6f7420746f6b656e206f776e6560008201527f72206f7220617070726f76656400000000000000000000000000000000000000602082015250565b60006134a2602d83612962565b91506134ad82613446565b604082019050919050565b600060208201905081810360008301526134d181613495565b9050919050565b7f455243373231456e756d657261626c653a206f776e657220696e646578206f7560008201527f74206f6620626f756e6473000000000000000000000000000000000000000000602082015250565b6000613534602b83612962565b915061353f826134d8565b604082019050919050565b6000602082019050818103600083015261356381613527565b9050919050565b7f455243373231456e756d657261626c653a20676c6f62616c20696e646578206f60008201527f7574206f6620626f756e64730000000000000000000000000000000000000000602082015250565b60006135c6602c83612962565b91506135d18261356a565b604082019050919050565b600060208201905081810360008301526135f5816135b9565b9050919050565b7f4552433732313a20696e76616c696420746f6b656e2049440000000000000000600082015250565b6000613632601883612962565b915061363d826135fc565b602082019050919050565b6000602082019050818103600083015261366181613625565b9050919050565b7f4552433732313a2061646472657373207a65726f206973206e6f74206120766160008201527f6c6964206f776e65720000000000000000000000000000000000000000000000602082015250565b60006136c4602983612962565b91506136cf82613668565b604082019050919050565b600060208201905081810360008301526136f3816136b7565b9050919050565b600081905092915050565b600061371082612957565b61371a81856136fa565b935061372a818560208601612973565b80840191505092915050565b60006137428285613705565b915061374e8284613705565b91508190509392505050565b7f4552433732313a207472616e736665722066726f6d20696e636f72726563742060008201527f6f776e6572000000000000000000000000000000000000000000000000000000602082015250565b60006137b6602583612962565b91506137c18261375a565b604082019050919050565b600060208201905081810360008301526137e5816137a9565b9050919050565b7f4552433732313a207472616e7366657220746f20746865207a65726f2061646460008201527f7265737300000000000000000000000000000000000000000000000000000000602082015250565b6000613848602483612962565b9150613853826137ec565b604082019050919050565b600060208201905081810360008301526138778161383b565b9050919050565b7f4552433732313a20617070726f766520746f2063616c6c657200000000000000600082015250565b60006138b4601983612962565b91506138bf8261387e565b602082019050919050565b600060208201905081810360008301526138e3816138a7565b9050919050565b7f4552433732313a207472616e7366657220746f206e6f6e20455243373231526560008201527f63656976657220696d706c656d656e7465720000000000000000000000000000602082015250565b6000613946603283612962565b9150613951826138ea565b604082019050919050565b6000602082019050818103600083015261397581613939565b9050919050565b7f4e487b7100000000000000000000000000000000000000000000000000000000600052601260045260246000fd5b7f455243373231456e756d657261626c653a20636f6e736563757469766520747260008201527f616e7366657273206e6f7420737570706f727465640000000000000000000000602082015250565b6000613a07603583612962565b9150613a12826139ab565b604082019050919050565b60006020820190508181036000830152613a36816139fa565b9050919050565b600081519050919050565b600082825260208201905092915050565b6000613a6482613a3d565b613a6e8185613a48565b9350613a7e818560208601612973565b613a87816129a6565b840191505092915050565b6000608082019050613aa76000830187612aa7565b613ab46020830186612aa7565b613ac16040830185612b7d565b8181036060830152613ad38184613a59565b905095945050505050565b600081519050613aed816128c8565b92915050565b600060208284031215613b0957613b08612892565b5b6000613b1784828501613ade565b91505092915050565b7f4e487b7100000000000000000000000000000000000000000000000000000000600052601160045260246000fd5b6000613b5a82612a12565b9150613b6583612a12565b925082821015613b7857613b77613b20565b5b828203905092915050565b7f4e487b7100000000000000000000000000000000000000000000000000000000600052603160045260246000fd5b7f4552433732313a206d696e7420746f20746865207a65726f2061646472657373600082015250565b6000613be8602083612962565b9150613bf382613bb2565b602082019050919050565b60006020820190508181036000830152613c1781613bdb565b9050919050565b7f4552433732313a20746f6b656e20616c7265616479206d696e74656400000000600082015250565b6000613c54601c83612962565b9150613c5f82613c1e565b602082019050919050565b60006020820190508181036000830152613c8381613c47565b905091905056fea2646970667358221220e3e56b7baf0242c5314cce9e3abe8968bbe2cf96b0596dbe539402a3054deab264736f6c634300080d0033",
  "immutableReferences": {},
  "source": "// SPDX-License-Identifier: MIT\npragma solidity ^0.8.13;\n\nimport \"@openzeppelin/contracts/token/ERC721/extensions/ERC721Enumerable.sol\";\n\ncontract RealEstateMarketplace is ERC721Enumerable {\n    struct Property {\n        string name;\n        string description;\n        uint256 price;\n        bool forSale;\n        address approvedBuyer;\n    }\n\n    Property[] public properties;\n\n    mapping(uint256 => address) private propertyToOwner;\n\n    constructor() ERC721(\"RealEstateNFT\", \"RE\") {}\n\n    function createProperty(\n        string memory _name,\n        string memory _description,\n        uint256 _price\n    ) external {\n        uint256 propertyId = properties.length;\n        properties.push(Property(_name, _description, _price, true, address(0)));\n        _safeMint(msg.sender, propertyId);\n        propertyToOwner[propertyId] = msg.sender;\n    }\n\n    function getProperty(uint256 _propertyId)\n        external\n        view\n        returns (\n            string memory name,\n            string memory description,\n            uint256 price,\n            address owner,\n            bool forSale,\n            address approvedBuyer\n        )\n    {\n        require(_exists(_propertyId), \"Property does not exist\");\n        Property storage property = properties[_propertyId];\n        return (\n            property.name,\n            property.description,\n            property.price,\n            propertyToOwner[_propertyId],\n            property.forSale,\n            property.approvedBuyer\n        );\n    }\n\n    function buyProperty(uint256 _propertyId, string memory name) external payable {\n        require(_exists(_propertyId), \"Property does not exist\");\n        Property storage property = properties[_propertyId];\n        require(property.forSale, \"Property is not for sale\");\n        require(msg.value == property.price, \"Incorrect payment amount\");\n\n        address propertyOwner = ownerOf(_propertyId);\n        address payable seller = payable(propertyOwner);\n        seller.transfer(msg.value);\n        _transfer(propertyOwner, msg.sender, _propertyId);\n        property.name = name;\n        propertyToOwner[_propertyId] = msg.sender;\n        property.forSale = false;\n    }\n\n    function listPropertyForSale(uint256 _propertyId, uint256 _price) external {\n        require(_exists(_propertyId), \"Property does not exist\");\n        require(ownerOf(_propertyId) == msg.sender, \"Not the property owner\");\n        Property storage property = properties[_propertyId];\n        property.price = _price;\n        property.forSale = true;\n    }\n}\n",
  "sourcePath": "/home/bharat/Desktop/Thesis/RealEstate_dapp/contracts/restate.sol",
  "compiler": {
    "name": "solc",
    "version": "0.8.13+commit.abaa5c0e.Emscripten.clang"
  },
  "schemaVersion": "3.4.14",
  "updatedAt": "2023-05-25T04:46:00.779Z",
  "networkType": "ethereum",
  "devdoc": {
    "kind": "dev",
    "methods": {
      "approve(address,uint256)": {
        "details": "See {IERC721-approve}."
      },
      "balanceOf(address)": {
        "details": "See {IERC721-balanceOf}."
      },
      "getApproved(uint256)": {
        "details": "See {IERC721-getApproved}."
      },
      "isApprovedForAll(address,address)": {
        "details": "See {IERC721-isApprovedForAll}."
      },
      "name()": {
        "details": "See {IERC721Metadata-name}."
      },
      "ownerOf(uint256)": {
        "details": "See {IERC721-ownerOf}."
      },
      "safeTransferFrom(address,address,uint256)": {
        "details": "See {IERC721-safeTransferFrom}."
      },
      "safeTransferFrom(address,address,uint256,bytes)": {
        "details": "See {IERC721-safeTransferFrom}."
      },
      "setApprovalForAll(address,bool)": {
        "details": "See {IERC721-setApprovalForAll}."
      },
      "supportsInterface(bytes4)": {
        "details": "See {IERC165-supportsInterface}."
      },
      "symbol()": {
        "details": "See {IERC721Metadata-symbol}."
      },
      "tokenByIndex(uint256)": {
        "details": "See {IERC721Enumerable-tokenByIndex}."
      },
      "tokenOfOwnerByIndex(address,uint256)": {
        "details": "See {IERC721Enumerable-tokenOfOwnerByIndex}."
      },
      "tokenURI(uint256)": {
        "details": "See {IERC721Metadata-tokenURI}."
      },
      "totalSupply()": {
        "details": "See {IERC721Enumerable-totalSupply}."
      },
      "transferFrom(address,address,uint256)": {
        "details": "See {IERC721-transferFrom}."
      }
    },
    "version": 1
  },
  "userdoc": {
    "kind": "user",
    "methods": {},
    "version": 1
  }
}