{
  "contractName": "RealEstateMarketplace",
  "abi": [
    {
      "inputs": [],
      "stateMutability": "nonpayable",
      "type": "constructor"
    },
    {
      "anonymous": false,
      "inputs": [
        {
          "indexed": true,
          "internalType": "address",
          "name": "owner",
          "type": "address"
        },
        {
          "indexed": true,
          "internalType": "address",
          "name": "approved",
          "type": "address"
        },
        {
          "indexed": true,
          "internalType": "uint256",
          "name": "tokenId",
          "type": "uint256"
        }
      ],
      "name": "Approval",
      "type": "event"
    },
    {
      "anonymous": false,
      "inputs": [
        {
          "indexed": true,
          "internalType": "address",
          "name": "owner",
          "type": "address"
        },
        {
          "indexed": true,
          "internalType": "address",
          "name": "operator",
          "type": "address"
        },
        {
          "indexed": false,
          "internalType": "bool",
          "name": "approved",
          "type": "bool"
        }
      ],
      "name": "ApprovalForAll",
      "type": "event"
    },
    {
      "anonymous": false,
      "inputs": [
        {
          "indexed": true,
          "internalType": "address",
          "name": "from",
          "type": "address"
        },
        {
          "indexed": true,
          "internalType": "address",
          "name": "to",
          "type": "address"
        },
        {
          "indexed": true,
          "internalType": "uint256",
          "name": "tokenId",
          "type": "uint256"
        }
      ],
      "name": "Transfer",
      "type": "event"
    },
    {
      "inputs": [],
      "name": "admin",
      "outputs": [
        {
          "internalType": "address",
          "name": "",
          "type": "address"
        }
      ],
      "stateMutability": "view",
      "type": "function",
      "constant": true
    },
    {
      "inputs": [
        {
          "internalType": "address",
          "name": "to",
          "type": "address"
        },
        {
          "internalType": "uint256",
          "name": "tokenId",
          "type": "uint256"
        }
      ],
      "name": "approve",
      "outputs": [],
      "stateMutability": "nonpayable",
      "type": "function"
    },
    {
      "inputs": [
        {
          "internalType": "uint256",
          "name": "",
          "type": "uint256"
        }
      ],
      "name": "auctions",
      "outputs": [
        {
          "internalType": "uint256",
          "name": "propertyId",
          "type": "uint256"
        },
        {
          "internalType": "uint256",
          "name": "highestBid",
          "type": "uint256"
        },
        {
          "internalType": "address",
          "name": "highestBidder",
          "type": "address"
        },
        {
          "internalType": "bool",
          "name": "ended",
          "type": "bool"
        }
      ],
      "stateMutability": "view",
      "type": "function",
      "constant": true
    },
    {
      "inputs": [
        {
          "internalType": "address",
          "name": "owner",
          "type": "address"
        }
      ],
      "name": "balanceOf",
      "outputs": [
        {
          "internalType": "uint256",
          "name": "",
          "type": "uint256"
        }
      ],
      "stateMutability": "view",
      "type": "function",
      "constant": true
    },
    {
      "inputs": [
        {
          "internalType": "uint256",
          "name": "tokenId",
          "type": "uint256"
        }
      ],
      "name": "getApproved",
      "outputs": [
        {
          "internalType": "address",
          "name": "",
          "type": "address"
        }
      ],
      "stateMutability": "view",
      "type": "function",
      "constant": true
    },
    {
      "inputs": [
        {
          "internalType": "address",
          "name": "owner",
          "type": "address"
        },
        {
          "internalType": "address",
          "name": "operator",
          "type": "address"
        }
      ],
      "name": "isApprovedForAll",
      "outputs": [
        {
          "internalType": "bool",
          "name": "",
          "type": "bool"
        }
      ],
      "stateMutability": "view",
      "type": "function",
      "constant": true
    },
    {
      "inputs": [],
      "name": "name",
      "outputs": [
        {
          "internalType": "string",
          "name": "",
          "type": "string"
        }
      ],
      "stateMutability": "view",
      "type": "function",
      "constant": true
    },
    {
      "inputs": [
        {
          "internalType": "uint256",
          "name": "tokenId",
          "type": "uint256"
        }
      ],
      "name": "ownerOf",
      "outputs": [
        {
          "internalType": "address",
          "name": "",
          "type": "address"
        }
      ],
      "stateMutability": "view",
      "type": "function",
      "constant": true
    },
    {
      "inputs": [
        {
          "internalType": "uint256",
          "name": "",
          "type": "uint256"
        }
      ],
      "name": "properties",
      "outputs": [
        {
          "internalType": "string",
          "name": "name",
          "type": "string"
        },
        {
          "internalType": "string",
          "name": "description",
          "type": "string"
        },
        {
          "internalType": "uint256",
          "name": "price",
          "type": "uint256"
        },
        {
          "internalType": "bool",
          "name": "forSale",
          "type": "bool"
        },
        {
          "internalType": "string",
          "name": "imageurl",
          "type": "string"
        },
        {
          "internalType": "bool",
          "name": "verified",
          "type": "bool"
        }
      ],
      "stateMutability": "view",
      "type": "function",
      "constant": true
    },
    {
      "inputs": [
        {
          "internalType": "uint256",
          "name": "",
          "type": "uint256"
        }
      ],
      "name": "propertyToOwner",
      "outputs": [
        {
          "internalType": "address",
          "name": "",
          "type": "address"
        }
      ],
      "stateMutability": "view",
      "type": "function",
      "constant": true
    },
    {
      "inputs": [
        {
          "internalType": "uint256",
          "name": "",
          "type": "uint256"
        }
      ],
      "name": "propertyToSeller",
      "outputs": [
        {
          "internalType": "address",
          "name": "",
          "type": "address"
        }
      ],
      "stateMutability": "view",
      "type": "function",
      "constant": true
    },
    {
      "inputs": [
        {
          "internalType": "uint256",
          "name": "",
          "type": "uint256"
        }
      ],
      "name": "propertyVerificationStatus",
      "outputs": [
        {
          "internalType": "bool",
          "name": "",
          "type": "bool"
        }
      ],
      "stateMutability": "view",
      "type": "function",
      "constant": true
    },
    {
      "inputs": [
        {
          "internalType": "address",
          "name": "from",
          "type": "address"
        },
        {
          "internalType": "address",
          "name": "to",
          "type": "address"
        },
        {
          "internalType": "uint256",
          "name": "tokenId",
          "type": "uint256"
        }
      ],
      "name": "safeTransferFrom",
      "outputs": [],
      "stateMutability": "nonpayable",
      "type": "function"
    },
    {
      "inputs": [
        {
          "internalType": "address",
          "name": "from",
          "type": "address"
        },
        {
          "internalType": "address",
          "name": "to",
          "type": "address"
        },
        {
          "internalType": "uint256",
          "name": "tokenId",
          "type": "uint256"
        },
        {
          "internalType": "bytes",
          "name": "data",
          "type": "bytes"
        }
      ],
      "name": "safeTransferFrom",
      "outputs": [],
      "stateMutability": "nonpayable",
      "type": "function"
    },
    {
      "inputs": [
        {
          "internalType": "address",
          "name": "operator",
          "type": "address"
        },
        {
          "internalType": "bool",
          "name": "approved",
          "type": "bool"
        }
      ],
      "name": "setApprovalForAll",
      "outputs": [],
      "stateMutability": "nonpayable",
      "type": "function"
    },
    {
      "inputs": [
        {
          "internalType": "bytes4",
          "name": "interfaceId",
          "type": "bytes4"
        }
      ],
      "name": "supportsInterface",
      "outputs": [
        {
          "internalType": "bool",
          "name": "",
          "type": "bool"
        }
      ],
      "stateMutability": "view",
      "type": "function",
      "constant": true
    },
    {
      "inputs": [],
      "name": "symbol",
      "outputs": [
        {
          "internalType": "string",
          "name": "",
          "type": "string"
        }
      ],
      "stateMutability": "view",
      "type": "function",
      "constant": true
    },
    {
      "inputs": [
        {
          "internalType": "uint256",
          "name": "index",
          "type": "uint256"
        }
      ],
      "name": "tokenByIndex",
      "outputs": [
        {
          "internalType": "uint256",
          "name": "",
          "type": "uint256"
        }
      ],
      "stateMutability": "view",
      "type": "function",
      "constant": true
    },
    {
      "inputs": [
        {
          "internalType": "address",
          "name": "owner",
          "type": "address"
        },
        {
          "internalType": "uint256",
          "name": "index",
          "type": "uint256"
        }
      ],
      "name": "tokenOfOwnerByIndex",
      "outputs": [
        {
          "internalType": "uint256",
          "name": "",
          "type": "uint256"
        }
      ],
      "stateMutability": "view",
      "type": "function",
      "constant": true
    },
    {
      "inputs": [
        {
          "internalType": "uint256",
          "name": "tokenId",
          "type": "uint256"
        }
      ],
      "name": "tokenURI",
      "outputs": [
        {
          "internalType": "string",
          "name": "",
          "type": "string"
        }
      ],
      "stateMutability": "view",
      "type": "function",
      "constant": true
    },
    {
      "inputs": [],
      "name": "totalSupply",
      "outputs": [
        {
          "internalType": "uint256",
          "name": "",
          "type": "uint256"
        }
      ],
      "stateMutability": "view",
      "type": "function",
      "constant": true
    },
    {
      "inputs": [
        {
          "internalType": "address",
          "name": "from",
          "type": "address"
        },
        {
          "internalType": "address",
          "name": "to",
          "type": "address"
        },
        {
          "internalType": "uint256",
          "name": "tokenId",
          "type": "uint256"
        }
      ],
      "name": "transferFrom",
      "outputs": [],
      "stateMutability": "nonpayable",
      "type": "function"
    },
    {
      "inputs": [
        {
          "internalType": "string",
          "name": "_name",
          "type": "string"
        },
        {
          "internalType": "string",
          "name": "_description",
          "type": "string"
        },
        {
          "internalType": "uint256",
          "name": "_price",
          "type": "uint256"
        },
        {
          "internalType": "string",
          "name": "_imageurl",
          "type": "string"
        }
      ],
      "name": "createProperty",
      "outputs": [],
      "stateMutability": "nonpayable",
      "type": "function"
    },
    {
      "inputs": [
        {
          "internalType": "uint256",
          "name": "_propertyId",
          "type": "uint256"
        }
      ],
      "name": "getProperty",
      "outputs": [
        {
          "internalType": "string",
          "name": "name",
          "type": "string"
        },
        {
          "internalType": "string",
          "name": "description",
          "type": "string"
        },
        {
          "internalType": "uint256",
          "name": "price",
          "type": "uint256"
        },
        {
          "internalType": "address",
          "name": "owner",
          "type": "address"
        },
        {
          "internalType": "bool",
          "name": "forSale",
          "type": "bool"
        },
        {
          "internalType": "string",
          "name": "imageurl",
          "type": "string"
        },
        {
          "internalType": "bool",
          "name": "verified",
          "type": "bool"
        }
      ],
      "stateMutability": "view",
      "type": "function",
      "constant": true
    },
    {
      "inputs": [
        {
          "internalType": "uint256",
          "name": "_propertyId",
          "type": "uint256"
        }
      ],
      "name": "verifyProperty",
      "outputs": [],
      "stateMutability": "nonpayable",
      "type": "function"
    },
    {
      "inputs": [
        {
          "internalType": "uint256",
          "name": "_propertyId",
          "type": "uint256"
        },
        {
          "internalType": "string",
          "name": "name",
          "type": "string"
        }
      ],
      "name": "buyProperty",
      "outputs": [],
      "stateMutability": "payable",
      "type": "function",
      "payable": true
    },
    {
      "inputs": [
        {
          "internalType": "uint256",
          "name": "_propertyId",
          "type": "uint256"
        },
        {
          "internalType": "uint256",
          "name": "_price",
          "type": "uint256"
        }
      ],
      "name": "listPropertyForSale",
      "outputs": [],
      "stateMutability": "nonpayable",
      "type": "function"
    },
    {
      "inputs": [
        {
          "internalType": "uint256",
          "name": "_propertyId",
          "type": "uint256"
        },
        {
          "internalType": "uint256",
          "name": "_price",
          "type": "uint256"
        }
      ],
      "name": "sellProperty",
      "outputs": [],
      "stateMutability": "nonpayable",
      "type": "function"
    },
    {
      "inputs": [
        {
          "internalType": "uint256",
          "name": "_propertyId",
          "type": "uint256"
        }
      ],
      "name": "getPropertySeller",
      "outputs": [
        {
          "internalType": "address",
          "name": "",
          "type": "address"
        }
      ],
      "stateMutability": "view",
      "type": "function",
      "constant": true
    },
    {
      "inputs": [
        {
          "internalType": "uint256",
          "name": "_propertyId",
          "type": "uint256"
        }
      ],
      "name": "startAuction",
      "outputs": [],
      "stateMutability": "nonpayable",
      "type": "function"
    },
    {
      "inputs": [
        {
          "internalType": "uint256",
          "name": "_auctionId",
          "type": "uint256"
        },
        {
          "internalType": "string",
          "name": "_name",
          "type": "string"
        }
      ],
      "name": "placeBid",
      "outputs": [],
      "stateMutability": "payable",
      "type": "function",
      "payable": true
    },
    {
      "inputs": [],
      "name": "getAuctionsLength",
      "outputs": [
        {
          "internalType": "uint256",
          "name": "",
          "type": "uint256"
        }
      ],
      "stateMutability": "view",
      "type": "function",
      "constant": true
    },
    {
      "inputs": [
        {
          "internalType": "uint256",
          "name": "_auctionId",
          "type": "uint256"
        }
      ],
      "name": "endAuction",
      "outputs": [],
      "stateMutability": "nonpayable",
      "type": "function"
    }
  ],
  "bytecode": "0x60806040523480156200001157600080fd5b506040518060400160405280600d81526020017f5265616c4573746174654e4654000000000000000000000000000000000000008152506040518060400160405280600281526020017f5245000000000000000000000000000000000000000000000000000000000000815250816000908051906020019062000096929190620000f9565b508060019080519060200190620000af929190620000f9565b50505033600c60006101000a81548173ffffffffffffffffffffffffffffffffffffffff021916908373ffffffffffffffffffffffffffffffffffffffff1602179055506200020d565b8280546200010790620001d8565b90600052602060002090601f0160209004810192826200012b576000855562000177565b82601f106200014657805160ff191683800117855562000177565b8280016001018555821562000177579182015b828111156200017657825182559160200191906001019062000159565b5b5090506200018691906200018a565b5090565b5b80821115620001a55760008160009055506001016200018b565b5090565b7f4e487b7100000000000000000000000000000000000000000000000000000000600052602260045260246000fd5b60006002820490506001821680620001f157607f821691505b602082108103620002075762000206620001a9565b5b50919050565b61520b806200021d6000396000f3fe6080604052600436106101ee5760003560e01c806342842e0e1161010d578063b87008a3116100a0578063dbe350071161006f578063dbe3500714610768578063e985e9c514610793578063ed46a8cf146107d0578063f7b10808146107f9578063f851a4401461083b576101ee565b8063b87008a3146106b0578063b88d4fde146106d9578063b9a2de3a14610702578063c87b56dd1461072b576101ee565b806370a08231116100dc57806370a08231146105e2578063934cd6831461061f57806395d89b411461065c578063a22cb46514610687576101ee565b806342842e0e146104ff5780634f6ccce714610528578063571a26a0146105655780636352211e146105a5576101ee565b80631955cf811161018557806335c848601161015457806335c848601461044057806337aab0631461047d5780633a7e1c2d146104995780634212a8ae146104d6576101ee565b80631955cf811461037b57806323b872dd146103975780632f745c59146103c057806332665ffb146103fd576101ee565b8063095ea7b3116101c1578063095ea7b3146102c15780630b56e383146102ea5780630f55415b1461032757806318160ddd14610350576101ee565b806301ffc9a7146101f3578063065de74c1461023057806306fdde0314610259578063081812fc14610284575b600080fd5b3480156101ff57600080fd5b5061021a60048036038101906102159190613af2565b610866565b6040516102279190613b3a565b60405180910390f35b34801561023c57600080fd5b5061025760048036038101906102529190613b8b565b6108e0565b005b34801561026557600080fd5b5061026e610afe565b60405161027b9190613c51565b60405180910390f35b34801561029057600080fd5b506102ab60048036038101906102a69190613b8b565b610b90565b6040516102b89190613cb4565b60405180910390f35b3480156102cd57600080fd5b506102e860048036038101906102e39190613cfb565b610bd6565b005b3480156102f657600080fd5b50610311600480360381019061030c9190613b8b565b610ced565b60405161031e9190613cb4565b60405180910390f35b34801561033357600080fd5b5061034e60048036038101906103499190613d3b565b610d20565b005b34801561035c57600080fd5b50610365610e9e565b6040516103729190613d8a565b60405180910390f35b61039560048036038101906103909190613eda565b610eab565b005b3480156103a357600080fd5b506103be60048036038101906103b99190613f36565b6110f5565b005b3480156103cc57600080fd5b506103e760048036038101906103e29190613cfb565b611155565b6040516103f49190613d8a565b60405180910390f35b34801561040957600080fd5b50610424600480360381019061041f9190613b8b565b6111fa565b6040516104379796959493929190613f89565b60405180910390f35b34801561044c57600080fd5b5061046760048036038101906104629190613b8b565b61149b565b6040516104749190613cb4565b60405180910390f35b61049760048036038101906104929190613eda565b6114ce565b005b3480156104a557600080fd5b506104c060048036038101906104bb9190613b8b565b6117fd565b6040516104cd9190613cb4565b60405180910390f35b3480156104e257600080fd5b506104fd60048036038101906104f89190613b8b565b611882565b005b34801561050b57600080fd5b5061052660048036038101906105219190613f36565b61199b565b005b34801561053457600080fd5b5061054f600480360381019061054a9190613b8b565b6119bb565b60405161055c9190613d8a565b60405180910390f35b34801561057157600080fd5b5061058c60048036038101906105879190613b8b565b611a2c565b60405161059c949392919061400d565b60405180910390f35b3480156105b157600080fd5b506105cc60048036038101906105c79190613b8b565b611a99565b6040516105d99190613cb4565b60405180910390f35b3480156105ee57600080fd5b5061060960048036038101906106049190614052565b611b1f565b6040516106169190613d8a565b60405180910390f35b34801561062b57600080fd5b5061064660048036038101906106419190613b8b565b611bd6565b6040516106539190613b3a565b60405180910390f35b34801561066857600080fd5b50610671611bf6565b60405161067e9190613c51565b60405180910390f35b34801561069357600080fd5b506106ae60048036038101906106a991906140ab565b611c88565b005b3480156106bc57600080fd5b506106d760048036038101906106d291906140eb565b611c9e565b005b3480156106e557600080fd5b5061070060048036038101906106fb9190614247565b611e5e565b005b34801561070e57600080fd5b5061072960048036038101906107249190613b8b565b611ec0565b005b34801561073757600080fd5b50610752600480360381019061074d9190613b8b565b612241565b60405161075f9190613c51565b60405180910390f35b34801561077457600080fd5b5061077d6122a9565b60405161078a9190613d8a565b60405180910390f35b34801561079f57600080fd5b506107ba60048036038101906107b591906142ca565b6122b6565b6040516107c79190613b3a565b60405180910390f35b3480156107dc57600080fd5b506107f760048036038101906107f29190613d3b565b61234a565b005b34801561080557600080fd5b50610820600480360381019061081b9190613b8b565b6124ab565b6040516108329695949392919061430a565b60405180910390f35b34801561084757600080fd5b506108506126a9565b60405161085d9190613cb4565b60405180910390f35b60007f780e9d63000000000000000000000000000000000000000000000000000000007bffffffffffffffffffffffffffffffffffffffffffffffffffffffff1916827bffffffffffffffffffffffffffffffffffffffffffffffffffffffff191614806108d957506108d8826126cf565b5b9050919050565b6108e9816127b1565b610928576040517f08c379a000000000000000000000000000000000000000000000000000000000815260040161091f906143cc565b60405180910390fd5b3373ffffffffffffffffffffffffffffffffffffffff1661094882611a99565b73ffffffffffffffffffffffffffffffffffffffff161461099e576040517f08c379a000000000000000000000000000000000000000000000000000000000815260040161099590614438565b60405180910390fd5b600b604051806080016040528083815260200160008152602001600073ffffffffffffffffffffffffffffffffffffffff168152602001600015158152509080600181540180825580915050600190039060005260206000209060030201600090919091909150600082015181600001556020820151816001015560408201518160020160006101000a81548173ffffffffffffffffffffffffffffffffffffffff021916908373ffffffffffffffffffffffffffffffffffffffff16021790555060608201518160020160146101000a81548160ff02191690831515021790555050506000600a8281548110610a9857610a97614458565b5b9060005260206000209060060201905033600e600084815260200190815260200160002060006101000a81548173ffffffffffffffffffffffffffffffffffffffff021916908373ffffffffffffffffffffffffffffffffffffffff1602179055505050565b606060008054610b0d906144b6565b80601f0160208091040260200160405190810160405280929190818152602001828054610b39906144b6565b8015610b865780601f10610b5b57610100808354040283529160200191610b86565b820191906000526020600020905b815481529060010190602001808311610b6957829003601f168201915b5050505050905090565b6000610b9b826127f2565b6004600083815260200190815260200160002060009054906101000a900473ffffffffffffffffffffffffffffffffffffffff169050919050565b6000610be182611a99565b90508073ffffffffffffffffffffffffffffffffffffffff168373ffffffffffffffffffffffffffffffffffffffff1603610c51576040517f08c379a0000000000000000000000000000000000000000000000000000000008152600401610c4890614559565b60405180910390fd5b8073ffffffffffffffffffffffffffffffffffffffff16610c7061283d565b73ffffffffffffffffffffffffffffffffffffffff161480610c9f5750610c9e81610c9961283d565b6122b6565b5b610cde576040517f08c379a0000000000000000000000000000000000000000000000000000000008152600401610cd5906145eb565b60405180910390fd5b610ce88383612845565b505050565b600d6020528060005260406000206000915054906101000a900473ffffffffffffffffffffffffffffffffffffffff1681565b610d29826127b1565b610d68576040517f08c379a0000000000000000000000000000000000000000000000000000000008152600401610d5f906143cc565b60405180910390fd5b3373ffffffffffffffffffffffffffffffffffffffff16610d8883611a99565b73ffffffffffffffffffffffffffffffffffffffff1614610dde576040517f08c379a0000000000000000000000000000000000000000000000000000000008152600401610dd590614438565b60405180910390fd5b6000600a8381548110610df457610df3614458565b5b9060005260206000209060060201905033600e600085815260200190815260200160002060006101000a81548173ffffffffffffffffffffffffffffffffffffffff021916908373ffffffffffffffffffffffffffffffffffffffff16021790555081816002018190555060018160030160006101000a81548160ff02191690831515021790555060008160050160006101000a81548160ff021916908315150217905550505050565b6000600880549050905090565b610eb4826127b1565b610ef3576040517f08c379a0000000000000000000000000000000000000000000000000000000008152600401610eea906143cc565b60405180910390fd5b6000600a8381548110610f0957610f08614458565b5b906000526020600020906006020190508060030160009054906101000a900460ff16610f6a576040517f08c379a0000000000000000000000000000000000000000000000000000000008152600401610f6190614657565b60405180910390fd5b80600201543414610fb0576040517f08c379a0000000000000000000000000000000000000000000000000000000008152600401610fa7906146c3565b60405180910390fd5b6000610fbb84611a99565b905060008190508073ffffffffffffffffffffffffffffffffffffffff166108fc349081150290604051600060405180830381858888f19350505050158015611008573d6000803e3d6000fd5b506110148233876128fe565b8383600001908051906020019061102c9291906139e3565b5033600d600087815260200190815260200160002060006101000a81548173ffffffffffffffffffffffffffffffffffffffff021916908373ffffffffffffffffffffffffffffffffffffffff16021790555081600e600087815260200190815260200160002060006101000a81548173ffffffffffffffffffffffffffffffffffffffff021916908373ffffffffffffffffffffffffffffffffffffffff16021790555060008360030160006101000a81548160ff0219169083151502179055505050505050565b61110661110061283d565b82612bf7565b611145576040517f08c379a000000000000000000000000000000000000000000000000000000000815260040161113c90614755565b60405180910390fd5b6111508383836128fe565b505050565b600061116083611b1f565b82106111a1576040517f08c379a0000000000000000000000000000000000000000000000000000000008152600401611198906147e7565b60405180910390fd5b600660008473ffffffffffffffffffffffffffffffffffffffff1673ffffffffffffffffffffffffffffffffffffffff168152602001908152602001600020600083815260200190815260200160002054905092915050565b60608060008060006060600061120f886127b1565b61124e576040517f08c379a0000000000000000000000000000000000000000000000000000000008152600401611245906143cc565b60405180910390fd5b6000600a898154811061126457611263614458565b5b9060005260206000209060060201905080600001816001018260020154600d60008d815260200190815260200160002060009054906101000a900473ffffffffffffffffffffffffffffffffffffffff168460030160009054906101000a900460ff16856004018660050160009054906101000a900460ff168680546112e9906144b6565b80601f0160208091040260200160405190810160405280929190818152602001828054611315906144b6565b80156113625780601f1061133757610100808354040283529160200191611362565b820191906000526020600020905b81548152906001019060200180831161134557829003601f168201915b50505050509650858054611375906144b6565b80601f01602080910402602001604051908101604052809291908181526020018280546113a1906144b6565b80156113ee5780601f106113c3576101008083540402835291602001916113ee565b820191906000526020600020905b8154815290600101906020018083116113d157829003601f168201915b50505050509550818054611401906144b6565b80601f016020809104026020016040519081016040528092919081815260200182805461142d906144b6565b801561147a5780601f1061144f5761010080835404028352916020019161147a565b820191906000526020600020905b81548152906001019060200180831161145d57829003601f168201915b50505050509150975097509750975097509750975050919395979092949650565b600e6020528060005260406000206000915054906101000a900473ffffffffffffffffffffffffffffffffffffffff1681565b600b805490508210611515576040517f08c379a000000000000000000000000000000000000000000000000000000000815260040161150c90614853565b60405180910390fd5b6000600b838154811061152b5761152a614458565b5b906000526020600020906003020190508060020160149054906101000a900460ff161561158d576040517f08c379a0000000000000000000000000000000000000000000000000000000008152600401611584906148bf565b60405180910390fd5b806001015434116115d3576040517f08c379a00000000000000000000000000000000000000000000000000000000081526004016115ca90614951565b60405180910390fd5b600073ffffffffffffffffffffffffffffffffffffffff168160020160009054906101000a900473ffffffffffffffffffffffffffffffffffffffff1673ffffffffffffffffffffffffffffffffffffffff16146116a15760008160020160009054906101000a900473ffffffffffffffffffffffffffffffffffffffff1690508073ffffffffffffffffffffffffffffffffffffffff166108fc83600101549081150290604051600060405180830381858888f1935050505015801561169e573d6000803e3d6000fd5b50505b6000600a8260000154815481106116bb576116ba614458565b5b90600052602060002090600602019050828160000190805190602001906116e39291906139e3565b50348160020181905550348260010181905550338260020160006101000a81548173ffffffffffffffffffffffffffffffffffffffff021916908373ffffffffffffffffffffffffffffffffffffffff16021790555060006117488360000154611a99565b905033600d60008560000154815260200190815260200160002060006101000a81548173ffffffffffffffffffffffffffffffffffffffff021916908373ffffffffffffffffffffffffffffffffffffffff16021790555080600e60008560000154815260200190815260200160002060006101000a81548173ffffffffffffffffffffffffffffffffffffffff021916908373ffffffffffffffffffffffffffffffffffffffff1602179055505050505050565b6000611808826127b1565b611847576040517f08c379a000000000000000000000000000000000000000000000000000000000815260040161183e906143cc565b60405180910390fd5b600e600083815260200190815260200160002060009054906101000a900473ffffffffffffffffffffffffffffffffffffffff169050919050565b600c60009054906101000a900473ffffffffffffffffffffffffffffffffffffffff1673ffffffffffffffffffffffffffffffffffffffff163373ffffffffffffffffffffffffffffffffffffffff1614611912576040517f08c379a0000000000000000000000000000000000000000000000000000000008152600401611909906149e3565b60405180910390fd5b61191b816127b1565b61195a576040517f08c379a0000000000000000000000000000000000000000000000000000000008152600401611951906143cc565b60405180910390fd5b6001600a82815481106119705761196f614458565b5b906000526020600020906006020160050160006101000a81548160ff02191690831515021790555050565b6119b683838360405180602001604052806000815250611e5e565b505050565b60006119c5610e9e565b8210611a06576040517f08c379a00000000000000000000000000000000000000000000000000000000081526004016119fd90614a75565b60405180910390fd5b60088281548110611a1a57611a19614458565b5b90600052602060002001549050919050565b600b8181548110611a3c57600080fd5b90600052602060002090600302016000915090508060000154908060010154908060020160009054906101000a900473ffffffffffffffffffffffffffffffffffffffff16908060020160149054906101000a900460ff16905084565b600080611aa583612c8c565b9050600073ffffffffffffffffffffffffffffffffffffffff168173ffffffffffffffffffffffffffffffffffffffff1603611b16576040517f08c379a0000000000000000000000000000000000000000000000000000000008152600401611b0d90614ae1565b60405180910390fd5b80915050919050565b60008073ffffffffffffffffffffffffffffffffffffffff168273ffffffffffffffffffffffffffffffffffffffff1603611b8f576040517f08c379a0000000000000000000000000000000000000000000000000000000008152600401611b8690614b73565b60405180910390fd5b600360008373ffffffffffffffffffffffffffffffffffffffff1673ffffffffffffffffffffffffffffffffffffffff168152602001908152602001600020549050919050565b600f6020528060005260406000206000915054906101000a900460ff1681565b606060018054611c05906144b6565b80601f0160208091040260200160405190810160405280929190818152602001828054611c31906144b6565b8015611c7e5780601f10611c5357610100808354040283529160200191611c7e565b820191906000526020600020905b815481529060010190602001808311611c6157829003601f168201915b5050505050905090565b611c9a611c9361283d565b8383612cc9565b5050565b6000600a805490509050600a6040518060c001604052808781526020018681526020018581526020016001151581526020018481526020016000151581525090806001815401808255809150506001900390600052602060002090600602016000909190919091506000820151816000019080519060200190611d229291906139e3565b506020820151816001019080519060200190611d3f9291906139e3565b506040820151816002015560608201518160030160006101000a81548160ff0219169083151502179055506080820151816004019080519060200190611d869291906139e3565b5060a08201518160050160006101000a81548160ff0219169083151502179055505050611db33382612e35565b33600d600083815260200190815260200160002060006101000a81548173ffffffffffffffffffffffffffffffffffffffff021916908373ffffffffffffffffffffffffffffffffffffffff16021790555033600e600083815260200190815260200160002060006101000a81548173ffffffffffffffffffffffffffffffffffffffff021916908373ffffffffffffffffffffffffffffffffffffffff1602179055505050505050565b611e6f611e6961283d565b83612bf7565b611eae576040517f08c379a0000000000000000000000000000000000000000000000000000000008152600401611ea590614755565b60405180910390fd5b611eba84848484612e53565b50505050565b600b805490508110611f07576040517f08c379a0000000000000000000000000000000000000000000000000000000008152600401611efe90614853565b60405180910390fd5b6000600b8281548110611f1d57611f1c614458565b5b906000526020600020906003020190508060020160149054906101000a900460ff1615611f7f576040517f08c379a0000000000000000000000000000000000000000000000000000000008152600401611f76906148bf565b60405180910390fd5b60018160020160146101000a81548160ff0219169083151502179055506000600a826000015481548110611fb657611fb5614458565b5b906000526020600020906006020190506000611fd58360000154611a99565b9050600081905060008173ffffffffffffffffffffffffffffffffffffffff16856001015460405161200690614bc4565b60006040518083038185875af1925050503d8060008114612043576040519150601f19603f3d011682016040523d82523d6000602084013e612048565b606091505b505090508061208c576040517f08c379a000000000000000000000000000000000000000000000000000000000815260040161208390614c25565b60405180910390fd5b6120bf838660020160009054906101000a900473ffffffffffffffffffffffffffffffffffffffff1687600001546128fe565b8460020160009054906101000a900473ffffffffffffffffffffffffffffffffffffffff16600d60008760000154815260200190815260200160002060006101000a81548173ffffffffffffffffffffffffffffffffffffffff021916908373ffffffffffffffffffffffffffffffffffffffff16021790555082600e60008760000154815260200190815260200160002060006101000a81548173ffffffffffffffffffffffffffffffffffffffff021916908373ffffffffffffffffffffffffffffffffffffffff16021790555060008460030160006101000a81548160ff02191690831515021790555060008560020160146101000a81548160ff021916908315150217905550600b86815481106121dd576121dc614458565b5b906000526020600020906003020160008082016000905560018201600090556002820160006101000a81549073ffffffffffffffffffffffffffffffffffffffff02191690556002820160146101000a81549060ff02191690555050505050505050565b606061224c826127f2565b6000612256612eaf565b9050600081511161227657604051806020016040528060008152506122a1565b8061228084612ec6565b604051602001612291929190614c81565b6040516020818303038152906040525b915050919050565b6000600b80549050905090565b6000600560008473ffffffffffffffffffffffffffffffffffffffff1673ffffffffffffffffffffffffffffffffffffffff16815260200190815260200160002060008373ffffffffffffffffffffffffffffffffffffffff1673ffffffffffffffffffffffffffffffffffffffff16815260200190815260200160002060009054906101000a900460ff16905092915050565b612353826127b1565b612392576040517f08c379a0000000000000000000000000000000000000000000000000000000008152600401612389906143cc565b60405180910390fd5b3373ffffffffffffffffffffffffffffffffffffffff166123b283611a99565b73ffffffffffffffffffffffffffffffffffffffff1614612408576040517f08c379a00000000000000000000000000000000000000000000000000000000081526004016123ff90614438565b60405180910390fd5b6000600a838154811061241e5761241d614458565b5b9060005260206000209060060201905081816002018190555060018160030160006101000a81548160ff02191690831515021790555033600e600085815260200190815260200160002060006101000a81548173ffffffffffffffffffffffffffffffffffffffff021916908373ffffffffffffffffffffffffffffffffffffffff160217905550505050565b600a81815481106124bb57600080fd5b90600052602060002090600602016000915090508060000180546124de906144b6565b80601f016020809104026020016040519081016040528092919081815260200182805461250a906144b6565b80156125575780601f1061252c57610100808354040283529160200191612557565b820191906000526020600020905b81548152906001019060200180831161253a57829003601f168201915b50505050509080600101805461256c906144b6565b80601f0160208091040260200160405190810160405280929190818152602001828054612598906144b6565b80156125e55780601f106125ba576101008083540402835291602001916125e5565b820191906000526020600020905b8154815290600101906020018083116125c857829003601f168201915b5050505050908060020154908060030160009054906101000a900460ff1690806004018054612613906144b6565b80601f016020809104026020016040519081016040528092919081815260200182805461263f906144b6565b801561268c5780601f106126615761010080835404028352916020019161268c565b820191906000526020600020905b81548152906001019060200180831161266f57829003601f168201915b5050505050908060050160009054906101000a900460ff16905086565b600c60009054906101000a900473ffffffffffffffffffffffffffffffffffffffff1681565b60007f80ac58cd000000000000000000000000000000000000000000000000000000007bffffffffffffffffffffffffffffffffffffffffffffffffffffffff1916827bffffffffffffffffffffffffffffffffffffffffffffffffffffffff1916148061279a57507f5b5e139f000000000000000000000000000000000000000000000000000000007bffffffffffffffffffffffffffffffffffffffffffffffffffffffff1916827bffffffffffffffffffffffffffffffffffffffffffffffffffffffff1916145b806127aa57506127a982612f94565b5b9050919050565b60008073ffffffffffffffffffffffffffffffffffffffff166127d383612c8c565b73ffffffffffffffffffffffffffffffffffffffff1614159050919050565b6127fb816127b1565b61283a576040517f08c379a000000000000000000000000000000000000000000000000000000000815260040161283190614ae1565b60405180910390fd5b50565b600033905090565b816004600083815260200190815260200160002060006101000a81548173ffffffffffffffffffffffffffffffffffffffff021916908373ffffffffffffffffffffffffffffffffffffffff160217905550808273ffffffffffffffffffffffffffffffffffffffff166128b883611a99565b73ffffffffffffffffffffffffffffffffffffffff167f8c5be1e5ebec7d5bd14f71427d1e84f3dd0314c0f7b2291e5b200ac8c7c3b92560405160405180910390a45050565b8273ffffffffffffffffffffffffffffffffffffffff1661291e82611a99565b73ffffffffffffffffffffffffffffffffffffffff1614612974576040517f08c379a000000000000000000000000000000000000000000000000000000000815260040161296b90614d17565b60405180910390fd5b600073ffffffffffffffffffffffffffffffffffffffff168273ffffffffffffffffffffffffffffffffffffffff16036129e3576040517f08c379a00000000000000000000000000000000000000000000000000000000081526004016129da90614da9565b60405180910390fd5b6129f08383836001612ffe565b8273ffffffffffffffffffffffffffffffffffffffff16612a1082611a99565b73ffffffffffffffffffffffffffffffffffffffff1614612a66576040517f08c379a0000000000000000000000000000000000000000000000000000000008152600401612a5d90614d17565b60405180910390fd5b6004600082815260200190815260200160002060006101000a81549073ffffffffffffffffffffffffffffffffffffffff02191690556001600360008573ffffffffffffffffffffffffffffffffffffffff1673ffffffffffffffffffffffffffffffffffffffff168152602001908152602001600020600082825403925050819055506001600360008473ffffffffffffffffffffffffffffffffffffffff1673ffffffffffffffffffffffffffffffffffffffff16815260200190815260200160002060008282540192505081905550816002600083815260200190815260200160002060006101000a81548173ffffffffffffffffffffffffffffffffffffffff021916908373ffffffffffffffffffffffffffffffffffffffff160217905550808273ffffffffffffffffffffffffffffffffffffffff168473ffffffffffffffffffffffffffffffffffffffff167fddf252ad1be2c89b69c2b068fc378daa952ba7f163c4a11628f55a4df523b3ef60405160405180910390a4612bf2838383600161315c565b505050565b600080612c0383611a99565b90508073ffffffffffffffffffffffffffffffffffffffff168473ffffffffffffffffffffffffffffffffffffffff161480612c455750612c4481856122b6565b5b80612c8357508373ffffffffffffffffffffffffffffffffffffffff16612c6b84610b90565b73ffffffffffffffffffffffffffffffffffffffff16145b91505092915050565b60006002600083815260200190815260200160002060009054906101000a900473ffffffffffffffffffffffffffffffffffffffff169050919050565b8173ffffffffffffffffffffffffffffffffffffffff168373ffffffffffffffffffffffffffffffffffffffff1603612d37576040517f08c379a0000000000000000000000000000000000000000000000000000000008152600401612d2e90614e15565b60405180910390fd5b80600560008573ffffffffffffffffffffffffffffffffffffffff1673ffffffffffffffffffffffffffffffffffffffff16815260200190815260200160002060008473ffffffffffffffffffffffffffffffffffffffff1673ffffffffffffffffffffffffffffffffffffffff16815260200190815260200160002060006101000a81548160ff0219169083151502179055508173ffffffffffffffffffffffffffffffffffffffff168373ffffffffffffffffffffffffffffffffffffffff167f17307eab39ab6107e8899845ad3d59bd9653f200f220920489ca2b5937696c3183604051612e289190613b3a565b60405180910390a3505050565b612e4f828260405180602001604052806000815250613162565b5050565b612e5e8484846128fe565b612e6a848484846131bd565b612ea9576040517f08c379a0000000000000000000000000000000000000000000000000000000008152600401612ea090614ea7565b60405180910390fd5b50505050565b606060405180602001604052806000815250905090565b606060006001612ed584613344565b01905060008167ffffffffffffffff811115612ef457612ef3613daf565b5b6040519080825280601f01601f191660200182016040528015612f265781602001600182028036833780820191505090505b509050600082602001820190505b600115612f89578080600190039150507f3031323334353637383961626364656600000000000000000000000000000000600a86061a8153600a8581612f7d57612f7c614ec7565b5b04945060008503612f34575b819350505050919050565b60007f01ffc9a7000000000000000000000000000000000000000000000000000000007bffffffffffffffffffffffffffffffffffffffffffffffffffffffff1916827bffffffffffffffffffffffffffffffffffffffffffffffffffffffff1916149050919050565b61300a84848484613497565b600181111561304e576040517f08c379a000000000000000000000000000000000000000000000000000000000815260040161304590614f68565b60405180910390fd5b6000829050600073ffffffffffffffffffffffffffffffffffffffff168573ffffffffffffffffffffffffffffffffffffffff1603613095576130908161349d565b6130d4565b8373ffffffffffffffffffffffffffffffffffffffff168573ffffffffffffffffffffffffffffffffffffffff16146130d3576130d285826134e6565b5b5b600073ffffffffffffffffffffffffffffffffffffffff168473ffffffffffffffffffffffffffffffffffffffff16036131165761311181613653565b613155565b8473ffffffffffffffffffffffffffffffffffffffff168473ffffffffffffffffffffffffffffffffffffffff1614613154576131538482613724565b5b5b5050505050565b50505050565b61316c83836137a3565b61317960008484846131bd565b6131b8576040517f08c379a00000000000000000000000000000000000000000000000000000000081526004016131af90614ea7565b60405180910390fd5b505050565b60006131de8473ffffffffffffffffffffffffffffffffffffffff166139c0565b15613337578373ffffffffffffffffffffffffffffffffffffffff1663150b7a0261320761283d565b8786866040518563ffffffff1660e01b81526004016132299493929190614fdd565b6020604051808303816000875af192505050801561326557506040513d601f19601f82011682018060405250810190613262919061503e565b60015b6132e7573d8060008114613295576040519150601f19603f3d011682016040523d82523d6000602084013e61329a565b606091505b5060008151036132df576040517f08c379a00000000000000000000000000000000000000000000000000000000081526004016132d690614ea7565b60405180910390fd5b805181602001fd5b63150b7a0260e01b7bffffffffffffffffffffffffffffffffffffffffffffffffffffffff1916817bffffffffffffffffffffffffffffffffffffffffffffffffffffffff19161491505061333c565b600190505b949350505050565b600080600090507a184f03e93ff9f4daa797ed6e38ed64bf6a1f01000000000000000083106133a2577a184f03e93ff9f4daa797ed6e38ed64bf6a1f010000000000000000838161339857613397614ec7565b5b0492506040810190505b6d04ee2d6d415b85acef810000000083106133df576d04ee2d6d415b85acef810000000083816133d5576133d4614ec7565b5b0492506020810190505b662386f26fc10000831061340e57662386f26fc10000838161340457613403614ec7565b5b0492506010810190505b6305f5e1008310613437576305f5e100838161342d5761342c614ec7565b5b0492506008810190505b612710831061345c57612710838161345257613451614ec7565b5b0492506004810190505b6064831061347f576064838161347557613474614ec7565b5b0492506002810190505b600a831061348e576001810190505b80915050919050565b50505050565b6008805490506009600083815260200190815260200160002081905550600881908060018154018082558091505060019003906000526020600020016000909190919091505550565b600060016134f384611b1f565b6134fd919061509a565b90506000600760008481526020019081526020016000205490508181146135e2576000600660008673ffffffffffffffffffffffffffffffffffffffff1673ffffffffffffffffffffffffffffffffffffffff168152602001908152602001600020600084815260200190815260200160002054905080600660008773ffffffffffffffffffffffffffffffffffffffff1673ffffffffffffffffffffffffffffffffffffffff168152602001908152602001600020600084815260200190815260200160002081905550816007600083815260200190815260200160002081905550505b6007600084815260200190815260200160002060009055600660008573ffffffffffffffffffffffffffffffffffffffff1673ffffffffffffffffffffffffffffffffffffffff16815260200190815260200160002060008381526020019081526020016000206000905550505050565b60006001600880549050613667919061509a565b905060006009600084815260200190815260200160002054905060006008838154811061369757613696614458565b5b9060005260206000200154905080600883815481106136b9576136b8614458565b5b906000526020600020018190555081600960008381526020019081526020016000208190555060096000858152602001908152602001600020600090556008805480613708576137076150ce565b5b6001900381819060005260206000200160009055905550505050565b600061372f83611b1f565b905081600660008573ffffffffffffffffffffffffffffffffffffffff1673ffffffffffffffffffffffffffffffffffffffff168152602001908152602001600020600083815260200190815260200160002081905550806007600084815260200190815260200160002081905550505050565b600073ffffffffffffffffffffffffffffffffffffffff168273ffffffffffffffffffffffffffffffffffffffff1603613812576040517f08c379a000000000000000000000000000000000000000000000000000000000815260040161380990615149565b60405180910390fd5b61381b816127b1565b1561385b576040517f08c379a0000000000000000000000000000000000000000000000000000000008152600401613852906151b5565b60405180910390fd5b613869600083836001612ffe565b613872816127b1565b156138b2576040517f08c379a00000000000000000000000000000000000000000000000000000000081526004016138a9906151b5565b60405180910390fd5b6001600360008473ffffffffffffffffffffffffffffffffffffffff1673ffffffffffffffffffffffffffffffffffffffff16815260200190815260200160002060008282540192505081905550816002600083815260200190815260200160002060006101000a81548173ffffffffffffffffffffffffffffffffffffffff021916908373ffffffffffffffffffffffffffffffffffffffff160217905550808273ffffffffffffffffffffffffffffffffffffffff16600073ffffffffffffffffffffffffffffffffffffffff167fddf252ad1be2c89b69c2b068fc378daa952ba7f163c4a11628f55a4df523b3ef60405160405180910390a46139bc60008383600161315c565b5050565b6000808273ffffffffffffffffffffffffffffffffffffffff163b119050919050565b8280546139ef906144b6565b90600052602060002090601f016020900481019282613a115760008555613a58565b82601f10613a2a57805160ff1916838001178555613a58565b82800160010185558215613a58579182015b82811115613a57578251825591602001919060010190613a3c565b5b509050613a659190613a69565b5090565b5b80821115613a82576000816000905550600101613a6a565b5090565b6000604051905090565b600080fd5b600080fd5b60007fffffffff0000000000000000000000000000000000000000000000000000000082169050919050565b613acf81613a9a565b8114613ada57600080fd5b50565b600081359050613aec81613ac6565b92915050565b600060208284031215613b0857613b07613a90565b5b6000613b1684828501613add565b91505092915050565b60008115159050919050565b613b3481613b1f565b82525050565b6000602082019050613b4f6000830184613b2b565b92915050565b6000819050919050565b613b6881613b55565b8114613b7357600080fd5b50565b600081359050613b8581613b5f565b92915050565b600060208284031215613ba157613ba0613a90565b5b6000613baf84828501613b76565b91505092915050565b600081519050919050565b600082825260208201905092915050565b60005b83811015613bf2578082015181840152602081019050613bd7565b83811115613c01576000848401525b50505050565b6000601f19601f8301169050919050565b6000613c2382613bb8565b613c2d8185613bc3565b9350613c3d818560208601613bd4565b613c4681613c07565b840191505092915050565b60006020820190508181036000830152613c6b8184613c18565b905092915050565b600073ffffffffffffffffffffffffffffffffffffffff82169050919050565b6000613c9e82613c73565b9050919050565b613cae81613c93565b82525050565b6000602082019050613cc96000830184613ca5565b92915050565b613cd881613c93565b8114613ce357600080fd5b50565b600081359050613cf581613ccf565b92915050565b60008060408385031215613d1257613d11613a90565b5b6000613d2085828601613ce6565b9250506020613d3185828601613b76565b9150509250929050565b60008060408385031215613d5257613d51613a90565b5b6000613d6085828601613b76565b9250506020613d7185828601613b76565b9150509250929050565b613d8481613b55565b82525050565b6000602082019050613d9f6000830184613d7b565b92915050565b600080fd5b600080fd5b7f4e487b7100000000000000000000000000000000000000000000000000000000600052604160045260246000fd5b613de782613c07565b810181811067ffffffffffffffff82111715613e0657613e05613daf565b5b80604052505050565b6000613e19613a86565b9050613e258282613dde565b919050565b600067ffffffffffffffff821115613e4557613e44613daf565b5b613e4e82613c07565b9050602081019050919050565b82818337600083830152505050565b6000613e7d613e7884613e2a565b613e0f565b905082815260208101848484011115613e9957613e98613daa565b5b613ea4848285613e5b565b509392505050565b600082601f830112613ec157613ec0613da5565b5b8135613ed1848260208601613e6a565b91505092915050565b60008060408385031215613ef157613ef0613a90565b5b6000613eff85828601613b76565b925050602083013567ffffffffffffffff811115613f2057613f1f613a95565b5b613f2c85828601613eac565b9150509250929050565b600080600060608486031215613f4f57613f4e613a90565b5b6000613f5d86828701613ce6565b9350506020613f6e86828701613ce6565b9250506040613f7f86828701613b76565b9150509250925092565b600060e0820190508181036000830152613fa3818a613c18565b90508181036020830152613fb78189613c18565b9050613fc66040830188613d7b565b613fd36060830187613ca5565b613fe06080830186613b2b565b81810360a0830152613ff28185613c18565b905061400160c0830184613b2b565b98975050505050505050565b60006080820190506140226000830187613d7b565b61402f6020830186613d7b565b61403c6040830185613ca5565b6140496060830184613b2b565b95945050505050565b60006020828403121561406857614067613a90565b5b600061407684828501613ce6565b91505092915050565b61408881613b1f565b811461409357600080fd5b50565b6000813590506140a58161407f565b92915050565b600080604083850312156140c2576140c1613a90565b5b60006140d085828601613ce6565b92505060206140e185828601614096565b9150509250929050565b6000806000806080858703121561410557614104613a90565b5b600085013567ffffffffffffffff81111561412357614122613a95565b5b61412f87828801613eac565b945050602085013567ffffffffffffffff8111156141505761414f613a95565b5b61415c87828801613eac565b935050604061416d87828801613b76565b925050606085013567ffffffffffffffff81111561418e5761418d613a95565b5b61419a87828801613eac565b91505092959194509250565b600067ffffffffffffffff8211156141c1576141c0613daf565b5b6141ca82613c07565b9050602081019050919050565b60006141ea6141e5846141a6565b613e0f565b90508281526020810184848401111561420657614205613daa565b5b614211848285613e5b565b509392505050565b600082601f83011261422e5761422d613da5565b5b813561423e8482602086016141d7565b91505092915050565b6000806000806080858703121561426157614260613a90565b5b600061426f87828801613ce6565b945050602061428087828801613ce6565b935050604061429187828801613b76565b925050606085013567ffffffffffffffff8111156142b2576142b1613a95565b5b6142be87828801614219565b91505092959194509250565b600080604083850312156142e1576142e0613a90565b5b60006142ef85828601613ce6565b925050602061430085828601613ce6565b9150509250929050565b600060c08201905081810360008301526143248189613c18565b905081810360208301526143388188613c18565b90506143476040830187613d7b565b6143546060830186613b2b565b81810360808301526143668185613c18565b905061437560a0830184613b2b565b979650505050505050565b7f50726f706572747920646f6573206e6f74206578697374000000000000000000600082015250565b60006143b6601783613bc3565b91506143c182614380565b602082019050919050565b600060208201905081810360008301526143e5816143a9565b9050919050565b7f4e6f74207468652070726f7065727479206f776e657200000000000000000000600082015250565b6000614422601683613bc3565b915061442d826143ec565b602082019050919050565b6000602082019050818103600083015261445181614415565b9050919050565b7f4e487b7100000000000000000000000000000000000000000000000000000000600052603260045260246000fd5b7f4e487b7100000000000000000000000000000000000000000000000000000000600052602260045260246000fd5b600060028204905060018216806144ce57607f821691505b6020821081036144e1576144e0614487565b5b50919050565b7f4552433732313a20617070726f76616c20746f2063757272656e74206f776e6560008201527f7200000000000000000000000000000000000000000000000000000000000000602082015250565b6000614543602183613bc3565b915061454e826144e7565b604082019050919050565b6000602082019050818103600083015261457281614536565b9050919050565b7f4552433732313a20617070726f76652063616c6c6572206973206e6f7420746f60008201527f6b656e206f776e6572206f7220617070726f76656420666f7220616c6c000000602082015250565b60006145d5603d83613bc3565b91506145e082614579565b604082019050919050565b60006020820190508181036000830152614604816145c8565b9050919050565b7f50726f7065727479206973206e6f7420666f722073616c650000000000000000600082015250565b6000614641601883613bc3565b915061464c8261460b565b602082019050919050565b6000602082019050818103600083015261467081614634565b9050919050565b7f496e636f7272656374207061796d656e7420616d6f756e740000000000000000600082015250565b60006146ad601883613bc3565b91506146b882614677565b602082019050919050565b600060208201905081810360008301526146dc816146a0565b9050919050565b7f4552433732313a2063616c6c6572206973206e6f7420746f6b656e206f776e6560008201527f72206f7220617070726f76656400000000000000000000000000000000000000602082015250565b600061473f602d83613bc3565b915061474a826146e3565b604082019050919050565b6000602082019050818103600083015261476e81614732565b9050919050565b7f455243373231456e756d657261626c653a206f776e657220696e646578206f7560008201527f74206f6620626f756e6473000000000000000000000000000000000000000000602082015250565b60006147d1602b83613bc3565b91506147dc82614775565b604082019050919050565b60006020820190508181036000830152614800816147c4565b9050919050565b7f41756374696f6e20646f6573206e6f7420657869737400000000000000000000600082015250565b600061483d601683613bc3565b915061484882614807565b602082019050919050565b6000602082019050818103600083015261486c81614830565b9050919050565b7f41756374696f6e2068617320616c726561647920656e64656400000000000000600082015250565b60006148a9601983613bc3565b91506148b482614873565b602082019050919050565b600060208201905081810360008301526148d88161489c565b9050919050565b7f42696420616d6f756e74206d75737420626520686967686572207468616e207460008201527f68652063757272656e7420686967686573742062696400000000000000000000602082015250565b600061493b603683613bc3565b9150614946826148df565b604082019050919050565b6000602082019050818103600083015261496a8161492e565b9050919050565b7f4f6e6c79207468652076657269666965722063616e20706572666f726d20746860008201527f697320616374696f6e0000000000000000000000000000000000000000000000602082015250565b60006149cd602983613bc3565b91506149d882614971565b604082019050919050565b600060208201905081810360008301526149fc816149c0565b9050919050565b7f455243373231456e756d657261626c653a20676c6f62616c20696e646578206f60008201527f7574206f6620626f756e64730000000000000000000000000000000000000000602082015250565b6000614a5f602c83613bc3565b9150614a6a82614a03565b604082019050919050565b60006020820190508181036000830152614a8e81614a52565b9050919050565b7f4552433732313a20696e76616c696420746f6b656e2049440000000000000000600082015250565b6000614acb601883613bc3565b9150614ad682614a95565b602082019050919050565b60006020820190508181036000830152614afa81614abe565b9050919050565b7f4552433732313a2061646472657373207a65726f206973206e6f74206120766160008201527f6c6964206f776e65720000000000000000000000000000000000000000000000602082015250565b6000614b5d602983613bc3565b9150614b6882614b01565b604082019050919050565b60006020820190508181036000830152614b8c81614b50565b9050919050565b600081905092915050565b50565b6000614bae600083614b93565b9150614bb982614b9e565b600082019050919050565b6000614bcf82614ba1565b9150819050919050565b7f5472616e73666572206661696c65640000000000000000000000000000000000600082015250565b6000614c0f600f83613bc3565b9150614c1a82614bd9565b602082019050919050565b60006020820190508181036000830152614c3e81614c02565b9050919050565b600081905092915050565b6000614c5b82613bb8565b614c658185614c45565b9350614c75818560208601613bd4565b80840191505092915050565b6000614c8d8285614c50565b9150614c998284614c50565b91508190509392505050565b7f4552433732313a207472616e736665722066726f6d20696e636f72726563742060008201527f6f776e6572000000000000000000000000000000000000000000000000000000602082015250565b6000614d01602583613bc3565b9150614d0c82614ca5565b604082019050919050565b60006020820190508181036000830152614d3081614cf4565b9050919050565b7f4552433732313a207472616e7366657220746f20746865207a65726f2061646460008201527f7265737300000000000000000000000000000000000000000000000000000000602082015250565b6000614d93602483613bc3565b9150614d9e82614d37565b604082019050919050565b60006020820190508181036000830152614dc281614d86565b9050919050565b7f4552433732313a20617070726f766520746f2063616c6c657200000000000000600082015250565b6000614dff601983613bc3565b9150614e0a82614dc9565b602082019050919050565b60006020820190508181036000830152614e2e81614df2565b9050919050565b7f4552433732313a207472616e7366657220746f206e6f6e20455243373231526560008201527f63656976657220696d706c656d656e7465720000000000000000000000000000602082015250565b6000614e91603283613bc3565b9150614e9c82614e35565b604082019050919050565b60006020820190508181036000830152614ec081614e84565b9050919050565b7f4e487b7100000000000000000000000000000000000000000000000000000000600052601260045260246000fd5b7f455243373231456e756d657261626c653a20636f6e736563757469766520747260008201527f616e7366657273206e6f7420737570706f727465640000000000000000000000602082015250565b6000614f52603583613bc3565b9150614f5d82614ef6565b604082019050919050565b60006020820190508181036000830152614f8181614f45565b9050919050565b600081519050919050565b600082825260208201905092915050565b6000614faf82614f88565b614fb98185614f93565b9350614fc9818560208601613bd4565b614fd281613c07565b840191505092915050565b6000608082019050614ff26000830187613ca5565b614fff6020830186613ca5565b61500c6040830185613d7b565b818103606083015261501e8184614fa4565b905095945050505050565b60008151905061503881613ac6565b92915050565b60006020828403121561505457615053613a90565b5b600061506284828501615029565b91505092915050565b7f4e487b7100000000000000000000000000000000000000000000000000000000600052601160045260246000fd5b60006150a582613b55565b91506150b083613b55565b9250828210156150c3576150c261506b565b5b828203905092915050565b7f4e487b7100000000000000000000000000000000000000000000000000000000600052603160045260246000fd5b7f4552433732313a206d696e7420746f20746865207a65726f2061646472657373600082015250565b6000615133602083613bc3565b915061513e826150fd565b602082019050919050565b6000602082019050818103600083015261516281615126565b9050919050565b7f4552433732313a20746f6b656e20616c7265616479206d696e74656400000000600082015250565b600061519f601c83613bc3565b91506151aa82615169565b602082019050919050565b600060208201905081810360008301526151ce81615192565b905091905056fea2646970667358221220091c8bb55bad919c2f1c44ef0089f077fa4bfae1f7936666f6ff6e8a67fff99364736f6c634300080d0033",
  "immutableReferences": {},
  "source": "// SPDX-License-Identifier: MIT\npragma solidity ^0.8.0;\n\nimport \"@openzeppelin/contracts/token/ERC721/extensions/ERC721Enumerable.sol\";\n\ncontract RealEstateMarketplace is ERC721Enumerable {\n    struct Property {\n        string name;\n        string description;\n        uint256 price;\n        bool forSale;\n        string imageurl;\n        bool verified;\n    }\n\n    struct Auction {\n        uint256 propertyId;\n        uint256 highestBid;\n        address highestBidder;\n        bool ended;\n    }\n\n    Property[] public properties;\n    Auction[] public auctions;\n    address public admin;\n\n    mapping(uint256 => address) public propertyToOwner;\n    mapping(uint256 => address) public propertyToSeller;\n    mapping(uint256 => bool) public propertyVerificationStatus;\n\n    constructor() ERC721(\"RealEstateNFT\", \"RE\") {\n        admin = msg.sender;\n    }\n\n    modifier onlyVerifier() {\n        require(msg.sender == admin, \"Only the verifier can perform this action\");\n        _;\n    }\n\n    function createProperty(\n        string memory _name,\n        string memory _description,\n        uint256 _price,\n        string memory _imageurl\n    ) external {\n        uint256 propertyId = properties.length;\n        properties.push(Property(_name, _description, _price, true, _imageurl, false));\n        _safeMint(msg.sender, propertyId);\n        propertyToOwner[propertyId] = msg.sender;\n        propertyToSeller[propertyId] = msg.sender;\n    }\n\n    function getProperty(uint256 _propertyId)\n        external\n        view\n        returns (\n            string memory name,\n            string memory description,\n            uint256 price,\n            address owner,\n            bool forSale,\n            string memory imageurl,\n            bool verified\n        )\n    {\n        require(_exists(_propertyId), \"Property does not exist\");\n        Property storage property = properties[_propertyId];\n        return (\n            property.name,\n            property.description,\n            property.price,\n            propertyToOwner[_propertyId],\n            property.forSale,\n            property.imageurl,\n            property.verified\n        );\n    }\n\n    function verifyProperty(uint256 _propertyId) external onlyVerifier {\n        require(_exists(_propertyId), \"Property does not exist\");\n        properties[_propertyId].verified = true; // Set verified status to true after successful verification\n    }\n\n    function buyProperty(uint256 _propertyId, string memory name) external payable {\n        require(_exists(_propertyId), \"Property does not exist\");\n        Property storage property = properties[_propertyId];\n        require(property.forSale, \"Property is not for sale\");\n        require(msg.value == property.price, \"Incorrect payment amount\");\n\n        address propertyOwner = ownerOf(_propertyId);\n        address payable seller = payable(propertyOwner);\n        seller.transfer(msg.value);\n        _transfer(propertyOwner, msg.sender, _propertyId);\n        property.name = name;\n        propertyToOwner[_propertyId] = msg.sender;\n        propertyToSeller[_propertyId] = propertyOwner;\n        property.forSale = false;\n    }\n\n    function listPropertyForSale(uint256 _propertyId, uint256 _price) external {\n        require(_exists(_propertyId), \"Property does not exist\");\n        require(ownerOf(_propertyId) == msg.sender, \"Not the property owner\");\n        Property storage property = properties[_propertyId];\n        propertyToSeller[_propertyId] = msg.sender;\n        property.price = _price;\n        property.forSale = true;\n        property.verified = false;\n    }\n\n    function sellProperty(uint256 _propertyId, uint256 _price) external {\n        require(_exists(_propertyId), \"Property does not exist\");\n        require(ownerOf(_propertyId) == msg.sender, \"Not the property owner\");\n        Property storage property = properties[_propertyId];\n        property.price = _price;\n        property.forSale = true;\n        propertyToSeller[_propertyId] = msg.sender;\n    }\n\n    function getPropertySeller(uint256 _propertyId) external view returns (address) {\n        require(_exists(_propertyId), \"Property does not exist\");\n        return propertyToSeller[_propertyId];\n    }\n\n    function startAuction(uint256 _propertyId) external {\n        require(_exists(_propertyId), \"Property does not exist\");\n        require(ownerOf(_propertyId) == msg.sender, \"Not the property owner\");\n\n        auctions.push(Auction(_propertyId, 0, address(0), false));\n        // auctions.push(Auction(_propertyId, 0, address(0), _auctionEndTime));\n        Property storage property = properties[_propertyId];\n        propertyToSeller[_propertyId] = msg.sender;\n        // property.forSale = false;\n    }\n\n    function placeBid(uint256 _auctionId, string memory _name) external payable {\n        require(_auctionId < auctions.length, \"Auction does not exist\");\n        Auction storage auction = auctions[_auctionId];\n        require(!auction.ended, \"Auction has already ended\");\n        require(msg.value > auction.highestBid, \"Bid amount must be higher than the current highest bid\");\n\n        if (auction.highestBidder != address(0)) {\n            // Refund the previous highest bidder\n            address payable previousBidder = payable(auction.highestBidder);\n            previousBidder.transfer(auction.highestBid);\n        }\n\n        Property storage property = properties[auction.propertyId];\n        property.name = _name;\n        property.price = msg.value;\n        auction.highestBid = msg.value;\n        auction.highestBidder = msg.sender;\n        address powner = ownerOf(auction.propertyId);\n        propertyToOwner[auction.propertyId] = msg.sender;\n        propertyToSeller[auction.propertyId] = powner;\n    }\n\n    function getAuctionsLength() external view returns (uint256) {\n    return auctions.length;\n}\n\n\n    function endAuction(uint256 _auctionId) external {\n        require(_auctionId < auctions.length, \"Auction does not exist\");\n        Auction storage auction = auctions[_auctionId];\n        require(!auction.ended, \"Auction has already ended\");\n        // require(block.timestamp >= (block.timestamp + auction.auctionEndTime), \"Auction has not yet ended\");\n\n        auction.ended = true;\n\n        Property storage property = properties[auction.propertyId];\n        address propertyOwner = ownerOf(auction.propertyId);\n        address payable seller = payable(propertyOwner);\n        (bool success, ) = seller.call{value: auction.highestBid}(\"\");\n        require(success, \"Transfer failed\");\n\n        // seller.transfer(auction.highestBid);\n        _transfer(propertyOwner, auction.highestBidder, auction.propertyId);\n        propertyToOwner[auction.propertyId] = auction.highestBidder;\n        propertyToSeller[auction.propertyId] = propertyOwner;\n        property.forSale = false;\n        auction.ended = false;\n        delete auctions[_auctionId];\n    }\n}\n",
  "sourcePath": "/home/bharat/Desktop/Thesis/RealEstate_dapp/contracts/restate.sol",
  "compiler": {
    "name": "solc",
    "version": "0.8.13+commit.abaa5c0e.Emscripten.clang"
  },
  "schemaVersion": "3.4.14",
  "updatedAt": "2023-05-29T05:30:27.275Z",
  "networkType": "ethereum",
  "devdoc": {
    "kind": "dev",
    "methods": {
      "approve(address,uint256)": {
        "details": "See {IERC721-approve}."
      },
      "balanceOf(address)": {
        "details": "See {IERC721-balanceOf}."
      },
      "getApproved(uint256)": {
        "details": "See {IERC721-getApproved}."
      },
      "isApprovedForAll(address,address)": {
        "details": "See {IERC721-isApprovedForAll}."
      },
      "name()": {
        "details": "See {IERC721Metadata-name}."
      },
      "ownerOf(uint256)": {
        "details": "See {IERC721-ownerOf}."
      },
      "safeTransferFrom(address,address,uint256)": {
        "details": "See {IERC721-safeTransferFrom}."
      },
      "safeTransferFrom(address,address,uint256,bytes)": {
        "details": "See {IERC721-safeTransferFrom}."
      },
      "setApprovalForAll(address,bool)": {
        "details": "See {IERC721-setApprovalForAll}."
      },
      "supportsInterface(bytes4)": {
        "details": "See {IERC165-supportsInterface}."
      },
      "symbol()": {
        "details": "See {IERC721Metadata-symbol}."
      },
      "tokenByIndex(uint256)": {
        "details": "See {IERC721Enumerable-tokenByIndex}."
      },
      "tokenOfOwnerByIndex(address,uint256)": {
        "details": "See {IERC721Enumerable-tokenOfOwnerByIndex}."
      },
      "tokenURI(uint256)": {
        "details": "See {IERC721Metadata-tokenURI}."
      },
      "totalSupply()": {
        "details": "See {IERC721Enumerable-totalSupply}."
      },
      "transferFrom(address,address,uint256)": {
        "details": "See {IERC721-transferFrom}."
      }
    },
    "version": 1
  },
  "userdoc": {
    "kind": "user",
    "methods": {},
    "version": 1
  }
}