{
  "contractName": "RealEstateMarketplace",
  "abi": [
    {
      "inputs": [],
      "stateMutability": "nonpayable",
      "type": "constructor"
    },
    {
      "anonymous": false,
      "inputs": [
        {
          "indexed": true,
          "internalType": "address",
          "name": "owner",
          "type": "address"
        },
        {
          "indexed": true,
          "internalType": "address",
          "name": "approved",
          "type": "address"
        },
        {
          "indexed": true,
          "internalType": "uint256",
          "name": "tokenId",
          "type": "uint256"
        }
      ],
      "name": "Approval",
      "type": "event"
    },
    {
      "anonymous": false,
      "inputs": [
        {
          "indexed": true,
          "internalType": "address",
          "name": "owner",
          "type": "address"
        },
        {
          "indexed": true,
          "internalType": "address",
          "name": "operator",
          "type": "address"
        },
        {
          "indexed": false,
          "internalType": "bool",
          "name": "approved",
          "type": "bool"
        }
      ],
      "name": "ApprovalForAll",
      "type": "event"
    },
    {
      "anonymous": false,
      "inputs": [
        {
          "indexed": true,
          "internalType": "address",
          "name": "from",
          "type": "address"
        },
        {
          "indexed": true,
          "internalType": "address",
          "name": "to",
          "type": "address"
        },
        {
          "indexed": true,
          "internalType": "uint256",
          "name": "tokenId",
          "type": "uint256"
        }
      ],
      "name": "Transfer",
      "type": "event"
    },
    {
      "inputs": [],
      "name": "admin",
      "outputs": [
        {
          "internalType": "address",
          "name": "",
          "type": "address"
        }
      ],
      "stateMutability": "view",
      "type": "function",
      "constant": true
    },
    {
      "inputs": [
        {
          "internalType": "address",
          "name": "to",
          "type": "address"
        },
        {
          "internalType": "uint256",
          "name": "tokenId",
          "type": "uint256"
        }
      ],
      "name": "approve",
      "outputs": [],
      "stateMutability": "nonpayable",
      "type": "function"
    },
    {
      "inputs": [
        {
          "internalType": "address",
          "name": "owner",
          "type": "address"
        }
      ],
      "name": "balanceOf",
      "outputs": [
        {
          "internalType": "uint256",
          "name": "",
          "type": "uint256"
        }
      ],
      "stateMutability": "view",
      "type": "function",
      "constant": true
    },
    {
      "inputs": [
        {
          "internalType": "uint256",
          "name": "tokenId",
          "type": "uint256"
        }
      ],
      "name": "getApproved",
      "outputs": [
        {
          "internalType": "address",
          "name": "",
          "type": "address"
        }
      ],
      "stateMutability": "view",
      "type": "function",
      "constant": true
    },
    {
      "inputs": [
        {
          "internalType": "address",
          "name": "owner",
          "type": "address"
        },
        {
          "internalType": "address",
          "name": "operator",
          "type": "address"
        }
      ],
      "name": "isApprovedForAll",
      "outputs": [
        {
          "internalType": "bool",
          "name": "",
          "type": "bool"
        }
      ],
      "stateMutability": "view",
      "type": "function",
      "constant": true
    },
    {
      "inputs": [],
      "name": "name",
      "outputs": [
        {
          "internalType": "string",
          "name": "",
          "type": "string"
        }
      ],
      "stateMutability": "view",
      "type": "function",
      "constant": true
    },
    {
      "inputs": [
        {
          "internalType": "uint256",
          "name": "tokenId",
          "type": "uint256"
        }
      ],
      "name": "ownerOf",
      "outputs": [
        {
          "internalType": "address",
          "name": "",
          "type": "address"
        }
      ],
      "stateMutability": "view",
      "type": "function",
      "constant": true
    },
    {
      "inputs": [
        {
          "internalType": "uint256",
          "name": "",
          "type": "uint256"
        }
      ],
      "name": "properties",
      "outputs": [
        {
          "internalType": "string",
          "name": "name",
          "type": "string"
        },
        {
          "internalType": "string",
          "name": "description",
          "type": "string"
        },
        {
          "internalType": "uint256",
          "name": "price",
          "type": "uint256"
        },
        {
          "internalType": "bool",
          "name": "forSale",
          "type": "bool"
        },
        {
          "internalType": "string",
          "name": "imageurl",
          "type": "string"
        },
        {
          "internalType": "bool",
          "name": "verified",
          "type": "bool"
        }
      ],
      "stateMutability": "view",
      "type": "function",
      "constant": true
    },
    {
      "inputs": [
        {
          "internalType": "uint256",
          "name": "",
          "type": "uint256"
        }
      ],
      "name": "propertyToOwner",
      "outputs": [
        {
          "internalType": "address",
          "name": "",
          "type": "address"
        }
      ],
      "stateMutability": "view",
      "type": "function",
      "constant": true
    },
    {
      "inputs": [
        {
          "internalType": "uint256",
          "name": "",
          "type": "uint256"
        }
      ],
      "name": "propertyToSeller",
      "outputs": [
        {
          "internalType": "address",
          "name": "",
          "type": "address"
        }
      ],
      "stateMutability": "view",
      "type": "function",
      "constant": true
    },
    {
      "inputs": [
        {
          "internalType": "uint256",
          "name": "",
          "type": "uint256"
        }
      ],
      "name": "propertyVerificationStatus",
      "outputs": [
        {
          "internalType": "bool",
          "name": "",
          "type": "bool"
        }
      ],
      "stateMutability": "view",
      "type": "function",
      "constant": true
    },
    {
      "inputs": [
        {
          "internalType": "address",
          "name": "from",
          "type": "address"
        },
        {
          "internalType": "address",
          "name": "to",
          "type": "address"
        },
        {
          "internalType": "uint256",
          "name": "tokenId",
          "type": "uint256"
        }
      ],
      "name": "safeTransferFrom",
      "outputs": [],
      "stateMutability": "nonpayable",
      "type": "function"
    },
    {
      "inputs": [
        {
          "internalType": "address",
          "name": "from",
          "type": "address"
        },
        {
          "internalType": "address",
          "name": "to",
          "type": "address"
        },
        {
          "internalType": "uint256",
          "name": "tokenId",
          "type": "uint256"
        },
        {
          "internalType": "bytes",
          "name": "data",
          "type": "bytes"
        }
      ],
      "name": "safeTransferFrom",
      "outputs": [],
      "stateMutability": "nonpayable",
      "type": "function"
    },
    {
      "inputs": [
        {
          "internalType": "address",
          "name": "operator",
          "type": "address"
        },
        {
          "internalType": "bool",
          "name": "approved",
          "type": "bool"
        }
      ],
      "name": "setApprovalForAll",
      "outputs": [],
      "stateMutability": "nonpayable",
      "type": "function"
    },
    {
      "inputs": [
        {
          "internalType": "bytes4",
          "name": "interfaceId",
          "type": "bytes4"
        }
      ],
      "name": "supportsInterface",
      "outputs": [
        {
          "internalType": "bool",
          "name": "",
          "type": "bool"
        }
      ],
      "stateMutability": "view",
      "type": "function",
      "constant": true
    },
    {
      "inputs": [],
      "name": "symbol",
      "outputs": [
        {
          "internalType": "string",
          "name": "",
          "type": "string"
        }
      ],
      "stateMutability": "view",
      "type": "function",
      "constant": true
    },
    {
      "inputs": [
        {
          "internalType": "uint256",
          "name": "index",
          "type": "uint256"
        }
      ],
      "name": "tokenByIndex",
      "outputs": [
        {
          "internalType": "uint256",
          "name": "",
          "type": "uint256"
        }
      ],
      "stateMutability": "view",
      "type": "function",
      "constant": true
    },
    {
      "inputs": [
        {
          "internalType": "address",
          "name": "owner",
          "type": "address"
        },
        {
          "internalType": "uint256",
          "name": "index",
          "type": "uint256"
        }
      ],
      "name": "tokenOfOwnerByIndex",
      "outputs": [
        {
          "internalType": "uint256",
          "name": "",
          "type": "uint256"
        }
      ],
      "stateMutability": "view",
      "type": "function",
      "constant": true
    },
    {
      "inputs": [
        {
          "internalType": "uint256",
          "name": "tokenId",
          "type": "uint256"
        }
      ],
      "name": "tokenURI",
      "outputs": [
        {
          "internalType": "string",
          "name": "",
          "type": "string"
        }
      ],
      "stateMutability": "view",
      "type": "function",
      "constant": true
    },
    {
      "inputs": [],
      "name": "totalSupply",
      "outputs": [
        {
          "internalType": "uint256",
          "name": "",
          "type": "uint256"
        }
      ],
      "stateMutability": "view",
      "type": "function",
      "constant": true
    },
    {
      "inputs": [
        {
          "internalType": "address",
          "name": "from",
          "type": "address"
        },
        {
          "internalType": "address",
          "name": "to",
          "type": "address"
        },
        {
          "internalType": "uint256",
          "name": "tokenId",
          "type": "uint256"
        }
      ],
      "name": "transferFrom",
      "outputs": [],
      "stateMutability": "nonpayable",
      "type": "function"
    },
    {
      "inputs": [
        {
          "internalType": "string",
          "name": "_name",
          "type": "string"
        },
        {
          "internalType": "string",
          "name": "_description",
          "type": "string"
        },
        {
          "internalType": "uint256",
          "name": "_price",
          "type": "uint256"
        },
        {
          "internalType": "string",
          "name": "_imageurl",
          "type": "string"
        }
      ],
      "name": "createProperty",
      "outputs": [],
      "stateMutability": "nonpayable",
      "type": "function"
    },
    {
      "inputs": [
        {
          "internalType": "uint256",
          "name": "_propertyId",
          "type": "uint256"
        }
      ],
      "name": "getProperty",
      "outputs": [
        {
          "internalType": "string",
          "name": "name",
          "type": "string"
        },
        {
          "internalType": "string",
          "name": "description",
          "type": "string"
        },
        {
          "internalType": "uint256",
          "name": "price",
          "type": "uint256"
        },
        {
          "internalType": "address",
          "name": "owner",
          "type": "address"
        },
        {
          "internalType": "bool",
          "name": "forSale",
          "type": "bool"
        },
        {
          "internalType": "string",
          "name": "imageurl",
          "type": "string"
        },
        {
          "internalType": "bool",
          "name": "verified",
          "type": "bool"
        }
      ],
      "stateMutability": "view",
      "type": "function",
      "constant": true
    },
    {
      "inputs": [
        {
          "internalType": "uint256",
          "name": "_propertyId",
          "type": "uint256"
        }
      ],
      "name": "verifyProperty",
      "outputs": [],
      "stateMutability": "nonpayable",
      "type": "function"
    },
    {
      "inputs": [
        {
          "internalType": "uint256",
          "name": "_propertyId",
          "type": "uint256"
        },
        {
          "internalType": "string",
          "name": "name",
          "type": "string"
        }
      ],
      "name": "buyProperty",
      "outputs": [],
      "stateMutability": "payable",
      "type": "function",
      "payable": true
    },
    {
      "inputs": [
        {
          "internalType": "uint256",
          "name": "_propertyId",
          "type": "uint256"
        },
        {
          "internalType": "uint256",
          "name": "_price",
          "type": "uint256"
        }
      ],
      "name": "listPropertyForSale",
      "outputs": [],
      "stateMutability": "nonpayable",
      "type": "function"
    },
    {
      "inputs": [
        {
          "internalType": "uint256",
          "name": "_propertyId",
          "type": "uint256"
        },
        {
          "internalType": "uint256",
          "name": "_price",
          "type": "uint256"
        }
      ],
      "name": "sellProperty",
      "outputs": [],
      "stateMutability": "nonpayable",
      "type": "function"
    },
    {
      "inputs": [
        {
          "internalType": "uint256",
          "name": "_propertyId",
          "type": "uint256"
        }
      ],
      "name": "getPropertySeller",
      "outputs": [
        {
          "internalType": "address",
          "name": "",
          "type": "address"
        }
      ],
      "stateMutability": "view",
      "type": "function",
      "constant": true
    }
  ],
  "bytecode": "0x60806040523480156200001157600080fd5b506040518060400160405280600d81526020017f5265616c4573746174654e4654000000000000000000000000000000000000008152506040518060400160405280600281526020017f5245000000000000000000000000000000000000000000000000000000000000815250816000908051906020019062000096929190620000f9565b508060019080519060200190620000af929190620000f9565b50505033600b60006101000a81548173ffffffffffffffffffffffffffffffffffffffff021916908373ffffffffffffffffffffffffffffffffffffffff1602179055506200020d565b8280546200010790620001d8565b90600052602060002090601f0160209004810192826200012b576000855562000177565b82601f106200014657805160ff191683800117855562000177565b8280016001018555821562000177579182015b828111156200017657825182559160200191906001019062000159565b5b5090506200018691906200018a565b5090565b5b80821115620001a55760008160009055506001016200018b565b5090565b7f4e487b7100000000000000000000000000000000000000000000000000000000600052602260045260246000fd5b60006002820490506001821680620001f157607f821691505b602082108103620002075762000206620001a9565b5b50919050565b614552806200021d6000396000f3fe6080604052600436106101b75760003560e01c806342842e0e116100ec578063b87008a31161008a578063e985e9c511610064578063e985e9c514610683578063ed46a8cf146106c0578063f7b10808146106e9578063f851a4401461072b576101b7565b8063b87008a3146105f4578063b88d4fde1461061d578063c87b56dd14610646576101b7565b806370a08231116100c657806370a0823114610526578063934cd6831461056357806395d89b41146105a0578063a22cb465146105cb576101b7565b806342842e0e146104835780634f6ccce7146104ac5780636352211e146104e9576101b7565b80631955cf811161015957806332665ffb1161013357806332665ffb1461039d57806335c84860146103e05780633a7e1c2d1461041d5780634212a8ae1461045a576101b7565b80631955cf811461031b57806323b872dd146103375780632f745c5914610360576101b7565b8063095ea7b311610195578063095ea7b3146102615780630b56e3831461028a5780630f55415b146102c757806318160ddd146102f0576101b7565b806301ffc9a7146101bc57806306fdde03146101f9578063081812fc14610224575b600080fd5b3480156101c857600080fd5b506101e360048036038101906101de919061309a565b610756565b6040516101f091906130e2565b60405180910390f35b34801561020557600080fd5b5061020e6107d0565b60405161021b9190613196565b60405180910390f35b34801561023057600080fd5b5061024b600480360381019061024691906131ee565b610862565b604051610258919061325c565b60405180910390f35b34801561026d57600080fd5b50610288600480360381019061028391906132a3565b6108a8565b005b34801561029657600080fd5b506102b160048036038101906102ac91906131ee565b6109bf565b6040516102be919061325c565b60405180910390f35b3480156102d357600080fd5b506102ee60048036038101906102e991906132e3565b6109f2565b005b3480156102fc57600080fd5b50610305610b70565b6040516103129190613332565b60405180910390f35b61033560048036038101906103309190613482565b610b7d565b005b34801561034357600080fd5b5061035e600480360381019061035991906134de565b610dc7565b005b34801561036c57600080fd5b50610387600480360381019061038291906132a3565b610e27565b6040516103949190613332565b60405180910390f35b3480156103a957600080fd5b506103c460048036038101906103bf91906131ee565b610ecc565b6040516103d79796959493929190613531565b60405180910390f35b3480156103ec57600080fd5b50610407600480360381019061040291906131ee565b61116d565b604051610414919061325c565b60405180910390f35b34801561042957600080fd5b50610444600480360381019061043f91906131ee565b6111a0565b604051610451919061325c565b60405180910390f35b34801561046657600080fd5b50610481600480360381019061047c91906131ee565b611225565b005b34801561048f57600080fd5b506104aa60048036038101906104a591906134de565b61133e565b005b3480156104b857600080fd5b506104d360048036038101906104ce91906131ee565b61135e565b6040516104e09190613332565b60405180910390f35b3480156104f557600080fd5b50610510600480360381019061050b91906131ee565b6113cf565b60405161051d919061325c565b60405180910390f35b34801561053257600080fd5b5061054d600480360381019061054891906135b5565b611455565b60405161055a9190613332565b60405180910390f35b34801561056f57600080fd5b5061058a600480360381019061058591906131ee565b61150c565b60405161059791906130e2565b60405180910390f35b3480156105ac57600080fd5b506105b561152c565b6040516105c29190613196565b60405180910390f35b3480156105d757600080fd5b506105f260048036038101906105ed919061360e565b6115be565b005b34801561060057600080fd5b5061061b6004803603810190610616919061364e565b6115d4565b005b34801561062957600080fd5b50610644600480360381019061063f91906137aa565b611794565b005b34801561065257600080fd5b5061066d600480360381019061066891906131ee565b6117f6565b60405161067a9190613196565b60405180910390f35b34801561068f57600080fd5b506106aa60048036038101906106a5919061382d565b61185e565b6040516106b791906130e2565b60405180910390f35b3480156106cc57600080fd5b506106e760048036038101906106e291906132e3565b6118f2565b005b3480156106f557600080fd5b50610710600480360381019061070b91906131ee565b611a53565b6040516107229695949392919061386d565b60405180910390f35b34801561073757600080fd5b50610740611c51565b60405161074d919061325c565b60405180910390f35b60007f780e9d63000000000000000000000000000000000000000000000000000000007bffffffffffffffffffffffffffffffffffffffffffffffffffffffff1916827bffffffffffffffffffffffffffffffffffffffffffffffffffffffff191614806107c957506107c882611c77565b5b9050919050565b6060600080546107df90613912565b80601f016020809104026020016040519081016040528092919081815260200182805461080b90613912565b80156108585780601f1061082d57610100808354040283529160200191610858565b820191906000526020600020905b81548152906001019060200180831161083b57829003601f168201915b5050505050905090565b600061086d82611d59565b6004600083815260200190815260200160002060009054906101000a900473ffffffffffffffffffffffffffffffffffffffff169050919050565b60006108b3826113cf565b90508073ffffffffffffffffffffffffffffffffffffffff168373ffffffffffffffffffffffffffffffffffffffff1603610923576040517f08c379a000000000000000000000000000000000000000000000000000000000815260040161091a906139b5565b60405180910390fd5b8073ffffffffffffffffffffffffffffffffffffffff16610942611da4565b73ffffffffffffffffffffffffffffffffffffffff16148061097157506109708161096b611da4565b61185e565b5b6109b0576040517f08c379a00000000000000000000000000000000000000000000000000000000081526004016109a790613a47565b60405180910390fd5b6109ba8383611dac565b505050565b600c6020528060005260406000206000915054906101000a900473ffffffffffffffffffffffffffffffffffffffff1681565b6109fb82611e65565b610a3a576040517f08c379a0000000000000000000000000000000000000000000000000000000008152600401610a3190613ab3565b60405180910390fd5b3373ffffffffffffffffffffffffffffffffffffffff16610a5a836113cf565b73ffffffffffffffffffffffffffffffffffffffff1614610ab0576040517f08c379a0000000000000000000000000000000000000000000000000000000008152600401610aa790613b1f565b60405180910390fd5b6000600a8381548110610ac657610ac5613b3f565b5b9060005260206000209060060201905033600d600085815260200190815260200160002060006101000a81548173ffffffffffffffffffffffffffffffffffffffff021916908373ffffffffffffffffffffffffffffffffffffffff16021790555081816002018190555060018160030160006101000a81548160ff02191690831515021790555060008160050160006101000a81548160ff021916908315150217905550505050565b6000600880549050905090565b610b8682611e65565b610bc5576040517f08c379a0000000000000000000000000000000000000000000000000000000008152600401610bbc90613ab3565b60405180910390fd5b6000600a8381548110610bdb57610bda613b3f565b5b906000526020600020906006020190508060030160009054906101000a900460ff16610c3c576040517f08c379a0000000000000000000000000000000000000000000000000000000008152600401610c3390613bba565b60405180910390fd5b80600201543414610c82576040517f08c379a0000000000000000000000000000000000000000000000000000000008152600401610c7990613c26565b60405180910390fd5b6000610c8d846113cf565b905060008190508073ffffffffffffffffffffffffffffffffffffffff166108fc349081150290604051600060405180830381858888f19350505050158015610cda573d6000803e3d6000fd5b50610ce6823387611ea6565b83836000019080519060200190610cfe929190612f8b565b5033600c600087815260200190815260200160002060006101000a81548173ffffffffffffffffffffffffffffffffffffffff021916908373ffffffffffffffffffffffffffffffffffffffff16021790555081600d600087815260200190815260200160002060006101000a81548173ffffffffffffffffffffffffffffffffffffffff021916908373ffffffffffffffffffffffffffffffffffffffff16021790555060008360030160006101000a81548160ff0219169083151502179055505050505050565b610dd8610dd2611da4565b8261219f565b610e17576040517f08c379a0000000000000000000000000000000000000000000000000000000008152600401610e0e90613cb8565b60405180910390fd5b610e22838383611ea6565b505050565b6000610e3283611455565b8210610e73576040517f08c379a0000000000000000000000000000000000000000000000000000000008152600401610e6a90613d4a565b60405180910390fd5b600660008473ffffffffffffffffffffffffffffffffffffffff1673ffffffffffffffffffffffffffffffffffffffff168152602001908152602001600020600083815260200190815260200160002054905092915050565b606080600080600060606000610ee188611e65565b610f20576040517f08c379a0000000000000000000000000000000000000000000000000000000008152600401610f1790613ab3565b60405180910390fd5b6000600a8981548110610f3657610f35613b3f565b5b9060005260206000209060060201905080600001816001018260020154600c60008d815260200190815260200160002060009054906101000a900473ffffffffffffffffffffffffffffffffffffffff168460030160009054906101000a900460ff16856004018660050160009054906101000a900460ff16868054610fbb90613912565b80601f0160208091040260200160405190810160405280929190818152602001828054610fe790613912565b80156110345780601f1061100957610100808354040283529160200191611034565b820191906000526020600020905b81548152906001019060200180831161101757829003601f168201915b5050505050965085805461104790613912565b80601f016020809104026020016040519081016040528092919081815260200182805461107390613912565b80156110c05780601f10611095576101008083540402835291602001916110c0565b820191906000526020600020905b8154815290600101906020018083116110a357829003601f168201915b505050505095508180546110d390613912565b80601f01602080910402602001604051908101604052809291908181526020018280546110ff90613912565b801561114c5780601f106111215761010080835404028352916020019161114c565b820191906000526020600020905b81548152906001019060200180831161112f57829003601f168201915b50505050509150975097509750975097509750975050919395979092949650565b600d6020528060005260406000206000915054906101000a900473ffffffffffffffffffffffffffffffffffffffff1681565b60006111ab82611e65565b6111ea576040517f08c379a00000000000000000000000000000000000000000000000000000000081526004016111e190613ab3565b60405180910390fd5b600d600083815260200190815260200160002060009054906101000a900473ffffffffffffffffffffffffffffffffffffffff169050919050565b600b60009054906101000a900473ffffffffffffffffffffffffffffffffffffffff1673ffffffffffffffffffffffffffffffffffffffff163373ffffffffffffffffffffffffffffffffffffffff16146112b5576040517f08c379a00000000000000000000000000000000000000000000000000000000081526004016112ac90613ddc565b60405180910390fd5b6112be81611e65565b6112fd576040517f08c379a00000000000000000000000000000000000000000000000000000000081526004016112f490613ab3565b60405180910390fd5b6001600a828154811061131357611312613b3f565b5b906000526020600020906006020160050160006101000a81548160ff02191690831515021790555050565b61135983838360405180602001604052806000815250611794565b505050565b6000611368610b70565b82106113a9576040517f08c379a00000000000000000000000000000000000000000000000000000000081526004016113a090613e6e565b60405180910390fd5b600882815481106113bd576113bc613b3f565b5b90600052602060002001549050919050565b6000806113db83612234565b9050600073ffffffffffffffffffffffffffffffffffffffff168173ffffffffffffffffffffffffffffffffffffffff160361144c576040517f08c379a000000000000000000000000000000000000000000000000000000000815260040161144390613eda565b60405180910390fd5b80915050919050565b60008073ffffffffffffffffffffffffffffffffffffffff168273ffffffffffffffffffffffffffffffffffffffff16036114c5576040517f08c379a00000000000000000000000000000000000000000000000000000000081526004016114bc90613f6c565b60405180910390fd5b600360008373ffffffffffffffffffffffffffffffffffffffff1673ffffffffffffffffffffffffffffffffffffffff168152602001908152602001600020549050919050565b600e6020528060005260406000206000915054906101000a900460ff1681565b60606001805461153b90613912565b80601f016020809104026020016040519081016040528092919081815260200182805461156790613912565b80156115b45780601f10611589576101008083540402835291602001916115b4565b820191906000526020600020905b81548152906001019060200180831161159757829003601f168201915b5050505050905090565b6115d06115c9611da4565b8383612271565b5050565b6000600a805490509050600a6040518060c001604052808781526020018681526020018581526020016001151581526020018481526020016000151581525090806001815401808255809150506001900390600052602060002090600602016000909190919091506000820151816000019080519060200190611658929190612f8b565b506020820151816001019080519060200190611675929190612f8b565b506040820151816002015560608201518160030160006101000a81548160ff02191690831515021790555060808201518160040190805190602001906116bc929190612f8b565b5060a08201518160050160006101000a81548160ff02191690831515021790555050506116e933826123dd565b33600c600083815260200190815260200160002060006101000a81548173ffffffffffffffffffffffffffffffffffffffff021916908373ffffffffffffffffffffffffffffffffffffffff16021790555033600d600083815260200190815260200160002060006101000a81548173ffffffffffffffffffffffffffffffffffffffff021916908373ffffffffffffffffffffffffffffffffffffffff1602179055505050505050565b6117a561179f611da4565b8361219f565b6117e4576040517f08c379a00000000000000000000000000000000000000000000000000000000081526004016117db90613cb8565b60405180910390fd5b6117f0848484846123fb565b50505050565b606061180182611d59565b600061180b612457565b9050600081511161182b5760405180602001604052806000815250611856565b806118358461246e565b604051602001611846929190613fc8565b6040516020818303038152906040525b915050919050565b6000600560008473ffffffffffffffffffffffffffffffffffffffff1673ffffffffffffffffffffffffffffffffffffffff16815260200190815260200160002060008373ffffffffffffffffffffffffffffffffffffffff1673ffffffffffffffffffffffffffffffffffffffff16815260200190815260200160002060009054906101000a900460ff16905092915050565b6118fb82611e65565b61193a576040517f08c379a000000000000000000000000000000000000000000000000000000000815260040161193190613ab3565b60405180910390fd5b3373ffffffffffffffffffffffffffffffffffffffff1661195a836113cf565b73ffffffffffffffffffffffffffffffffffffffff16146119b0576040517f08c379a00000000000000000000000000000000000000000000000000000000081526004016119a790613b1f565b60405180910390fd5b6000600a83815481106119c6576119c5613b3f565b5b9060005260206000209060060201905081816002018190555060018160030160006101000a81548160ff02191690831515021790555033600d600085815260200190815260200160002060006101000a81548173ffffffffffffffffffffffffffffffffffffffff021916908373ffffffffffffffffffffffffffffffffffffffff160217905550505050565b600a8181548110611a6357600080fd5b9060005260206000209060060201600091509050806000018054611a8690613912565b80601f0160208091040260200160405190810160405280929190818152602001828054611ab290613912565b8015611aff5780601f10611ad457610100808354040283529160200191611aff565b820191906000526020600020905b815481529060010190602001808311611ae257829003601f168201915b505050505090806001018054611b1490613912565b80601f0160208091040260200160405190810160405280929190818152602001828054611b4090613912565b8015611b8d5780601f10611b6257610100808354040283529160200191611b8d565b820191906000526020600020905b815481529060010190602001808311611b7057829003601f168201915b5050505050908060020154908060030160009054906101000a900460ff1690806004018054611bbb90613912565b80601f0160208091040260200160405190810160405280929190818152602001828054611be790613912565b8015611c345780601f10611c0957610100808354040283529160200191611c34565b820191906000526020600020905b815481529060010190602001808311611c1757829003601f168201915b5050505050908060050160009054906101000a900460ff16905086565b600b60009054906101000a900473ffffffffffffffffffffffffffffffffffffffff1681565b60007f80ac58cd000000000000000000000000000000000000000000000000000000007bffffffffffffffffffffffffffffffffffffffffffffffffffffffff1916827bffffffffffffffffffffffffffffffffffffffffffffffffffffffff19161480611d4257507f5b5e139f000000000000000000000000000000000000000000000000000000007bffffffffffffffffffffffffffffffffffffffffffffffffffffffff1916827bffffffffffffffffffffffffffffffffffffffffffffffffffffffff1916145b80611d525750611d518261253c565b5b9050919050565b611d6281611e65565b611da1576040517f08c379a0000000000000000000000000000000000000000000000000000000008152600401611d9890613eda565b60405180910390fd5b50565b600033905090565b816004600083815260200190815260200160002060006101000a81548173ffffffffffffffffffffffffffffffffffffffff021916908373ffffffffffffffffffffffffffffffffffffffff160217905550808273ffffffffffffffffffffffffffffffffffffffff16611e1f836113cf565b73ffffffffffffffffffffffffffffffffffffffff167f8c5be1e5ebec7d5bd14f71427d1e84f3dd0314c0f7b2291e5b200ac8c7c3b92560405160405180910390a45050565b60008073ffffffffffffffffffffffffffffffffffffffff16611e8783612234565b73ffffffffffffffffffffffffffffffffffffffff1614159050919050565b8273ffffffffffffffffffffffffffffffffffffffff16611ec6826113cf565b73ffffffffffffffffffffffffffffffffffffffff1614611f1c576040517f08c379a0000000000000000000000000000000000000000000000000000000008152600401611f139061405e565b60405180910390fd5b600073ffffffffffffffffffffffffffffffffffffffff168273ffffffffffffffffffffffffffffffffffffffff1603611f8b576040517f08c379a0000000000000000000000000000000000000000000000000000000008152600401611f82906140f0565b60405180910390fd5b611f9883838360016125a6565b8273ffffffffffffffffffffffffffffffffffffffff16611fb8826113cf565b73ffffffffffffffffffffffffffffffffffffffff161461200e576040517f08c379a00000000000000000000000000000000000000000000000000000000081526004016120059061405e565b60405180910390fd5b6004600082815260200190815260200160002060006101000a81549073ffffffffffffffffffffffffffffffffffffffff02191690556001600360008573ffffffffffffffffffffffffffffffffffffffff1673ffffffffffffffffffffffffffffffffffffffff168152602001908152602001600020600082825403925050819055506001600360008473ffffffffffffffffffffffffffffffffffffffff1673ffffffffffffffffffffffffffffffffffffffff16815260200190815260200160002060008282540192505081905550816002600083815260200190815260200160002060006101000a81548173ffffffffffffffffffffffffffffffffffffffff021916908373ffffffffffffffffffffffffffffffffffffffff160217905550808273ffffffffffffffffffffffffffffffffffffffff168473ffffffffffffffffffffffffffffffffffffffff167fddf252ad1be2c89b69c2b068fc378daa952ba7f163c4a11628f55a4df523b3ef60405160405180910390a461219a8383836001612704565b505050565b6000806121ab836113cf565b90508073ffffffffffffffffffffffffffffffffffffffff168473ffffffffffffffffffffffffffffffffffffffff1614806121ed57506121ec818561185e565b5b8061222b57508373ffffffffffffffffffffffffffffffffffffffff1661221384610862565b73ffffffffffffffffffffffffffffffffffffffff16145b91505092915050565b60006002600083815260200190815260200160002060009054906101000a900473ffffffffffffffffffffffffffffffffffffffff169050919050565b8173ffffffffffffffffffffffffffffffffffffffff168373ffffffffffffffffffffffffffffffffffffffff16036122df576040517f08c379a00000000000000000000000000000000000000000000000000000000081526004016122d69061415c565b60405180910390fd5b80600560008573ffffffffffffffffffffffffffffffffffffffff1673ffffffffffffffffffffffffffffffffffffffff16815260200190815260200160002060008473ffffffffffffffffffffffffffffffffffffffff1673ffffffffffffffffffffffffffffffffffffffff16815260200190815260200160002060006101000a81548160ff0219169083151502179055508173ffffffffffffffffffffffffffffffffffffffff168373ffffffffffffffffffffffffffffffffffffffff167f17307eab39ab6107e8899845ad3d59bd9653f200f220920489ca2b5937696c31836040516123d091906130e2565b60405180910390a3505050565b6123f782826040518060200160405280600081525061270a565b5050565b612406848484611ea6565b61241284848484612765565b612451576040517f08c379a0000000000000000000000000000000000000000000000000000000008152600401612448906141ee565b60405180910390fd5b50505050565b606060405180602001604052806000815250905090565b60606000600161247d846128ec565b01905060008167ffffffffffffffff81111561249c5761249b613357565b5b6040519080825280601f01601f1916602001820160405280156124ce5781602001600182028036833780820191505090505b509050600082602001820190505b600115612531578080600190039150507f3031323334353637383961626364656600000000000000000000000000000000600a86061a8153600a85816125255761252461420e565b5b049450600085036124dc575b819350505050919050565b60007f01ffc9a7000000000000000000000000000000000000000000000000000000007bffffffffffffffffffffffffffffffffffffffffffffffffffffffff1916827bffffffffffffffffffffffffffffffffffffffffffffffffffffffff1916149050919050565b6125b284848484612a3f565b60018111156125f6576040517f08c379a00000000000000000000000000000000000000000000000000000000081526004016125ed906142af565b60405180910390fd5b6000829050600073ffffffffffffffffffffffffffffffffffffffff168573ffffffffffffffffffffffffffffffffffffffff160361263d5761263881612a45565b61267c565b8373ffffffffffffffffffffffffffffffffffffffff168573ffffffffffffffffffffffffffffffffffffffff161461267b5761267a8582612a8e565b5b5b600073ffffffffffffffffffffffffffffffffffffffff168473ffffffffffffffffffffffffffffffffffffffff16036126be576126b981612bfb565b6126fd565b8473ffffffffffffffffffffffffffffffffffffffff168473ffffffffffffffffffffffffffffffffffffffff16146126fc576126fb8482612ccc565b5b5b5050505050565b50505050565b6127148383612d4b565b6127216000848484612765565b612760576040517f08c379a0000000000000000000000000000000000000000000000000000000008152600401612757906141ee565b60405180910390fd5b505050565b60006127868473ffffffffffffffffffffffffffffffffffffffff16612f68565b156128df578373ffffffffffffffffffffffffffffffffffffffff1663150b7a026127af611da4565b8786866040518563ffffffff1660e01b81526004016127d19493929190614324565b6020604051808303816000875af192505050801561280d57506040513d601f19601f8201168201806040525081019061280a9190614385565b60015b61288f573d806000811461283d576040519150601f19603f3d011682016040523d82523d6000602084013e612842565b606091505b506000815103612887576040517f08c379a000000000000000000000000000000000000000000000000000000000815260040161287e906141ee565b60405180910390fd5b805181602001fd5b63150b7a0260e01b7bffffffffffffffffffffffffffffffffffffffffffffffffffffffff1916817bffffffffffffffffffffffffffffffffffffffffffffffffffffffff1916149150506128e4565b600190505b949350505050565b600080600090507a184f03e93ff9f4daa797ed6e38ed64bf6a1f010000000000000000831061294a577a184f03e93ff9f4daa797ed6e38ed64bf6a1f01000000000000000083816129405761293f61420e565b5b0492506040810190505b6d04ee2d6d415b85acef81000000008310612987576d04ee2d6d415b85acef8100000000838161297d5761297c61420e565b5b0492506020810190505b662386f26fc1000083106129b657662386f26fc1000083816129ac576129ab61420e565b5b0492506010810190505b6305f5e10083106129df576305f5e10083816129d5576129d461420e565b5b0492506008810190505b6127108310612a045761271083816129fa576129f961420e565b5b0492506004810190505b60648310612a275760648381612a1d57612a1c61420e565b5b0492506002810190505b600a8310612a36576001810190505b80915050919050565b50505050565b6008805490506009600083815260200190815260200160002081905550600881908060018154018082558091505060019003906000526020600020016000909190919091505550565b60006001612a9b84611455565b612aa591906143e1565b9050600060076000848152602001908152602001600020549050818114612b8a576000600660008673ffffffffffffffffffffffffffffffffffffffff1673ffffffffffffffffffffffffffffffffffffffff168152602001908152602001600020600084815260200190815260200160002054905080600660008773ffffffffffffffffffffffffffffffffffffffff1673ffffffffffffffffffffffffffffffffffffffff168152602001908152602001600020600084815260200190815260200160002081905550816007600083815260200190815260200160002081905550505b6007600084815260200190815260200160002060009055600660008573ffffffffffffffffffffffffffffffffffffffff1673ffffffffffffffffffffffffffffffffffffffff16815260200190815260200160002060008381526020019081526020016000206000905550505050565b60006001600880549050612c0f91906143e1565b9050600060096000848152602001908152602001600020549050600060088381548110612c3f57612c3e613b3f565b5b906000526020600020015490508060088381548110612c6157612c60613b3f565b5b906000526020600020018190555081600960008381526020019081526020016000208190555060096000858152602001908152602001600020600090556008805480612cb057612caf614415565b5b6001900381819060005260206000200160009055905550505050565b6000612cd783611455565b905081600660008573ffffffffffffffffffffffffffffffffffffffff1673ffffffffffffffffffffffffffffffffffffffff168152602001908152602001600020600083815260200190815260200160002081905550806007600084815260200190815260200160002081905550505050565b600073ffffffffffffffffffffffffffffffffffffffff168273ffffffffffffffffffffffffffffffffffffffff1603612dba576040517f08c379a0000000000000000000000000000000000000000000000000000000008152600401612db190614490565b60405180910390fd5b612dc381611e65565b15612e03576040517f08c379a0000000000000000000000000000000000000000000000000000000008152600401612dfa906144fc565b60405180910390fd5b612e116000838360016125a6565b612e1a81611e65565b15612e5a576040517f08c379a0000000000000000000000000000000000000000000000000000000008152600401612e51906144fc565b60405180910390fd5b6001600360008473ffffffffffffffffffffffffffffffffffffffff1673ffffffffffffffffffffffffffffffffffffffff16815260200190815260200160002060008282540192505081905550816002600083815260200190815260200160002060006101000a81548173ffffffffffffffffffffffffffffffffffffffff021916908373ffffffffffffffffffffffffffffffffffffffff160217905550808273ffffffffffffffffffffffffffffffffffffffff16600073ffffffffffffffffffffffffffffffffffffffff167fddf252ad1be2c89b69c2b068fc378daa952ba7f163c4a11628f55a4df523b3ef60405160405180910390a4612f64600083836001612704565b5050565b6000808273ffffffffffffffffffffffffffffffffffffffff163b119050919050565b828054612f9790613912565b90600052602060002090601f016020900481019282612fb95760008555613000565b82601f10612fd257805160ff1916838001178555613000565b82800160010185558215613000579182015b82811115612fff578251825591602001919060010190612fe4565b5b50905061300d9190613011565b5090565b5b8082111561302a576000816000905550600101613012565b5090565b6000604051905090565b600080fd5b600080fd5b60007fffffffff0000000000000000000000000000000000000000000000000000000082169050919050565b61307781613042565b811461308257600080fd5b50565b6000813590506130948161306e565b92915050565b6000602082840312156130b0576130af613038565b5b60006130be84828501613085565b91505092915050565b60008115159050919050565b6130dc816130c7565b82525050565b60006020820190506130f760008301846130d3565b92915050565b600081519050919050565b600082825260208201905092915050565b60005b8381101561313757808201518184015260208101905061311c565b83811115613146576000848401525b50505050565b6000601f19601f8301169050919050565b6000613168826130fd565b6131728185613108565b9350613182818560208601613119565b61318b8161314c565b840191505092915050565b600060208201905081810360008301526131b0818461315d565b905092915050565b6000819050919050565b6131cb816131b8565b81146131d657600080fd5b50565b6000813590506131e8816131c2565b92915050565b60006020828403121561320457613203613038565b5b6000613212848285016131d9565b91505092915050565b600073ffffffffffffffffffffffffffffffffffffffff82169050919050565b60006132468261321b565b9050919050565b6132568161323b565b82525050565b6000602082019050613271600083018461324d565b92915050565b6132808161323b565b811461328b57600080fd5b50565b60008135905061329d81613277565b92915050565b600080604083850312156132ba576132b9613038565b5b60006132c88582860161328e565b92505060206132d9858286016131d9565b9150509250929050565b600080604083850312156132fa576132f9613038565b5b6000613308858286016131d9565b9250506020613319858286016131d9565b9150509250929050565b61332c816131b8565b82525050565b60006020820190506133476000830184613323565b92915050565b600080fd5b600080fd5b7f4e487b7100000000000000000000000000000000000000000000000000000000600052604160045260246000fd5b61338f8261314c565b810181811067ffffffffffffffff821117156133ae576133ad613357565b5b80604052505050565b60006133c161302e565b90506133cd8282613386565b919050565b600067ffffffffffffffff8211156133ed576133ec613357565b5b6133f68261314c565b9050602081019050919050565b82818337600083830152505050565b6000613425613420846133d2565b6133b7565b90508281526020810184848401111561344157613440613352565b5b61344c848285613403565b509392505050565b600082601f8301126134695761346861334d565b5b8135613479848260208601613412565b91505092915050565b6000806040838503121561349957613498613038565b5b60006134a7858286016131d9565b925050602083013567ffffffffffffffff8111156134c8576134c761303d565b5b6134d485828601613454565b9150509250929050565b6000806000606084860312156134f7576134f6613038565b5b60006135058682870161328e565b93505060206135168682870161328e565b9250506040613527868287016131d9565b9150509250925092565b600060e082019050818103600083015261354b818a61315d565b9050818103602083015261355f818961315d565b905061356e6040830188613323565b61357b606083018761324d565b61358860808301866130d3565b81810360a083015261359a818561315d565b90506135a960c08301846130d3565b98975050505050505050565b6000602082840312156135cb576135ca613038565b5b60006135d98482850161328e565b91505092915050565b6135eb816130c7565b81146135f657600080fd5b50565b600081359050613608816135e2565b92915050565b6000806040838503121561362557613624613038565b5b60006136338582860161328e565b9250506020613644858286016135f9565b9150509250929050565b6000806000806080858703121561366857613667613038565b5b600085013567ffffffffffffffff8111156136865761368561303d565b5b61369287828801613454565b945050602085013567ffffffffffffffff8111156136b3576136b261303d565b5b6136bf87828801613454565b93505060406136d0878288016131d9565b925050606085013567ffffffffffffffff8111156136f1576136f061303d565b5b6136fd87828801613454565b91505092959194509250565b600067ffffffffffffffff82111561372457613723613357565b5b61372d8261314c565b9050602081019050919050565b600061374d61374884613709565b6133b7565b90508281526020810184848401111561376957613768613352565b5b613774848285613403565b509392505050565b600082601f8301126137915761379061334d565b5b81356137a184826020860161373a565b91505092915050565b600080600080608085870312156137c4576137c3613038565b5b60006137d28782880161328e565b94505060206137e38782880161328e565b93505060406137f4878288016131d9565b925050606085013567ffffffffffffffff8111156138155761381461303d565b5b6138218782880161377c565b91505092959194509250565b6000806040838503121561384457613843613038565b5b60006138528582860161328e565b92505060206138638582860161328e565b9150509250929050565b600060c0820190508181036000830152613887818961315d565b9050818103602083015261389b818861315d565b90506138aa6040830187613323565b6138b760608301866130d3565b81810360808301526138c9818561315d565b90506138d860a08301846130d3565b979650505050505050565b7f4e487b7100000000000000000000000000000000000000000000000000000000600052602260045260246000fd5b6000600282049050600182168061392a57607f821691505b60208210810361393d5761393c6138e3565b5b50919050565b7f4552433732313a20617070726f76616c20746f2063757272656e74206f776e6560008201527f7200000000000000000000000000000000000000000000000000000000000000602082015250565b600061399f602183613108565b91506139aa82613943565b604082019050919050565b600060208201905081810360008301526139ce81613992565b9050919050565b7f4552433732313a20617070726f76652063616c6c6572206973206e6f7420746f60008201527f6b656e206f776e6572206f7220617070726f76656420666f7220616c6c000000602082015250565b6000613a31603d83613108565b9150613a3c826139d5565b604082019050919050565b60006020820190508181036000830152613a6081613a24565b9050919050565b7f50726f706572747920646f6573206e6f74206578697374000000000000000000600082015250565b6000613a9d601783613108565b9150613aa882613a67565b602082019050919050565b60006020820190508181036000830152613acc81613a90565b9050919050565b7f4e6f74207468652070726f7065727479206f776e657200000000000000000000600082015250565b6000613b09601683613108565b9150613b1482613ad3565b602082019050919050565b60006020820190508181036000830152613b3881613afc565b9050919050565b7f4e487b7100000000000000000000000000000000000000000000000000000000600052603260045260246000fd5b7f50726f7065727479206973206e6f7420666f722073616c650000000000000000600082015250565b6000613ba4601883613108565b9150613baf82613b6e565b602082019050919050565b60006020820190508181036000830152613bd381613b97565b9050919050565b7f496e636f7272656374207061796d656e7420616d6f756e740000000000000000600082015250565b6000613c10601883613108565b9150613c1b82613bda565b602082019050919050565b60006020820190508181036000830152613c3f81613c03565b9050919050565b7f4552433732313a2063616c6c6572206973206e6f7420746f6b656e206f776e6560008201527f72206f7220617070726f76656400000000000000000000000000000000000000602082015250565b6000613ca2602d83613108565b9150613cad82613c46565b604082019050919050565b60006020820190508181036000830152613cd181613c95565b9050919050565b7f455243373231456e756d657261626c653a206f776e657220696e646578206f7560008201527f74206f6620626f756e6473000000000000000000000000000000000000000000602082015250565b6000613d34602b83613108565b9150613d3f82613cd8565b604082019050919050565b60006020820190508181036000830152613d6381613d27565b9050919050565b7f4f6e6c79207468652076657269666965722063616e20706572666f726d20746860008201527f697320616374696f6e0000000000000000000000000000000000000000000000602082015250565b6000613dc6602983613108565b9150613dd182613d6a565b604082019050919050565b60006020820190508181036000830152613df581613db9565b9050919050565b7f455243373231456e756d657261626c653a20676c6f62616c20696e646578206f60008201527f7574206f6620626f756e64730000000000000000000000000000000000000000602082015250565b6000613e58602c83613108565b9150613e6382613dfc565b604082019050919050565b60006020820190508181036000830152613e8781613e4b565b9050919050565b7f4552433732313a20696e76616c696420746f6b656e2049440000000000000000600082015250565b6000613ec4601883613108565b9150613ecf82613e8e565b602082019050919050565b60006020820190508181036000830152613ef381613eb7565b9050919050565b7f4552433732313a2061646472657373207a65726f206973206e6f74206120766160008201527f6c6964206f776e65720000000000000000000000000000000000000000000000602082015250565b6000613f56602983613108565b9150613f6182613efa565b604082019050919050565b60006020820190508181036000830152613f8581613f49565b9050919050565b600081905092915050565b6000613fa2826130fd565b613fac8185613f8c565b9350613fbc818560208601613119565b80840191505092915050565b6000613fd48285613f97565b9150613fe08284613f97565b91508190509392505050565b7f4552433732313a207472616e736665722066726f6d20696e636f72726563742060008201527f6f776e6572000000000000000000000000000000000000000000000000000000602082015250565b6000614048602583613108565b915061405382613fec565b604082019050919050565b600060208201905081810360008301526140778161403b565b9050919050565b7f4552433732313a207472616e7366657220746f20746865207a65726f2061646460008201527f7265737300000000000000000000000000000000000000000000000000000000602082015250565b60006140da602483613108565b91506140e58261407e565b604082019050919050565b60006020820190508181036000830152614109816140cd565b9050919050565b7f4552433732313a20617070726f766520746f2063616c6c657200000000000000600082015250565b6000614146601983613108565b915061415182614110565b602082019050919050565b6000602082019050818103600083015261417581614139565b9050919050565b7f4552433732313a207472616e7366657220746f206e6f6e20455243373231526560008201527f63656976657220696d706c656d656e7465720000000000000000000000000000602082015250565b60006141d8603283613108565b91506141e38261417c565b604082019050919050565b60006020820190508181036000830152614207816141cb565b9050919050565b7f4e487b7100000000000000000000000000000000000000000000000000000000600052601260045260246000fd5b7f455243373231456e756d657261626c653a20636f6e736563757469766520747260008201527f616e7366657273206e6f7420737570706f727465640000000000000000000000602082015250565b6000614299603583613108565b91506142a48261423d565b604082019050919050565b600060208201905081810360008301526142c88161428c565b9050919050565b600081519050919050565b600082825260208201905092915050565b60006142f6826142cf565b61430081856142da565b9350614310818560208601613119565b6143198161314c565b840191505092915050565b6000608082019050614339600083018761324d565b614346602083018661324d565b6143536040830185613323565b818103606083015261436581846142eb565b905095945050505050565b60008151905061437f8161306e565b92915050565b60006020828403121561439b5761439a613038565b5b60006143a984828501614370565b91505092915050565b7f4e487b7100000000000000000000000000000000000000000000000000000000600052601160045260246000fd5b60006143ec826131b8565b91506143f7836131b8565b92508282101561440a576144096143b2565b5b828203905092915050565b7f4e487b7100000000000000000000000000000000000000000000000000000000600052603160045260246000fd5b7f4552433732313a206d696e7420746f20746865207a65726f2061646472657373600082015250565b600061447a602083613108565b915061448582614444565b602082019050919050565b600060208201905081810360008301526144a98161446d565b9050919050565b7f4552433732313a20746f6b656e20616c7265616479206d696e74656400000000600082015250565b60006144e6601c83613108565b91506144f1826144b0565b602082019050919050565b60006020820190508181036000830152614515816144d9565b905091905056fea2646970667358221220c6832789875928f8ba4b295208d9ac450859a52348eaedfe23e9919bc6706b8364736f6c634300080d0033",
  "immutableReferences": {},
  "source": "// SPDX-License-Identifier: MIT\npragma solidity ^0.8.0;\n\nimport \"@openzeppelin/contracts/token/ERC721/extensions/ERC721Enumerable.sol\";\n\ncontract RealEstateMarketplace is ERC721Enumerable {\n    struct Property {\n        string name;\n        string description;\n        uint256 price;\n        bool forSale;\n        string imageurl;\n        bool verified;\n    }\n\n    Property[] public properties;\n    address public admin;\n\n    mapping(uint256 => address) public propertyToOwner;\n    mapping(uint256 => address) public propertyToSeller;\n    mapping(uint256 => bool) public propertyVerificationStatus;\n\n\n    constructor() ERC721(\"RealEstateNFT\", \"RE\") {\n        admin = msg.sender;\n    }\n\n    modifier onlyVerifier() {\n    require(msg.sender == admin, \"Only the verifier can perform this action\");\n    _;\n}\n\n    function createProperty(\n        string memory _name,\n        string memory _description,\n        uint256 _price,\n        string memory _imageurl\n    ) external {\n        uint256 propertyId = properties.length;\n        properties.push(Property(_name, _description, _price, true, _imageurl, false));\n        _safeMint(msg.sender, propertyId);\n        propertyToOwner[propertyId] = msg.sender;\n        propertyToSeller[propertyId] = msg.sender;\n    }\n\n    function getProperty(uint256 _propertyId)\n        external\n        view\n        returns (\n            string memory name,\n            string memory description,\n            uint256 price,\n            address owner,\n            bool forSale,\n            string memory imageurl,\n            bool verified\n        )\n    {\n        require(_exists(_propertyId), \"Property does not exist\");\n        Property storage property = properties[_propertyId];\n        return (\n            property.name,\n            property.description,\n            property.price,\n            propertyToOwner[_propertyId],\n            property.forSale,\n            property.imageurl,\n            property.verified\n        );\n    }\n\n    function verifyProperty(uint256 _propertyId) external onlyVerifier {\n    require(_exists(_propertyId), \"Property does not exist\");\n    properties[_propertyId].verified = true; // Set verified status to true after successful verification\n    }\n\n    function buyProperty(uint256 _propertyId, string memory name) external payable {\n        require(_exists(_propertyId), \"Property does not exist\");\n        Property storage property = properties[_propertyId];\n        require(property.forSale, \"Property is not for sale\");\n        require(msg.value == property.price, \"Incorrect payment amount\");\n\n        address propertyOwner = ownerOf(_propertyId);\n        address payable seller = payable(propertyOwner);\n        seller.transfer(msg.value);\n        _transfer(propertyOwner, msg.sender, _propertyId);\n        property.name = name;\n        propertyToOwner[_propertyId] = msg.sender;\n        propertyToSeller[_propertyId] = propertyOwner;\n        property.forSale = false;\n    }\n\n    function listPropertyForSale(uint256 _propertyId, uint256 _price) external {\n        require(_exists(_propertyId), \"Property does not exist\");\n        require(ownerOf(_propertyId) == msg.sender, \"Not the property owner\");\n        Property storage property = properties[_propertyId];\n        propertyToSeller[_propertyId] = msg.sender;\n        property.price = _price;\n        property.forSale = true;\n        property.verified = false;\n    }\n\n    function sellProperty(uint256 _propertyId, uint256 _price) external {\n        require(_exists(_propertyId), \"Property does not exist\");\n        require(ownerOf(_propertyId) == msg.sender, \"Not the property owner\");\n        Property storage property = properties[_propertyId];\n        property.price = _price;\n        property.forSale = true;\n        propertyToSeller[_propertyId] = msg.sender;\n    }\n\n    function getPropertySeller(uint256 _propertyId) external view returns (address) {\n        require(_exists(_propertyId), \"Property does not exist\");\n        return propertyToSeller[_propertyId];\n    }\n}\n",
  "sourcePath": "/home/bharat/Desktop/Thesis/RealEstate_dapp/contracts/restate.sol",
  "compiler": {
    "name": "solc",
    "version": "0.8.13+commit.abaa5c0e.Emscripten.clang"
  },
  "schemaVersion": "3.4.14",
  "updatedAt": "2023-05-27T06:39:17.377Z",
  "networkType": "ethereum",
  "devdoc": {
    "kind": "dev",
    "methods": {
      "approve(address,uint256)": {
        "details": "See {IERC721-approve}."
      },
      "balanceOf(address)": {
        "details": "See {IERC721-balanceOf}."
      },
      "getApproved(uint256)": {
        "details": "See {IERC721-getApproved}."
      },
      "isApprovedForAll(address,address)": {
        "details": "See {IERC721-isApprovedForAll}."
      },
      "name()": {
        "details": "See {IERC721Metadata-name}."
      },
      "ownerOf(uint256)": {
        "details": "See {IERC721-ownerOf}."
      },
      "safeTransferFrom(address,address,uint256)": {
        "details": "See {IERC721-safeTransferFrom}."
      },
      "safeTransferFrom(address,address,uint256,bytes)": {
        "details": "See {IERC721-safeTransferFrom}."
      },
      "setApprovalForAll(address,bool)": {
        "details": "See {IERC721-setApprovalForAll}."
      },
      "supportsInterface(bytes4)": {
        "details": "See {IERC165-supportsInterface}."
      },
      "symbol()": {
        "details": "See {IERC721Metadata-symbol}."
      },
      "tokenByIndex(uint256)": {
        "details": "See {IERC721Enumerable-tokenByIndex}."
      },
      "tokenOfOwnerByIndex(address,uint256)": {
        "details": "See {IERC721Enumerable-tokenOfOwnerByIndex}."
      },
      "tokenURI(uint256)": {
        "details": "See {IERC721Metadata-tokenURI}."
      },
      "totalSupply()": {
        "details": "See {IERC721Enumerable-totalSupply}."
      },
      "transferFrom(address,address,uint256)": {
        "details": "See {IERC721-transferFrom}."
      }
    },
    "version": 1
  },
  "userdoc": {
    "kind": "user",
    "methods": {},
    "version": 1
  }
}