{
  "contractName": "RealEstateMarketplace",
  "abi": [
    {
      "inputs": [],
      "stateMutability": "nonpayable",
      "type": "constructor"
    },
    {
      "anonymous": false,
      "inputs": [
        {
          "indexed": true,
          "internalType": "address",
          "name": "owner",
          "type": "address"
        },
        {
          "indexed": true,
          "internalType": "address",
          "name": "approved",
          "type": "address"
        },
        {
          "indexed": true,
          "internalType": "uint256",
          "name": "tokenId",
          "type": "uint256"
        }
      ],
      "name": "Approval",
      "type": "event"
    },
    {
      "anonymous": false,
      "inputs": [
        {
          "indexed": true,
          "internalType": "address",
          "name": "owner",
          "type": "address"
        },
        {
          "indexed": true,
          "internalType": "address",
          "name": "operator",
          "type": "address"
        },
        {
          "indexed": false,
          "internalType": "bool",
          "name": "approved",
          "type": "bool"
        }
      ],
      "name": "ApprovalForAll",
      "type": "event"
    },
    {
      "anonymous": false,
      "inputs": [
        {
          "indexed": true,
          "internalType": "address",
          "name": "from",
          "type": "address"
        },
        {
          "indexed": true,
          "internalType": "address",
          "name": "to",
          "type": "address"
        },
        {
          "indexed": true,
          "internalType": "uint256",
          "name": "tokenId",
          "type": "uint256"
        }
      ],
      "name": "Transfer",
      "type": "event"
    },
    {
      "inputs": [
        {
          "internalType": "address",
          "name": "to",
          "type": "address"
        },
        {
          "internalType": "uint256",
          "name": "tokenId",
          "type": "uint256"
        }
      ],
      "name": "approve",
      "outputs": [],
      "stateMutability": "nonpayable",
      "type": "function"
    },
    {
      "inputs": [
        {
          "internalType": "address",
          "name": "owner",
          "type": "address"
        }
      ],
      "name": "balanceOf",
      "outputs": [
        {
          "internalType": "uint256",
          "name": "",
          "type": "uint256"
        }
      ],
      "stateMutability": "view",
      "type": "function",
      "constant": true
    },
    {
      "inputs": [
        {
          "internalType": "uint256",
          "name": "tokenId",
          "type": "uint256"
        }
      ],
      "name": "getApproved",
      "outputs": [
        {
          "internalType": "address",
          "name": "",
          "type": "address"
        }
      ],
      "stateMutability": "view",
      "type": "function",
      "constant": true
    },
    {
      "inputs": [
        {
          "internalType": "address",
          "name": "owner",
          "type": "address"
        },
        {
          "internalType": "address",
          "name": "operator",
          "type": "address"
        }
      ],
      "name": "isApprovedForAll",
      "outputs": [
        {
          "internalType": "bool",
          "name": "",
          "type": "bool"
        }
      ],
      "stateMutability": "view",
      "type": "function",
      "constant": true
    },
    {
      "inputs": [],
      "name": "name",
      "outputs": [
        {
          "internalType": "string",
          "name": "",
          "type": "string"
        }
      ],
      "stateMutability": "view",
      "type": "function",
      "constant": true
    },
    {
      "inputs": [
        {
          "internalType": "uint256",
          "name": "tokenId",
          "type": "uint256"
        }
      ],
      "name": "ownerOf",
      "outputs": [
        {
          "internalType": "address",
          "name": "",
          "type": "address"
        }
      ],
      "stateMutability": "view",
      "type": "function",
      "constant": true
    },
    {
      "inputs": [
        {
          "internalType": "uint256",
          "name": "",
          "type": "uint256"
        }
      ],
      "name": "properties",
      "outputs": [
        {
          "internalType": "string",
          "name": "name",
          "type": "string"
        },
        {
          "internalType": "string",
          "name": "description",
          "type": "string"
        },
        {
          "internalType": "uint256",
          "name": "price",
          "type": "uint256"
        },
        {
          "internalType": "bool",
          "name": "forSale",
          "type": "bool"
        }
      ],
      "stateMutability": "view",
      "type": "function",
      "constant": true
    },
    {
      "inputs": [
        {
          "internalType": "uint256",
          "name": "",
          "type": "uint256"
        }
      ],
      "name": "propertyToOwner",
      "outputs": [
        {
          "internalType": "address",
          "name": "",
          "type": "address"
        }
      ],
      "stateMutability": "view",
      "type": "function",
      "constant": true
    },
    {
      "inputs": [
        {
          "internalType": "uint256",
          "name": "",
          "type": "uint256"
        }
      ],
      "name": "propertyToSeller",
      "outputs": [
        {
          "internalType": "address",
          "name": "",
          "type": "address"
        }
      ],
      "stateMutability": "view",
      "type": "function",
      "constant": true
    },
    {
      "inputs": [
        {
          "internalType": "address",
          "name": "from",
          "type": "address"
        },
        {
          "internalType": "address",
          "name": "to",
          "type": "address"
        },
        {
          "internalType": "uint256",
          "name": "tokenId",
          "type": "uint256"
        }
      ],
      "name": "safeTransferFrom",
      "outputs": [],
      "stateMutability": "nonpayable",
      "type": "function"
    },
    {
      "inputs": [
        {
          "internalType": "address",
          "name": "from",
          "type": "address"
        },
        {
          "internalType": "address",
          "name": "to",
          "type": "address"
        },
        {
          "internalType": "uint256",
          "name": "tokenId",
          "type": "uint256"
        },
        {
          "internalType": "bytes",
          "name": "data",
          "type": "bytes"
        }
      ],
      "name": "safeTransferFrom",
      "outputs": [],
      "stateMutability": "nonpayable",
      "type": "function"
    },
    {
      "inputs": [
        {
          "internalType": "address",
          "name": "operator",
          "type": "address"
        },
        {
          "internalType": "bool",
          "name": "approved",
          "type": "bool"
        }
      ],
      "name": "setApprovalForAll",
      "outputs": [],
      "stateMutability": "nonpayable",
      "type": "function"
    },
    {
      "inputs": [
        {
          "internalType": "bytes4",
          "name": "interfaceId",
          "type": "bytes4"
        }
      ],
      "name": "supportsInterface",
      "outputs": [
        {
          "internalType": "bool",
          "name": "",
          "type": "bool"
        }
      ],
      "stateMutability": "view",
      "type": "function",
      "constant": true
    },
    {
      "inputs": [],
      "name": "symbol",
      "outputs": [
        {
          "internalType": "string",
          "name": "",
          "type": "string"
        }
      ],
      "stateMutability": "view",
      "type": "function",
      "constant": true
    },
    {
      "inputs": [
        {
          "internalType": "uint256",
          "name": "index",
          "type": "uint256"
        }
      ],
      "name": "tokenByIndex",
      "outputs": [
        {
          "internalType": "uint256",
          "name": "",
          "type": "uint256"
        }
      ],
      "stateMutability": "view",
      "type": "function",
      "constant": true
    },
    {
      "inputs": [
        {
          "internalType": "address",
          "name": "owner",
          "type": "address"
        },
        {
          "internalType": "uint256",
          "name": "index",
          "type": "uint256"
        }
      ],
      "name": "tokenOfOwnerByIndex",
      "outputs": [
        {
          "internalType": "uint256",
          "name": "",
          "type": "uint256"
        }
      ],
      "stateMutability": "view",
      "type": "function",
      "constant": true
    },
    {
      "inputs": [
        {
          "internalType": "uint256",
          "name": "tokenId",
          "type": "uint256"
        }
      ],
      "name": "tokenURI",
      "outputs": [
        {
          "internalType": "string",
          "name": "",
          "type": "string"
        }
      ],
      "stateMutability": "view",
      "type": "function",
      "constant": true
    },
    {
      "inputs": [],
      "name": "totalSupply",
      "outputs": [
        {
          "internalType": "uint256",
          "name": "",
          "type": "uint256"
        }
      ],
      "stateMutability": "view",
      "type": "function",
      "constant": true
    },
    {
      "inputs": [
        {
          "internalType": "address",
          "name": "from",
          "type": "address"
        },
        {
          "internalType": "address",
          "name": "to",
          "type": "address"
        },
        {
          "internalType": "uint256",
          "name": "tokenId",
          "type": "uint256"
        }
      ],
      "name": "transferFrom",
      "outputs": [],
      "stateMutability": "nonpayable",
      "type": "function"
    },
    {
      "inputs": [
        {
          "internalType": "string",
          "name": "_name",
          "type": "string"
        },
        {
          "internalType": "string",
          "name": "_description",
          "type": "string"
        },
        {
          "internalType": "uint256",
          "name": "_price",
          "type": "uint256"
        }
      ],
      "name": "createProperty",
      "outputs": [],
      "stateMutability": "nonpayable",
      "type": "function"
    },
    {
      "inputs": [
        {
          "internalType": "uint256",
          "name": "_propertyId",
          "type": "uint256"
        }
      ],
      "name": "getProperty",
      "outputs": [
        {
          "internalType": "string",
          "name": "name",
          "type": "string"
        },
        {
          "internalType": "string",
          "name": "description",
          "type": "string"
        },
        {
          "internalType": "uint256",
          "name": "price",
          "type": "uint256"
        },
        {
          "internalType": "address",
          "name": "owner",
          "type": "address"
        },
        {
          "internalType": "bool",
          "name": "forSale",
          "type": "bool"
        }
      ],
      "stateMutability": "view",
      "type": "function",
      "constant": true
    },
    {
      "inputs": [
        {
          "internalType": "uint256",
          "name": "_propertyId",
          "type": "uint256"
        },
        {
          "internalType": "string",
          "name": "name",
          "type": "string"
        }
      ],
      "name": "buyProperty",
      "outputs": [],
      "stateMutability": "payable",
      "type": "function",
      "payable": true
    },
    {
      "inputs": [
        {
          "internalType": "uint256",
          "name": "_propertyId",
          "type": "uint256"
        },
        {
          "internalType": "uint256",
          "name": "_price",
          "type": "uint256"
        }
      ],
      "name": "listPropertyForSale",
      "outputs": [],
      "stateMutability": "nonpayable",
      "type": "function"
    },
    {
      "inputs": [
        {
          "internalType": "uint256",
          "name": "_propertyId",
          "type": "uint256"
        },
        {
          "internalType": "uint256",
          "name": "_price",
          "type": "uint256"
        }
      ],
      "name": "sellProperty",
      "outputs": [],
      "stateMutability": "nonpayable",
      "type": "function"
    },
    {
      "inputs": [
        {
          "internalType": "uint256",
          "name": "_propertyId",
          "type": "uint256"
        }
      ],
      "name": "getPropertySeller",
      "outputs": [
        {
          "internalType": "address",
          "name": "",
          "type": "address"
        }
      ],
      "stateMutability": "view",
      "type": "function",
      "constant": true
    }
  ],
  "bytecode": "0x60806040523480156200001157600080fd5b506040518060400160405280600d81526020017f5265616c4573746174654e4654000000000000000000000000000000000000008152506040518060400160405280600281526020017f5245000000000000000000000000000000000000000000000000000000000000815250816000908051906020019062000096929190620000b8565b508060019080519060200190620000af929190620000b8565b505050620001cc565b828054620000c69062000197565b90600052602060002090601f016020900481019282620000ea576000855562000136565b82601f106200010557805160ff191683800117855562000136565b8280016001018555821562000136579182015b828111156200013557825182559160200191906001019062000118565b5b50905062000145919062000149565b5090565b5b80821115620001645760008160009055506001016200014a565b5090565b7f4e487b7100000000000000000000000000000000000000000000000000000000600052602260045260246000fd5b60006002820490506001821680620001b057607f821691505b602082108103620001c657620001c562000168565b5b50919050565b61404e80620001dc6000396000f3fe6080604052600436106101665760003560e01c806335c84860116100d157806395d89b411161008a578063c87b56dd11610064578063c87b56dd1461058d578063e985e9c5146105ca578063ed46a8cf14610607578063f7b108081461063057610166565b806395d89b4114610510578063a22cb4651461053b578063b88d4fde1461056457610166565b806335c84860146103b65780633a7e1c2d146103f357806342842e0e146104305780634f6ccce7146104595780636352211e1461049657806370a08231146104d357610166565b806318160ddd1161012357806318160ddd1461029f5780631955cf81146102ca57806323b872dd146102e657806324e9b5121461030f5780632f745c591461033857806332665ffb1461037557610166565b806301ffc9a71461016b57806306fdde03146101a8578063081812fc146101d3578063095ea7b3146102105780630b56e383146102395780630f55415b14610276575b600080fd5b34801561017757600080fd5b50610192600480360381019061018d9190612c9e565b610670565b60405161019f9190612ce6565b60405180910390f35b3480156101b457600080fd5b506101bd6106ea565b6040516101ca9190612d9a565b60405180910390f35b3480156101df57600080fd5b506101fa60048036038101906101f59190612df2565b61077c565b6040516102079190612e60565b60405180910390f35b34801561021c57600080fd5b5061023760048036038101906102329190612ea7565b6107c2565b005b34801561024557600080fd5b50610260600480360381019061025b9190612df2565b6108d9565b60405161026d9190612e60565b60405180910390f35b34801561028257600080fd5b5061029d60048036038101906102989190612ee7565b61090c565b005b3480156102ab57600080fd5b506102b4610a6d565b6040516102c19190612f36565b60405180910390f35b6102e460048036038101906102df9190613086565b610a7a565b005b3480156102f257600080fd5b5061030d600480360381019061030891906130e2565b610cc4565b005b34801561031b57600080fd5b5061033660048036038101906103319190613135565b610d24565b005b34801561034457600080fd5b5061035f600480360381019061035a9190612ea7565b610e97565b60405161036c9190612f36565b60405180910390f35b34801561038157600080fd5b5061039c60048036038101906103979190612df2565b610f3c565b6040516103ad9594939291906131c0565b60405180910390f35b3480156103c257600080fd5b506103dd60048036038101906103d89190612df2565b611131565b6040516103ea9190612e60565b60405180910390f35b3480156103ff57600080fd5b5061041a60048036038101906104159190612df2565b611164565b6040516104279190612e60565b60405180910390f35b34801561043c57600080fd5b50610457600480360381019061045291906130e2565b6111e9565b005b34801561046557600080fd5b50610480600480360381019061047b9190612df2565b611209565b60405161048d9190612f36565b60405180910390f35b3480156104a257600080fd5b506104bd60048036038101906104b89190612df2565b61127a565b6040516104ca9190612e60565b60405180910390f35b3480156104df57600080fd5b506104fa60048036038101906104f59190613221565b611300565b6040516105079190612f36565b60405180910390f35b34801561051c57600080fd5b506105256113b7565b6040516105329190612d9a565b60405180910390f35b34801561054757600080fd5b50610562600480360381019061055d919061327a565b611449565b005b34801561057057600080fd5b5061058b6004803603810190610586919061335b565b61145f565b005b34801561059957600080fd5b506105b460048036038101906105af9190612df2565b6114c1565b6040516105c19190612d9a565b60405180910390f35b3480156105d657600080fd5b506105f160048036038101906105ec91906133de565b611529565b6040516105fe9190612ce6565b60405180910390f35b34801561061357600080fd5b5061062e60048036038101906106299190612ee7565b6115bd565b005b34801561063c57600080fd5b5061065760048036038101906106529190612df2565b61171e565b604051610667949392919061341e565b60405180910390f35b60007f780e9d63000000000000000000000000000000000000000000000000000000007bffffffffffffffffffffffffffffffffffffffffffffffffffffffff1916827bffffffffffffffffffffffffffffffffffffffffffffffffffffffff191614806106e357506106e28261187b565b5b9050919050565b6060600080546106f9906134a0565b80601f0160208091040260200160405190810160405280929190818152602001828054610725906134a0565b80156107725780601f1061074757610100808354040283529160200191610772565b820191906000526020600020905b81548152906001019060200180831161075557829003601f168201915b5050505050905090565b60006107878261195d565b6004600083815260200190815260200160002060009054906101000a900473ffffffffffffffffffffffffffffffffffffffff169050919050565b60006107cd8261127a565b90508073ffffffffffffffffffffffffffffffffffffffff168373ffffffffffffffffffffffffffffffffffffffff160361083d576040517f08c379a000000000000000000000000000000000000000000000000000000000815260040161083490613543565b60405180910390fd5b8073ffffffffffffffffffffffffffffffffffffffff1661085c6119a8565b73ffffffffffffffffffffffffffffffffffffffff16148061088b575061088a816108856119a8565b611529565b5b6108ca576040517f08c379a00000000000000000000000000000000000000000000000000000000081526004016108c1906135d5565b60405180910390fd5b6108d483836119b0565b505050565b600b6020528060005260406000206000915054906101000a900473ffffffffffffffffffffffffffffffffffffffff1681565b61091582611a69565b610954576040517f08c379a000000000000000000000000000000000000000000000000000000000815260040161094b90613641565b60405180910390fd5b3373ffffffffffffffffffffffffffffffffffffffff166109748361127a565b73ffffffffffffffffffffffffffffffffffffffff16146109ca576040517f08c379a00000000000000000000000000000000000000000000000000000000081526004016109c1906136ad565b60405180910390fd5b6000600a83815481106109e0576109df6136cd565b5b9060005260206000209060040201905033600c600085815260200190815260200160002060006101000a81548173ffffffffffffffffffffffffffffffffffffffff021916908373ffffffffffffffffffffffffffffffffffffffff16021790555081816002018190555060018160030160006101000a81548160ff021916908315150217905550505050565b6000600880549050905090565b610a8382611a69565b610ac2576040517f08c379a0000000000000000000000000000000000000000000000000000000008152600401610ab990613641565b60405180910390fd5b6000600a8381548110610ad857610ad76136cd565b5b906000526020600020906004020190508060030160009054906101000a900460ff16610b39576040517f08c379a0000000000000000000000000000000000000000000000000000000008152600401610b3090613748565b60405180910390fd5b80600201543414610b7f576040517f08c379a0000000000000000000000000000000000000000000000000000000008152600401610b76906137b4565b60405180910390fd5b6000610b8a8461127a565b905060008190508073ffffffffffffffffffffffffffffffffffffffff166108fc349081150290604051600060405180830381858888f19350505050158015610bd7573d6000803e3d6000fd5b50610be3823387611aaa565b83836000019080519060200190610bfb929190612b8f565b5033600b600087815260200190815260200160002060006101000a81548173ffffffffffffffffffffffffffffffffffffffff021916908373ffffffffffffffffffffffffffffffffffffffff16021790555081600c600087815260200190815260200160002060006101000a81548173ffffffffffffffffffffffffffffffffffffffff021916908373ffffffffffffffffffffffffffffffffffffffff16021790555060008360030160006101000a81548160ff0219169083151502179055505050505050565b610cd5610ccf6119a8565b82611da3565b610d14576040517f08c379a0000000000000000000000000000000000000000000000000000000008152600401610d0b90613846565b60405180910390fd5b610d1f838383611aaa565b505050565b6000600a805490509050600a60405180608001604052808681526020018581526020018481526020016001151581525090806001815401808255809150506001900390600052602060002090600402016000909190919091506000820151816000019080519060200190610d99929190612b8f565b506020820151816001019080519060200190610db6929190612b8f565b506040820151816002015560608201518160030160006101000a81548160ff0219169083151502179055505050610ded3382611e38565b33600b600083815260200190815260200160002060006101000a81548173ffffffffffffffffffffffffffffffffffffffff021916908373ffffffffffffffffffffffffffffffffffffffff16021790555033600c600083815260200190815260200160002060006101000a81548173ffffffffffffffffffffffffffffffffffffffff021916908373ffffffffffffffffffffffffffffffffffffffff16021790555050505050565b6000610ea283611300565b8210610ee3576040517f08c379a0000000000000000000000000000000000000000000000000000000008152600401610eda906138d8565b60405180910390fd5b600660008473ffffffffffffffffffffffffffffffffffffffff1673ffffffffffffffffffffffffffffffffffffffff168152602001908152602001600020600083815260200190815260200160002054905092915050565b6060806000806000610f4d86611a69565b610f8c576040517f08c379a0000000000000000000000000000000000000000000000000000000008152600401610f8390613641565b60405180910390fd5b6000600a8781548110610fa257610fa16136cd565b5b9060005260206000209060040201905080600001816001018260020154600b60008b815260200190815260200160002060009054906101000a900473ffffffffffffffffffffffffffffffffffffffff168460030160009054906101000a900460ff16848054611011906134a0565b80601f016020809104026020016040519081016040528092919081815260200182805461103d906134a0565b801561108a5780601f1061105f5761010080835404028352916020019161108a565b820191906000526020600020905b81548152906001019060200180831161106d57829003601f168201915b5050505050945083805461109d906134a0565b80601f01602080910402602001604051908101604052809291908181526020018280546110c9906134a0565b80156111165780601f106110eb57610100808354040283529160200191611116565b820191906000526020600020905b8154815290600101906020018083116110f957829003601f168201915b50505050509350955095509550955095505091939590929450565b600c6020528060005260406000206000915054906101000a900473ffffffffffffffffffffffffffffffffffffffff1681565b600061116f82611a69565b6111ae576040517f08c379a00000000000000000000000000000000000000000000000000000000081526004016111a590613641565b60405180910390fd5b600c600083815260200190815260200160002060009054906101000a900473ffffffffffffffffffffffffffffffffffffffff169050919050565b6112048383836040518060200160405280600081525061145f565b505050565b6000611213610a6d565b8210611254576040517f08c379a000000000000000000000000000000000000000000000000000000000815260040161124b9061396a565b60405180910390fd5b60088281548110611268576112676136cd565b5b90600052602060002001549050919050565b60008061128683611e56565b9050600073ffffffffffffffffffffffffffffffffffffffff168173ffffffffffffffffffffffffffffffffffffffff16036112f7576040517f08c379a00000000000000000000000000000000000000000000000000000000081526004016112ee906139d6565b60405180910390fd5b80915050919050565b60008073ffffffffffffffffffffffffffffffffffffffff168273ffffffffffffffffffffffffffffffffffffffff1603611370576040517f08c379a000000000000000000000000000000000000000000000000000000000815260040161136790613a68565b60405180910390fd5b600360008373ffffffffffffffffffffffffffffffffffffffff1673ffffffffffffffffffffffffffffffffffffffff168152602001908152602001600020549050919050565b6060600180546113c6906134a0565b80601f01602080910402602001604051908101604052809291908181526020018280546113f2906134a0565b801561143f5780601f106114145761010080835404028352916020019161143f565b820191906000526020600020905b81548152906001019060200180831161142257829003601f168201915b5050505050905090565b61145b6114546119a8565b8383611e93565b5050565b61147061146a6119a8565b83611da3565b6114af576040517f08c379a00000000000000000000000000000000000000000000000000000000081526004016114a690613846565b60405180910390fd5b6114bb84848484611fff565b50505050565b60606114cc8261195d565b60006114d661205b565b905060008151116114f65760405180602001604052806000815250611521565b8061150084612072565b604051602001611511929190613ac4565b6040516020818303038152906040525b915050919050565b6000600560008473ffffffffffffffffffffffffffffffffffffffff1673ffffffffffffffffffffffffffffffffffffffff16815260200190815260200160002060008373ffffffffffffffffffffffffffffffffffffffff1673ffffffffffffffffffffffffffffffffffffffff16815260200190815260200160002060009054906101000a900460ff16905092915050565b6115c682611a69565b611605576040517f08c379a00000000000000000000000000000000000000000000000000000000081526004016115fc90613641565b60405180910390fd5b3373ffffffffffffffffffffffffffffffffffffffff166116258361127a565b73ffffffffffffffffffffffffffffffffffffffff161461167b576040517f08c379a0000000000000000000000000000000000000000000000000000000008152600401611672906136ad565b60405180910390fd5b6000600a8381548110611691576116906136cd565b5b9060005260206000209060040201905081816002018190555060018160030160006101000a81548160ff02191690831515021790555033600c600085815260200190815260200160002060006101000a81548173ffffffffffffffffffffffffffffffffffffffff021916908373ffffffffffffffffffffffffffffffffffffffff160217905550505050565b600a818154811061172e57600080fd5b9060005260206000209060040201600091509050806000018054611751906134a0565b80601f016020809104026020016040519081016040528092919081815260200182805461177d906134a0565b80156117ca5780601f1061179f576101008083540402835291602001916117ca565b820191906000526020600020905b8154815290600101906020018083116117ad57829003601f168201915b5050505050908060010180546117df906134a0565b80601f016020809104026020016040519081016040528092919081815260200182805461180b906134a0565b80156118585780601f1061182d57610100808354040283529160200191611858565b820191906000526020600020905b81548152906001019060200180831161183b57829003601f168201915b5050505050908060020154908060030160009054906101000a900460ff16905084565b60007f80ac58cd000000000000000000000000000000000000000000000000000000007bffffffffffffffffffffffffffffffffffffffffffffffffffffffff1916827bffffffffffffffffffffffffffffffffffffffffffffffffffffffff1916148061194657507f5b5e139f000000000000000000000000000000000000000000000000000000007bffffffffffffffffffffffffffffffffffffffffffffffffffffffff1916827bffffffffffffffffffffffffffffffffffffffffffffffffffffffff1916145b80611956575061195582612140565b5b9050919050565b61196681611a69565b6119a5576040517f08c379a000000000000000000000000000000000000000000000000000000000815260040161199c906139d6565b60405180910390fd5b50565b600033905090565b816004600083815260200190815260200160002060006101000a81548173ffffffffffffffffffffffffffffffffffffffff021916908373ffffffffffffffffffffffffffffffffffffffff160217905550808273ffffffffffffffffffffffffffffffffffffffff16611a238361127a565b73ffffffffffffffffffffffffffffffffffffffff167f8c5be1e5ebec7d5bd14f71427d1e84f3dd0314c0f7b2291e5b200ac8c7c3b92560405160405180910390a45050565b60008073ffffffffffffffffffffffffffffffffffffffff16611a8b83611e56565b73ffffffffffffffffffffffffffffffffffffffff1614159050919050565b8273ffffffffffffffffffffffffffffffffffffffff16611aca8261127a565b73ffffffffffffffffffffffffffffffffffffffff1614611b20576040517f08c379a0000000000000000000000000000000000000000000000000000000008152600401611b1790613b5a565b60405180910390fd5b600073ffffffffffffffffffffffffffffffffffffffff168273ffffffffffffffffffffffffffffffffffffffff1603611b8f576040517f08c379a0000000000000000000000000000000000000000000000000000000008152600401611b8690613bec565b60405180910390fd5b611b9c83838360016121aa565b8273ffffffffffffffffffffffffffffffffffffffff16611bbc8261127a565b73ffffffffffffffffffffffffffffffffffffffff1614611c12576040517f08c379a0000000000000000000000000000000000000000000000000000000008152600401611c0990613b5a565b60405180910390fd5b6004600082815260200190815260200160002060006101000a81549073ffffffffffffffffffffffffffffffffffffffff02191690556001600360008573ffffffffffffffffffffffffffffffffffffffff1673ffffffffffffffffffffffffffffffffffffffff168152602001908152602001600020600082825403925050819055506001600360008473ffffffffffffffffffffffffffffffffffffffff1673ffffffffffffffffffffffffffffffffffffffff16815260200190815260200160002060008282540192505081905550816002600083815260200190815260200160002060006101000a81548173ffffffffffffffffffffffffffffffffffffffff021916908373ffffffffffffffffffffffffffffffffffffffff160217905550808273ffffffffffffffffffffffffffffffffffffffff168473ffffffffffffffffffffffffffffffffffffffff167fddf252ad1be2c89b69c2b068fc378daa952ba7f163c4a11628f55a4df523b3ef60405160405180910390a4611d9e8383836001612308565b505050565b600080611daf8361127a565b90508073ffffffffffffffffffffffffffffffffffffffff168473ffffffffffffffffffffffffffffffffffffffff161480611df15750611df08185611529565b5b80611e2f57508373ffffffffffffffffffffffffffffffffffffffff16611e178461077c565b73ffffffffffffffffffffffffffffffffffffffff16145b91505092915050565b611e5282826040518060200160405280600081525061230e565b5050565b60006002600083815260200190815260200160002060009054906101000a900473ffffffffffffffffffffffffffffffffffffffff169050919050565b8173ffffffffffffffffffffffffffffffffffffffff168373ffffffffffffffffffffffffffffffffffffffff1603611f01576040517f08c379a0000000000000000000000000000000000000000000000000000000008152600401611ef890613c58565b60405180910390fd5b80600560008573ffffffffffffffffffffffffffffffffffffffff1673ffffffffffffffffffffffffffffffffffffffff16815260200190815260200160002060008473ffffffffffffffffffffffffffffffffffffffff1673ffffffffffffffffffffffffffffffffffffffff16815260200190815260200160002060006101000a81548160ff0219169083151502179055508173ffffffffffffffffffffffffffffffffffffffff168373ffffffffffffffffffffffffffffffffffffffff167f17307eab39ab6107e8899845ad3d59bd9653f200f220920489ca2b5937696c3183604051611ff29190612ce6565b60405180910390a3505050565b61200a848484611aaa565b61201684848484612369565b612055576040517f08c379a000000000000000000000000000000000000000000000000000000000815260040161204c90613cea565b60405180910390fd5b50505050565b606060405180602001604052806000815250905090565b606060006001612081846124f0565b01905060008167ffffffffffffffff8111156120a05761209f612f5b565b5b6040519080825280601f01601f1916602001820160405280156120d25781602001600182028036833780820191505090505b509050600082602001820190505b600115612135578080600190039150507f3031323334353637383961626364656600000000000000000000000000000000600a86061a8153600a858161212957612128613d0a565b5b049450600085036120e0575b819350505050919050565b60007f01ffc9a7000000000000000000000000000000000000000000000000000000007bffffffffffffffffffffffffffffffffffffffffffffffffffffffff1916827bffffffffffffffffffffffffffffffffffffffffffffffffffffffff1916149050919050565b6121b684848484612643565b60018111156121fa576040517f08c379a00000000000000000000000000000000000000000000000000000000081526004016121f190613dab565b60405180910390fd5b6000829050600073ffffffffffffffffffffffffffffffffffffffff168573ffffffffffffffffffffffffffffffffffffffff16036122415761223c81612649565b612280565b8373ffffffffffffffffffffffffffffffffffffffff168573ffffffffffffffffffffffffffffffffffffffff161461227f5761227e8582612692565b5b5b600073ffffffffffffffffffffffffffffffffffffffff168473ffffffffffffffffffffffffffffffffffffffff16036122c2576122bd816127ff565b612301565b8473ffffffffffffffffffffffffffffffffffffffff168473ffffffffffffffffffffffffffffffffffffffff1614612300576122ff84826128d0565b5b5b5050505050565b50505050565b612318838361294f565b6123256000848484612369565b612364576040517f08c379a000000000000000000000000000000000000000000000000000000000815260040161235b90613cea565b60405180910390fd5b505050565b600061238a8473ffffffffffffffffffffffffffffffffffffffff16612b6c565b156124e3578373ffffffffffffffffffffffffffffffffffffffff1663150b7a026123b36119a8565b8786866040518563ffffffff1660e01b81526004016123d59493929190613e20565b6020604051808303816000875af192505050801561241157506040513d601f19601f8201168201806040525081019061240e9190613e81565b60015b612493573d8060008114612441576040519150601f19603f3d011682016040523d82523d6000602084013e612446565b606091505b50600081510361248b576040517f08c379a000000000000000000000000000000000000000000000000000000000815260040161248290613cea565b60405180910390fd5b805181602001fd5b63150b7a0260e01b7bffffffffffffffffffffffffffffffffffffffffffffffffffffffff1916817bffffffffffffffffffffffffffffffffffffffffffffffffffffffff1916149150506124e8565b600190505b949350505050565b600080600090507a184f03e93ff9f4daa797ed6e38ed64bf6a1f010000000000000000831061254e577a184f03e93ff9f4daa797ed6e38ed64bf6a1f010000000000000000838161254457612543613d0a565b5b0492506040810190505b6d04ee2d6d415b85acef8100000000831061258b576d04ee2d6d415b85acef8100000000838161258157612580613d0a565b5b0492506020810190505b662386f26fc1000083106125ba57662386f26fc1000083816125b0576125af613d0a565b5b0492506010810190505b6305f5e10083106125e3576305f5e10083816125d9576125d8613d0a565b5b0492506008810190505b61271083106126085761271083816125fe576125fd613d0a565b5b0492506004810190505b6064831061262b576064838161262157612620613d0a565b5b0492506002810190505b600a831061263a576001810190505b80915050919050565b50505050565b6008805490506009600083815260200190815260200160002081905550600881908060018154018082558091505060019003906000526020600020016000909190919091505550565b6000600161269f84611300565b6126a99190613edd565b905060006007600084815260200190815260200160002054905081811461278e576000600660008673ffffffffffffffffffffffffffffffffffffffff1673ffffffffffffffffffffffffffffffffffffffff168152602001908152602001600020600084815260200190815260200160002054905080600660008773ffffffffffffffffffffffffffffffffffffffff1673ffffffffffffffffffffffffffffffffffffffff168152602001908152602001600020600084815260200190815260200160002081905550816007600083815260200190815260200160002081905550505b6007600084815260200190815260200160002060009055600660008573ffffffffffffffffffffffffffffffffffffffff1673ffffffffffffffffffffffffffffffffffffffff16815260200190815260200160002060008381526020019081526020016000206000905550505050565b600060016008805490506128139190613edd565b9050600060096000848152602001908152602001600020549050600060088381548110612843576128426136cd565b5b906000526020600020015490508060088381548110612865576128646136cd565b5b9060005260206000200181905550816009600083815260200190815260200160002081905550600960008581526020019081526020016000206000905560088054806128b4576128b3613f11565b5b6001900381819060005260206000200160009055905550505050565b60006128db83611300565b905081600660008573ffffffffffffffffffffffffffffffffffffffff1673ffffffffffffffffffffffffffffffffffffffff168152602001908152602001600020600083815260200190815260200160002081905550806007600084815260200190815260200160002081905550505050565b600073ffffffffffffffffffffffffffffffffffffffff168273ffffffffffffffffffffffffffffffffffffffff16036129be576040517f08c379a00000000000000000000000000000000000000000000000000000000081526004016129b590613f8c565b60405180910390fd5b6129c781611a69565b15612a07576040517f08c379a00000000000000000000000000000000000000000000000000000000081526004016129fe90613ff8565b60405180910390fd5b612a156000838360016121aa565b612a1e81611a69565b15612a5e576040517f08c379a0000000000000000000000000000000000000000000000000000000008152600401612a5590613ff8565b60405180910390fd5b6001600360008473ffffffffffffffffffffffffffffffffffffffff1673ffffffffffffffffffffffffffffffffffffffff16815260200190815260200160002060008282540192505081905550816002600083815260200190815260200160002060006101000a81548173ffffffffffffffffffffffffffffffffffffffff021916908373ffffffffffffffffffffffffffffffffffffffff160217905550808273ffffffffffffffffffffffffffffffffffffffff16600073ffffffffffffffffffffffffffffffffffffffff167fddf252ad1be2c89b69c2b068fc378daa952ba7f163c4a11628f55a4df523b3ef60405160405180910390a4612b68600083836001612308565b5050565b6000808273ffffffffffffffffffffffffffffffffffffffff163b119050919050565b828054612b9b906134a0565b90600052602060002090601f016020900481019282612bbd5760008555612c04565b82601f10612bd657805160ff1916838001178555612c04565b82800160010185558215612c04579182015b82811115612c03578251825591602001919060010190612be8565b5b509050612c119190612c15565b5090565b5b80821115612c2e576000816000905550600101612c16565b5090565b6000604051905090565b600080fd5b600080fd5b60007fffffffff0000000000000000000000000000000000000000000000000000000082169050919050565b612c7b81612c46565b8114612c8657600080fd5b50565b600081359050612c9881612c72565b92915050565b600060208284031215612cb457612cb3612c3c565b5b6000612cc284828501612c89565b91505092915050565b60008115159050919050565b612ce081612ccb565b82525050565b6000602082019050612cfb6000830184612cd7565b92915050565b600081519050919050565b600082825260208201905092915050565b60005b83811015612d3b578082015181840152602081019050612d20565b83811115612d4a576000848401525b50505050565b6000601f19601f8301169050919050565b6000612d6c82612d01565b612d768185612d0c565b9350612d86818560208601612d1d565b612d8f81612d50565b840191505092915050565b60006020820190508181036000830152612db48184612d61565b905092915050565b6000819050919050565b612dcf81612dbc565b8114612dda57600080fd5b50565b600081359050612dec81612dc6565b92915050565b600060208284031215612e0857612e07612c3c565b5b6000612e1684828501612ddd565b91505092915050565b600073ffffffffffffffffffffffffffffffffffffffff82169050919050565b6000612e4a82612e1f565b9050919050565b612e5a81612e3f565b82525050565b6000602082019050612e756000830184612e51565b92915050565b612e8481612e3f565b8114612e8f57600080fd5b50565b600081359050612ea181612e7b565b92915050565b60008060408385031215612ebe57612ebd612c3c565b5b6000612ecc85828601612e92565b9250506020612edd85828601612ddd565b9150509250929050565b60008060408385031215612efe57612efd612c3c565b5b6000612f0c85828601612ddd565b9250506020612f1d85828601612ddd565b9150509250929050565b612f3081612dbc565b82525050565b6000602082019050612f4b6000830184612f27565b92915050565b600080fd5b600080fd5b7f4e487b7100000000000000000000000000000000000000000000000000000000600052604160045260246000fd5b612f9382612d50565b810181811067ffffffffffffffff82111715612fb257612fb1612f5b565b5b80604052505050565b6000612fc5612c32565b9050612fd18282612f8a565b919050565b600067ffffffffffffffff821115612ff157612ff0612f5b565b5b612ffa82612d50565b9050602081019050919050565b82818337600083830152505050565b600061302961302484612fd6565b612fbb565b90508281526020810184848401111561304557613044612f56565b5b613050848285613007565b509392505050565b600082601f83011261306d5761306c612f51565b5b813561307d848260208601613016565b91505092915050565b6000806040838503121561309d5761309c612c3c565b5b60006130ab85828601612ddd565b925050602083013567ffffffffffffffff8111156130cc576130cb612c41565b5b6130d885828601613058565b9150509250929050565b6000806000606084860312156130fb576130fa612c3c565b5b600061310986828701612e92565b935050602061311a86828701612e92565b925050604061312b86828701612ddd565b9150509250925092565b60008060006060848603121561314e5761314d612c3c565b5b600084013567ffffffffffffffff81111561316c5761316b612c41565b5b61317886828701613058565b935050602084013567ffffffffffffffff81111561319957613198612c41565b5b6131a586828701613058565b92505060406131b686828701612ddd565b9150509250925092565b600060a08201905081810360008301526131da8188612d61565b905081810360208301526131ee8187612d61565b90506131fd6040830186612f27565b61320a6060830185612e51565b6132176080830184612cd7565b9695505050505050565b60006020828403121561323757613236612c3c565b5b600061324584828501612e92565b91505092915050565b61325781612ccb565b811461326257600080fd5b50565b6000813590506132748161324e565b92915050565b6000806040838503121561329157613290612c3c565b5b600061329f85828601612e92565b92505060206132b085828601613265565b9150509250929050565b600067ffffffffffffffff8211156132d5576132d4612f5b565b5b6132de82612d50565b9050602081019050919050565b60006132fe6132f9846132ba565b612fbb565b90508281526020810184848401111561331a57613319612f56565b5b613325848285613007565b509392505050565b600082601f83011261334257613341612f51565b5b81356133528482602086016132eb565b91505092915050565b6000806000806080858703121561337557613374612c3c565b5b600061338387828801612e92565b945050602061339487828801612e92565b93505060406133a587828801612ddd565b925050606085013567ffffffffffffffff8111156133c6576133c5612c41565b5b6133d28782880161332d565b91505092959194509250565b600080604083850312156133f5576133f4612c3c565b5b600061340385828601612e92565b925050602061341485828601612e92565b9150509250929050565b600060808201905081810360008301526134388187612d61565b9050818103602083015261344c8186612d61565b905061345b6040830185612f27565b6134686060830184612cd7565b95945050505050565b7f4e487b7100000000000000000000000000000000000000000000000000000000600052602260045260246000fd5b600060028204905060018216806134b857607f821691505b6020821081036134cb576134ca613471565b5b50919050565b7f4552433732313a20617070726f76616c20746f2063757272656e74206f776e6560008201527f7200000000000000000000000000000000000000000000000000000000000000602082015250565b600061352d602183612d0c565b9150613538826134d1565b604082019050919050565b6000602082019050818103600083015261355c81613520565b9050919050565b7f4552433732313a20617070726f76652063616c6c6572206973206e6f7420746f60008201527f6b656e206f776e6572206f7220617070726f76656420666f7220616c6c000000602082015250565b60006135bf603d83612d0c565b91506135ca82613563565b604082019050919050565b600060208201905081810360008301526135ee816135b2565b9050919050565b7f50726f706572747920646f6573206e6f74206578697374000000000000000000600082015250565b600061362b601783612d0c565b9150613636826135f5565b602082019050919050565b6000602082019050818103600083015261365a8161361e565b9050919050565b7f4e6f74207468652070726f7065727479206f776e657200000000000000000000600082015250565b6000613697601683612d0c565b91506136a282613661565b602082019050919050565b600060208201905081810360008301526136c68161368a565b9050919050565b7f4e487b7100000000000000000000000000000000000000000000000000000000600052603260045260246000fd5b7f50726f7065727479206973206e6f7420666f722073616c650000000000000000600082015250565b6000613732601883612d0c565b915061373d826136fc565b602082019050919050565b6000602082019050818103600083015261376181613725565b9050919050565b7f496e636f7272656374207061796d656e7420616d6f756e740000000000000000600082015250565b600061379e601883612d0c565b91506137a982613768565b602082019050919050565b600060208201905081810360008301526137cd81613791565b9050919050565b7f4552433732313a2063616c6c6572206973206e6f7420746f6b656e206f776e6560008201527f72206f7220617070726f76656400000000000000000000000000000000000000602082015250565b6000613830602d83612d0c565b915061383b826137d4565b604082019050919050565b6000602082019050818103600083015261385f81613823565b9050919050565b7f455243373231456e756d657261626c653a206f776e657220696e646578206f7560008201527f74206f6620626f756e6473000000000000000000000000000000000000000000602082015250565b60006138c2602b83612d0c565b91506138cd82613866565b604082019050919050565b600060208201905081810360008301526138f1816138b5565b9050919050565b7f455243373231456e756d657261626c653a20676c6f62616c20696e646578206f60008201527f7574206f6620626f756e64730000000000000000000000000000000000000000602082015250565b6000613954602c83612d0c565b915061395f826138f8565b604082019050919050565b6000602082019050818103600083015261398381613947565b9050919050565b7f4552433732313a20696e76616c696420746f6b656e2049440000000000000000600082015250565b60006139c0601883612d0c565b91506139cb8261398a565b602082019050919050565b600060208201905081810360008301526139ef816139b3565b9050919050565b7f4552433732313a2061646472657373207a65726f206973206e6f74206120766160008201527f6c6964206f776e65720000000000000000000000000000000000000000000000602082015250565b6000613a52602983612d0c565b9150613a5d826139f6565b604082019050919050565b60006020820190508181036000830152613a8181613a45565b9050919050565b600081905092915050565b6000613a9e82612d01565b613aa88185613a88565b9350613ab8818560208601612d1d565b80840191505092915050565b6000613ad08285613a93565b9150613adc8284613a93565b91508190509392505050565b7f4552433732313a207472616e736665722066726f6d20696e636f72726563742060008201527f6f776e6572000000000000000000000000000000000000000000000000000000602082015250565b6000613b44602583612d0c565b9150613b4f82613ae8565b604082019050919050565b60006020820190508181036000830152613b7381613b37565b9050919050565b7f4552433732313a207472616e7366657220746f20746865207a65726f2061646460008201527f7265737300000000000000000000000000000000000000000000000000000000602082015250565b6000613bd6602483612d0c565b9150613be182613b7a565b604082019050919050565b60006020820190508181036000830152613c0581613bc9565b9050919050565b7f4552433732313a20617070726f766520746f2063616c6c657200000000000000600082015250565b6000613c42601983612d0c565b9150613c4d82613c0c565b602082019050919050565b60006020820190508181036000830152613c7181613c35565b9050919050565b7f4552433732313a207472616e7366657220746f206e6f6e20455243373231526560008201527f63656976657220696d706c656d656e7465720000000000000000000000000000602082015250565b6000613cd4603283612d0c565b9150613cdf82613c78565b604082019050919050565b60006020820190508181036000830152613d0381613cc7565b9050919050565b7f4e487b7100000000000000000000000000000000000000000000000000000000600052601260045260246000fd5b7f455243373231456e756d657261626c653a20636f6e736563757469766520747260008201527f616e7366657273206e6f7420737570706f727465640000000000000000000000602082015250565b6000613d95603583612d0c565b9150613da082613d39565b604082019050919050565b60006020820190508181036000830152613dc481613d88565b9050919050565b600081519050919050565b600082825260208201905092915050565b6000613df282613dcb565b613dfc8185613dd6565b9350613e0c818560208601612d1d565b613e1581612d50565b840191505092915050565b6000608082019050613e356000830187612e51565b613e426020830186612e51565b613e4f6040830185612f27565b8181036060830152613e618184613de7565b905095945050505050565b600081519050613e7b81612c72565b92915050565b600060208284031215613e9757613e96612c3c565b5b6000613ea584828501613e6c565b91505092915050565b7f4e487b7100000000000000000000000000000000000000000000000000000000600052601160045260246000fd5b6000613ee882612dbc565b9150613ef383612dbc565b925082821015613f0657613f05613eae565b5b828203905092915050565b7f4e487b7100000000000000000000000000000000000000000000000000000000600052603160045260246000fd5b7f4552433732313a206d696e7420746f20746865207a65726f2061646472657373600082015250565b6000613f76602083612d0c565b9150613f8182613f40565b602082019050919050565b60006020820190508181036000830152613fa581613f69565b9050919050565b7f4552433732313a20746f6b656e20616c7265616479206d696e74656400000000600082015250565b6000613fe2601c83612d0c565b9150613fed82613fac565b602082019050919050565b6000602082019050818103600083015261401181613fd5565b905091905056fea2646970667358221220938ceb67d799aadc4aa1ffb1278cbe68b36ac2ae23a69eeffa59c53ff38e480e64736f6c634300080d0033",
  "immutableReferences": {},
  "source": "// SPDX-License-Identifier: MIT\npragma solidity ^0.8.0;\n\nimport \"@openzeppelin/contracts/token/ERC721/extensions/ERC721Enumerable.sol\";\n\ncontract RealEstateMarketplace is ERC721Enumerable {\n    struct Property {\n        string name;\n        string description;\n        uint256 price;\n        bool forSale;\n    }\n\n    Property[] public properties;\n\n    mapping(uint256 => address) public propertyToOwner;\n    mapping(uint256 => address) public propertyToSeller;\n\n    constructor() ERC721(\"RealEstateNFT\", \"RE\") {}\n\n    function createProperty(\n        string memory _name,\n        string memory _description,\n        uint256 _price\n    ) external {\n        uint256 propertyId = properties.length;\n        properties.push(Property(_name, _description, _price, true));\n        _safeMint(msg.sender, propertyId);\n        propertyToOwner[propertyId] = msg.sender;\n        propertyToSeller[propertyId] = msg.sender;\n    }\n\n    function getProperty(uint256 _propertyId)\n        external\n        view\n        returns (\n            string memory name,\n            string memory description,\n            uint256 price,\n            address owner,\n            bool forSale\n        )\n    {\n        require(_exists(_propertyId), \"Property does not exist\");\n        Property storage property = properties[_propertyId];\n        return (\n            property.name,\n            property.description,\n            property.price,\n            propertyToOwner[_propertyId],\n            property.forSale\n        );\n    }\n\n    function buyProperty(uint256 _propertyId, string memory name) external payable {\n        require(_exists(_propertyId), \"Property does not exist\");\n        Property storage property = properties[_propertyId];\n        require(property.forSale, \"Property is not for sale\");\n        require(msg.value == property.price, \"Incorrect payment amount\");\n\n        address propertyOwner = ownerOf(_propertyId);\n        address payable seller = payable(propertyOwner);\n        seller.transfer(msg.value);\n        _transfer(propertyOwner, msg.sender, _propertyId);\n        property.name = name;\n        propertyToOwner[_propertyId] = msg.sender;\n        propertyToSeller[_propertyId] = propertyOwner;\n        property.forSale = false;\n    }\n\n    function listPropertyForSale(uint256 _propertyId, uint256 _price) external {\n        require(_exists(_propertyId), \"Property does not exist\");\n        require(ownerOf(_propertyId) == msg.sender, \"Not the property owner\");\n        Property storage property = properties[_propertyId];\n        propertyToSeller[_propertyId] = msg.sender;\n        property.price = _price;\n        property.forSale = true;\n    }\n\n    function sellProperty(uint256 _propertyId, uint256 _price) external {\n        require(_exists(_propertyId), \"Property does not exist\");\n        require(ownerOf(_propertyId) == msg.sender, \"Not the property owner\");\n        Property storage property = properties[_propertyId];\n        property.price = _price;\n        property.forSale = true;\n        propertyToSeller[_propertyId] = msg.sender;\n    }\n\n    function getPropertySeller(uint256 _propertyId) external view returns (address) {\n        require(_exists(_propertyId), \"Property does not exist\");\n        return propertyToSeller[_propertyId];\n    }\n}\n",
  "sourcePath": "/home/bharat/Desktop/Thesis/RealEstate_dapp/contracts/restate.sol",
  "compiler": {
    "name": "solc",
    "version": "0.8.13+commit.abaa5c0e.Emscripten.clang"
  },
  "schemaVersion": "3.4.14",
  "updatedAt": "2023-05-25T06:08:42.254Z",
  "networkType": "ethereum",
  "devdoc": {
    "kind": "dev",
    "methods": {
      "approve(address,uint256)": {
        "details": "See {IERC721-approve}."
      },
      "balanceOf(address)": {
        "details": "See {IERC721-balanceOf}."
      },
      "getApproved(uint256)": {
        "details": "See {IERC721-getApproved}."
      },
      "isApprovedForAll(address,address)": {
        "details": "See {IERC721-isApprovedForAll}."
      },
      "name()": {
        "details": "See {IERC721Metadata-name}."
      },
      "ownerOf(uint256)": {
        "details": "See {IERC721-ownerOf}."
      },
      "safeTransferFrom(address,address,uint256)": {
        "details": "See {IERC721-safeTransferFrom}."
      },
      "safeTransferFrom(address,address,uint256,bytes)": {
        "details": "See {IERC721-safeTransferFrom}."
      },
      "setApprovalForAll(address,bool)": {
        "details": "See {IERC721-setApprovalForAll}."
      },
      "supportsInterface(bytes4)": {
        "details": "See {IERC165-supportsInterface}."
      },
      "symbol()": {
        "details": "See {IERC721Metadata-symbol}."
      },
      "tokenByIndex(uint256)": {
        "details": "See {IERC721Enumerable-tokenByIndex}."
      },
      "tokenOfOwnerByIndex(address,uint256)": {
        "details": "See {IERC721Enumerable-tokenOfOwnerByIndex}."
      },
      "tokenURI(uint256)": {
        "details": "See {IERC721Metadata-tokenURI}."
      },
      "totalSupply()": {
        "details": "See {IERC721Enumerable-totalSupply}."
      },
      "transferFrom(address,address,uint256)": {
        "details": "See {IERC721-transferFrom}."
      }
    },
    "version": 1
  },
  "userdoc": {
    "kind": "user",
    "methods": {},
    "version": 1
  }
}