{
  "contractName": "RealEstateMarketplace",
  "abi": [
    {
      "inputs": [],
      "stateMutability": "nonpayable",
      "type": "constructor"
    },
    {
      "anonymous": false,
      "inputs": [
        {
          "indexed": true,
          "internalType": "address",
          "name": "owner",
          "type": "address"
        },
        {
          "indexed": true,
          "internalType": "address",
          "name": "approved",
          "type": "address"
        },
        {
          "indexed": true,
          "internalType": "uint256",
          "name": "tokenId",
          "type": "uint256"
        }
      ],
      "name": "Approval",
      "type": "event"
    },
    {
      "anonymous": false,
      "inputs": [
        {
          "indexed": true,
          "internalType": "address",
          "name": "owner",
          "type": "address"
        },
        {
          "indexed": true,
          "internalType": "address",
          "name": "operator",
          "type": "address"
        },
        {
          "indexed": false,
          "internalType": "bool",
          "name": "approved",
          "type": "bool"
        }
      ],
      "name": "ApprovalForAll",
      "type": "event"
    },
    {
      "anonymous": false,
      "inputs": [
        {
          "indexed": true,
          "internalType": "address",
          "name": "from",
          "type": "address"
        },
        {
          "indexed": true,
          "internalType": "address",
          "name": "to",
          "type": "address"
        },
        {
          "indexed": true,
          "internalType": "uint256",
          "name": "tokenId",
          "type": "uint256"
        }
      ],
      "name": "Transfer",
      "type": "event"
    },
    {
      "inputs": [],
      "name": "admin",
      "outputs": [
        {
          "internalType": "address",
          "name": "",
          "type": "address"
        }
      ],
      "stateMutability": "view",
      "type": "function",
      "constant": true
    },
    {
      "inputs": [
        {
          "internalType": "address",
          "name": "to",
          "type": "address"
        },
        {
          "internalType": "uint256",
          "name": "tokenId",
          "type": "uint256"
        }
      ],
      "name": "approve",
      "outputs": [],
      "stateMutability": "nonpayable",
      "type": "function"
    },
    {
      "inputs": [
        {
          "internalType": "uint256",
          "name": "",
          "type": "uint256"
        }
      ],
      "name": "auctions",
      "outputs": [
        {
          "internalType": "uint256",
          "name": "propertyId",
          "type": "uint256"
        },
        {
          "internalType": "uint256",
          "name": "highestBid",
          "type": "uint256"
        },
        {
          "internalType": "address",
          "name": "highestBidder",
          "type": "address"
        },
        {
          "internalType": "bool",
          "name": "ended",
          "type": "bool"
        }
      ],
      "stateMutability": "view",
      "type": "function",
      "constant": true
    },
    {
      "inputs": [
        {
          "internalType": "address",
          "name": "owner",
          "type": "address"
        }
      ],
      "name": "balanceOf",
      "outputs": [
        {
          "internalType": "uint256",
          "name": "",
          "type": "uint256"
        }
      ],
      "stateMutability": "view",
      "type": "function",
      "constant": true
    },
    {
      "inputs": [
        {
          "internalType": "uint256",
          "name": "tokenId",
          "type": "uint256"
        }
      ],
      "name": "getApproved",
      "outputs": [
        {
          "internalType": "address",
          "name": "",
          "type": "address"
        }
      ],
      "stateMutability": "view",
      "type": "function",
      "constant": true
    },
    {
      "inputs": [
        {
          "internalType": "address",
          "name": "owner",
          "type": "address"
        },
        {
          "internalType": "address",
          "name": "operator",
          "type": "address"
        }
      ],
      "name": "isApprovedForAll",
      "outputs": [
        {
          "internalType": "bool",
          "name": "",
          "type": "bool"
        }
      ],
      "stateMutability": "view",
      "type": "function",
      "constant": true
    },
    {
      "inputs": [],
      "name": "name",
      "outputs": [
        {
          "internalType": "string",
          "name": "",
          "type": "string"
        }
      ],
      "stateMutability": "view",
      "type": "function",
      "constant": true
    },
    {
      "inputs": [
        {
          "internalType": "uint256",
          "name": "tokenId",
          "type": "uint256"
        }
      ],
      "name": "ownerOf",
      "outputs": [
        {
          "internalType": "address",
          "name": "",
          "type": "address"
        }
      ],
      "stateMutability": "view",
      "type": "function",
      "constant": true
    },
    {
      "inputs": [
        {
          "internalType": "uint256",
          "name": "",
          "type": "uint256"
        }
      ],
      "name": "properties",
      "outputs": [
        {
          "internalType": "string",
          "name": "name",
          "type": "string"
        },
        {
          "internalType": "string",
          "name": "description",
          "type": "string"
        },
        {
          "internalType": "uint256",
          "name": "price",
          "type": "uint256"
        },
        {
          "internalType": "bool",
          "name": "forSale",
          "type": "bool"
        },
        {
          "internalType": "string",
          "name": "imageurl",
          "type": "string"
        },
        {
          "internalType": "bool",
          "name": "verified",
          "type": "bool"
        }
      ],
      "stateMutability": "view",
      "type": "function",
      "constant": true
    },
    {
      "inputs": [
        {
          "internalType": "uint256",
          "name": "",
          "type": "uint256"
        }
      ],
      "name": "propertyToOwner",
      "outputs": [
        {
          "internalType": "address",
          "name": "",
          "type": "address"
        }
      ],
      "stateMutability": "view",
      "type": "function",
      "constant": true
    },
    {
      "inputs": [
        {
          "internalType": "uint256",
          "name": "",
          "type": "uint256"
        }
      ],
      "name": "propertyToSeller",
      "outputs": [
        {
          "internalType": "address",
          "name": "",
          "type": "address"
        }
      ],
      "stateMutability": "view",
      "type": "function",
      "constant": true
    },
    {
      "inputs": [
        {
          "internalType": "uint256",
          "name": "",
          "type": "uint256"
        }
      ],
      "name": "propertyVerificationStatus",
      "outputs": [
        {
          "internalType": "bool",
          "name": "",
          "type": "bool"
        }
      ],
      "stateMutability": "view",
      "type": "function",
      "constant": true
    },
    {
      "inputs": [
        {
          "internalType": "address",
          "name": "from",
          "type": "address"
        },
        {
          "internalType": "address",
          "name": "to",
          "type": "address"
        },
        {
          "internalType": "uint256",
          "name": "tokenId",
          "type": "uint256"
        }
      ],
      "name": "safeTransferFrom",
      "outputs": [],
      "stateMutability": "nonpayable",
      "type": "function"
    },
    {
      "inputs": [
        {
          "internalType": "address",
          "name": "from",
          "type": "address"
        },
        {
          "internalType": "address",
          "name": "to",
          "type": "address"
        },
        {
          "internalType": "uint256",
          "name": "tokenId",
          "type": "uint256"
        },
        {
          "internalType": "bytes",
          "name": "data",
          "type": "bytes"
        }
      ],
      "name": "safeTransferFrom",
      "outputs": [],
      "stateMutability": "nonpayable",
      "type": "function"
    },
    {
      "inputs": [
        {
          "internalType": "address",
          "name": "operator",
          "type": "address"
        },
        {
          "internalType": "bool",
          "name": "approved",
          "type": "bool"
        }
      ],
      "name": "setApprovalForAll",
      "outputs": [],
      "stateMutability": "nonpayable",
      "type": "function"
    },
    {
      "inputs": [
        {
          "internalType": "bytes4",
          "name": "interfaceId",
          "type": "bytes4"
        }
      ],
      "name": "supportsInterface",
      "outputs": [
        {
          "internalType": "bool",
          "name": "",
          "type": "bool"
        }
      ],
      "stateMutability": "view",
      "type": "function",
      "constant": true
    },
    {
      "inputs": [],
      "name": "symbol",
      "outputs": [
        {
          "internalType": "string",
          "name": "",
          "type": "string"
        }
      ],
      "stateMutability": "view",
      "type": "function",
      "constant": true
    },
    {
      "inputs": [
        {
          "internalType": "uint256",
          "name": "index",
          "type": "uint256"
        }
      ],
      "name": "tokenByIndex",
      "outputs": [
        {
          "internalType": "uint256",
          "name": "",
          "type": "uint256"
        }
      ],
      "stateMutability": "view",
      "type": "function",
      "constant": true
    },
    {
      "inputs": [
        {
          "internalType": "address",
          "name": "owner",
          "type": "address"
        },
        {
          "internalType": "uint256",
          "name": "index",
          "type": "uint256"
        }
      ],
      "name": "tokenOfOwnerByIndex",
      "outputs": [
        {
          "internalType": "uint256",
          "name": "",
          "type": "uint256"
        }
      ],
      "stateMutability": "view",
      "type": "function",
      "constant": true
    },
    {
      "inputs": [
        {
          "internalType": "uint256",
          "name": "tokenId",
          "type": "uint256"
        }
      ],
      "name": "tokenURI",
      "outputs": [
        {
          "internalType": "string",
          "name": "",
          "type": "string"
        }
      ],
      "stateMutability": "view",
      "type": "function",
      "constant": true
    },
    {
      "inputs": [],
      "name": "totalSupply",
      "outputs": [
        {
          "internalType": "uint256",
          "name": "",
          "type": "uint256"
        }
      ],
      "stateMutability": "view",
      "type": "function",
      "constant": true
    },
    {
      "inputs": [
        {
          "internalType": "address",
          "name": "from",
          "type": "address"
        },
        {
          "internalType": "address",
          "name": "to",
          "type": "address"
        },
        {
          "internalType": "uint256",
          "name": "tokenId",
          "type": "uint256"
        }
      ],
      "name": "transferFrom",
      "outputs": [],
      "stateMutability": "nonpayable",
      "type": "function"
    },
    {
      "inputs": [
        {
          "internalType": "string",
          "name": "_name",
          "type": "string"
        },
        {
          "internalType": "string",
          "name": "_description",
          "type": "string"
        },
        {
          "internalType": "uint256",
          "name": "_price",
          "type": "uint256"
        },
        {
          "internalType": "string",
          "name": "_imageurl",
          "type": "string"
        }
      ],
      "name": "createProperty",
      "outputs": [],
      "stateMutability": "nonpayable",
      "type": "function"
    },
    {
      "inputs": [
        {
          "internalType": "uint256",
          "name": "_propertyId",
          "type": "uint256"
        }
      ],
      "name": "getProperty",
      "outputs": [
        {
          "internalType": "string",
          "name": "name",
          "type": "string"
        },
        {
          "internalType": "string",
          "name": "description",
          "type": "string"
        },
        {
          "internalType": "uint256",
          "name": "price",
          "type": "uint256"
        },
        {
          "internalType": "address",
          "name": "owner",
          "type": "address"
        },
        {
          "internalType": "bool",
          "name": "forSale",
          "type": "bool"
        },
        {
          "internalType": "string",
          "name": "imageurl",
          "type": "string"
        },
        {
          "internalType": "bool",
          "name": "verified",
          "type": "bool"
        }
      ],
      "stateMutability": "view",
      "type": "function",
      "constant": true
    },
    {
      "inputs": [
        {
          "internalType": "uint256",
          "name": "_propertyId",
          "type": "uint256"
        }
      ],
      "name": "verifyProperty",
      "outputs": [],
      "stateMutability": "nonpayable",
      "type": "function"
    },
    {
      "inputs": [
        {
          "internalType": "uint256",
          "name": "_propertyId",
          "type": "uint256"
        },
        {
          "internalType": "string",
          "name": "name",
          "type": "string"
        }
      ],
      "name": "buyProperty",
      "outputs": [],
      "stateMutability": "payable",
      "type": "function",
      "payable": true
    },
    {
      "inputs": [
        {
          "internalType": "uint256",
          "name": "_propertyId",
          "type": "uint256"
        },
        {
          "internalType": "uint256",
          "name": "_price",
          "type": "uint256"
        }
      ],
      "name": "listPropertyForSale",
      "outputs": [],
      "stateMutability": "nonpayable",
      "type": "function"
    },
    {
      "inputs": [
        {
          "internalType": "uint256",
          "name": "_propertyId",
          "type": "uint256"
        },
        {
          "internalType": "uint256",
          "name": "_price",
          "type": "uint256"
        }
      ],
      "name": "sellProperty",
      "outputs": [],
      "stateMutability": "nonpayable",
      "type": "function"
    },
    {
      "inputs": [
        {
          "internalType": "uint256",
          "name": "_propertyId",
          "type": "uint256"
        }
      ],
      "name": "getPropertySeller",
      "outputs": [
        {
          "internalType": "address",
          "name": "",
          "type": "address"
        }
      ],
      "stateMutability": "view",
      "type": "function",
      "constant": true
    },
    {
      "inputs": [
        {
          "internalType": "uint256",
          "name": "_propertyId",
          "type": "uint256"
        }
      ],
      "name": "startAuction",
      "outputs": [],
      "stateMutability": "nonpayable",
      "type": "function"
    },
    {
      "inputs": [
        {
          "internalType": "uint256",
          "name": "_auctionId",
          "type": "uint256"
        },
        {
          "internalType": "string",
          "name": "_name",
          "type": "string"
        }
      ],
      "name": "placeBid",
      "outputs": [],
      "stateMutability": "payable",
      "type": "function",
      "payable": true
    },
    {
      "inputs": [],
      "name": "getAuctionsLength",
      "outputs": [
        {
          "internalType": "uint256",
          "name": "",
          "type": "uint256"
        }
      ],
      "stateMutability": "view",
      "type": "function",
      "constant": true
    },
    {
      "inputs": [
        {
          "internalType": "uint256",
          "name": "_auctionId",
          "type": "uint256"
        }
      ],
      "name": "endAuction",
      "outputs": [],
      "stateMutability": "nonpayable",
      "type": "function"
    },
    {
      "inputs": [
        {
          "internalType": "uint256",
          "name": "_propertyId",
          "type": "uint256"
        }
      ],
      "name": "isAuctionStarted",
      "outputs": [
        {
          "internalType": "bool",
          "name": "",
          "type": "bool"
        }
      ],
      "stateMutability": "view",
      "type": "function",
      "constant": true
    }
  ],
  "bytecode": "0x60806040523480156200001157600080fd5b506040518060400160405280600d81526020017f5265616c4573746174654e4654000000000000000000000000000000000000008152506040518060400160405280600281526020017f5245000000000000000000000000000000000000000000000000000000000000815250816000908051906020019062000096929190620000f9565b508060019080519060200190620000af929190620000f9565b50505033600c60006101000a81548173ffffffffffffffffffffffffffffffffffffffff021916908373ffffffffffffffffffffffffffffffffffffffff1602179055506200020d565b8280546200010790620001d8565b90600052602060002090601f0160209004810192826200012b576000855562000177565b82601f106200014657805160ff191683800117855562000177565b8280016001018555821562000177579182015b828111156200017657825182559160200191906001019062000159565b5b5090506200018691906200018a565b5090565b5b80821115620001a55760008160009055506001016200018b565b5090565b7f4e487b7100000000000000000000000000000000000000000000000000000000600052602260045260246000fd5b60006002820490506001821680620001f157607f821691505b602082108103620002075762000206620001a9565b5b50919050565b6152dd806200021d6000396000f3fe6080604052600436106101f95760003560e01c80634f6ccce71161010d578063b88d4fde116100a0578063dbe350071161006f578063dbe35007146107b0578063e985e9c5146107db578063ed46a8cf14610818578063f7b1080814610841578063f851a44014610883576101f9565b8063b88d4fde146106e4578063b9a2de3a1461070d578063c1b9a85a14610736578063c87b56dd14610773576101f9565b8063934cd683116100dc578063934cd6831461062a57806395d89b4114610667578063a22cb46514610692578063b87008a3146106bb576101f9565b80634f6ccce714610533578063571a26a0146105705780636352211e146105b057806370a08231146105ed576101f9565b80631955cf811161019057806335c848601161015f57806335c848601461044b57806337aab063146104885780633a7e1c2d146104a45780634212a8ae146104e157806342842e0e1461050a576101f9565b80631955cf811461038657806323b872dd146103a25780632f745c59146103cb57806332665ffb14610408576101f9565b8063095ea7b3116101cc578063095ea7b3146102cc5780630b56e383146102f55780630f55415b1461033257806318160ddd1461035b576101f9565b806301ffc9a7146101fe578063065de74c1461023b57806306fdde0314610264578063081812fc1461028f575b600080fd5b34801561020a57600080fd5b5061022560048036038101906102209190613b7c565b6108ae565b6040516102329190613bc4565b60405180910390f35b34801561024757600080fd5b50610262600480360381019061025d9190613c15565b610928565b005b34801561027057600080fd5b50610279610b1f565b6040516102869190613cdb565b60405180910390f35b34801561029b57600080fd5b506102b660048036038101906102b19190613c15565b610bb1565b6040516102c39190613d3e565b60405180910390f35b3480156102d857600080fd5b506102f360048036038101906102ee9190613d85565b610bf7565b005b34801561030157600080fd5b5061031c60048036038101906103179190613c15565b610d0e565b6040516103299190613d3e565b60405180910390f35b34801561033e57600080fd5b5061035960048036038101906103549190613dc5565b610d41565b005b34801561036757600080fd5b50610370610ebf565b60405161037d9190613e14565b60405180910390f35b6103a0600480360381019061039b9190613f64565b610ecc565b005b3480156103ae57600080fd5b506103c960048036038101906103c49190613fc0565b611116565b005b3480156103d757600080fd5b506103f260048036038101906103ed9190613d85565b611176565b6040516103ff9190613e14565b60405180910390f35b34801561041457600080fd5b5061042f600480360381019061042a9190613c15565b61121b565b6040516104429796959493929190614013565b60405180910390f35b34801561045757600080fd5b50610472600480360381019061046d9190613c15565b6114bc565b60405161047f9190613d3e565b60405180910390f35b6104a2600480360381019061049d9190613f64565b6114ef565b005b3480156104b057600080fd5b506104cb60048036038101906104c69190613c15565b61181e565b6040516104d89190613d3e565b60405180910390f35b3480156104ed57600080fd5b5061050860048036038101906105039190613c15565b6118a3565b005b34801561051657600080fd5b50610531600480360381019061052c9190613fc0565b6119bc565b005b34801561053f57600080fd5b5061055a60048036038101906105559190613c15565b6119dc565b6040516105679190613e14565b60405180910390f35b34801561057c57600080fd5b5061059760048036038101906105929190613c15565b611a4d565b6040516105a79493929190614097565b60405180910390f35b3480156105bc57600080fd5b506105d760048036038101906105d29190613c15565b611aba565b6040516105e49190613d3e565b60405180910390f35b3480156105f957600080fd5b50610614600480360381019061060f91906140dc565b611b40565b6040516106219190613e14565b60405180910390f35b34801561063657600080fd5b50610651600480360381019061064c9190613c15565b611bf7565b60405161065e9190613bc4565b60405180910390f35b34801561067357600080fd5b5061067c611c17565b6040516106899190613cdb565b60405180910390f35b34801561069e57600080fd5b506106b960048036038101906106b49190614135565b611ca9565b005b3480156106c757600080fd5b506106e260048036038101906106dd9190614175565b611cbf565b005b3480156106f057600080fd5b5061070b600480360381019061070691906142d1565b611e7f565b005b34801561071957600080fd5b50610734600480360381019061072f9190613c15565b611ee1565b005b34801561074257600080fd5b5061075d60048036038101906107589190613c15565b612262565b60405161076a9190613bc4565b60405180910390f35b34801561077f57600080fd5b5061079a60048036038101906107959190613c15565b6122cb565b6040516107a79190613cdb565b60405180910390f35b3480156107bc57600080fd5b506107c5612333565b6040516107d29190613e14565b60405180910390f35b3480156107e757600080fd5b5061080260048036038101906107fd9190614354565b612340565b60405161080f9190613bc4565b60405180910390f35b34801561082457600080fd5b5061083f600480360381019061083a9190613dc5565b6123d4565b005b34801561084d57600080fd5b5061086860048036038101906108639190613c15565b612535565b60405161087a96959493929190614394565b60405180910390f35b34801561088f57600080fd5b50610898612733565b6040516108a59190613d3e565b60405180910390f35b60007f780e9d63000000000000000000000000000000000000000000000000000000007bffffffffffffffffffffffffffffffffffffffffffffffffffffffff1916827bffffffffffffffffffffffffffffffffffffffffffffffffffffffff19161480610921575061092082612759565b5b9050919050565b6109318161283b565b610970576040517f08c379a000000000000000000000000000000000000000000000000000000000815260040161096790614456565b60405180910390fd5b3373ffffffffffffffffffffffffffffffffffffffff1661099082611aba565b73ffffffffffffffffffffffffffffffffffffffff16146109e6576040517f08c379a00000000000000000000000000000000000000000000000000000000081526004016109dd906144c2565b60405180910390fd5b600b604051806080016040528083815260200160008152602001600073ffffffffffffffffffffffffffffffffffffffff168152602001600015158152509080600181540180825580915050600190039060005260206000209060030201600090919091909150600082015181600001556020820151816001015560408201518160020160006101000a81548173ffffffffffffffffffffffffffffffffffffffff021916908373ffffffffffffffffffffffffffffffffffffffff16021790555060608201518160020160146101000a81548160ff021916908315150217905550505033600e600083815260200190815260200160002060006101000a81548173ffffffffffffffffffffffffffffffffffffffff021916908373ffffffffffffffffffffffffffffffffffffffff16021790555050565b606060008054610b2e90614511565b80601f0160208091040260200160405190810160405280929190818152602001828054610b5a90614511565b8015610ba75780601f10610b7c57610100808354040283529160200191610ba7565b820191906000526020600020905b815481529060010190602001808311610b8a57829003601f168201915b5050505050905090565b6000610bbc8261287c565b6004600083815260200190815260200160002060009054906101000a900473ffffffffffffffffffffffffffffffffffffffff169050919050565b6000610c0282611aba565b90508073ffffffffffffffffffffffffffffffffffffffff168373ffffffffffffffffffffffffffffffffffffffff1603610c72576040517f08c379a0000000000000000000000000000000000000000000000000000000008152600401610c69906145b4565b60405180910390fd5b8073ffffffffffffffffffffffffffffffffffffffff16610c916128c7565b73ffffffffffffffffffffffffffffffffffffffff161480610cc05750610cbf81610cba6128c7565b612340565b5b610cff576040517f08c379a0000000000000000000000000000000000000000000000000000000008152600401610cf690614646565b60405180910390fd5b610d0983836128cf565b505050565b600d6020528060005260406000206000915054906101000a900473ffffffffffffffffffffffffffffffffffffffff1681565b610d4a8261283b565b610d89576040517f08c379a0000000000000000000000000000000000000000000000000000000008152600401610d8090614456565b60405180910390fd5b3373ffffffffffffffffffffffffffffffffffffffff16610da983611aba565b73ffffffffffffffffffffffffffffffffffffffff1614610dff576040517f08c379a0000000000000000000000000000000000000000000000000000000008152600401610df6906144c2565b60405180910390fd5b6000600a8381548110610e1557610e14614666565b5b9060005260206000209060060201905033600e600085815260200190815260200160002060006101000a81548173ffffffffffffffffffffffffffffffffffffffff021916908373ffffffffffffffffffffffffffffffffffffffff16021790555081816002018190555060018160030160006101000a81548160ff02191690831515021790555060008160050160006101000a81548160ff021916908315150217905550505050565b6000600880549050905090565b610ed58261283b565b610f14576040517f08c379a0000000000000000000000000000000000000000000000000000000008152600401610f0b90614456565b60405180910390fd5b6000600a8381548110610f2a57610f29614666565b5b906000526020600020906006020190508060030160009054906101000a900460ff16610f8b576040517f08c379a0000000000000000000000000000000000000000000000000000000008152600401610f82906146e1565b60405180910390fd5b80600201543414610fd1576040517f08c379a0000000000000000000000000000000000000000000000000000000008152600401610fc89061474d565b60405180910390fd5b6000610fdc84611aba565b905060008190508073ffffffffffffffffffffffffffffffffffffffff166108fc349081150290604051600060405180830381858888f19350505050158015611029573d6000803e3d6000fd5b50611035823387612988565b8383600001908051906020019061104d929190613a6d565b5033600d600087815260200190815260200160002060006101000a81548173ffffffffffffffffffffffffffffffffffffffff021916908373ffffffffffffffffffffffffffffffffffffffff16021790555081600e600087815260200190815260200160002060006101000a81548173ffffffffffffffffffffffffffffffffffffffff021916908373ffffffffffffffffffffffffffffffffffffffff16021790555060008360030160006101000a81548160ff0219169083151502179055505050505050565b6111276111216128c7565b82612c81565b611166576040517f08c379a000000000000000000000000000000000000000000000000000000000815260040161115d906147df565b60405180910390fd5b611171838383612988565b505050565b600061118183611b40565b82106111c2576040517f08c379a00000000000000000000000000000000000000000000000000000000081526004016111b990614871565b60405180910390fd5b600660008473ffffffffffffffffffffffffffffffffffffffff1673ffffffffffffffffffffffffffffffffffffffff168152602001908152602001600020600083815260200190815260200160002054905092915050565b6060806000806000606060006112308861283b565b61126f576040517f08c379a000000000000000000000000000000000000000000000000000000000815260040161126690614456565b60405180910390fd5b6000600a898154811061128557611284614666565b5b9060005260206000209060060201905080600001816001018260020154600d60008d815260200190815260200160002060009054906101000a900473ffffffffffffffffffffffffffffffffffffffff168460030160009054906101000a900460ff16856004018660050160009054906101000a900460ff1686805461130a90614511565b80601f016020809104026020016040519081016040528092919081815260200182805461133690614511565b80156113835780601f1061135857610100808354040283529160200191611383565b820191906000526020600020905b81548152906001019060200180831161136657829003601f168201915b5050505050965085805461139690614511565b80601f01602080910402602001604051908101604052809291908181526020018280546113c290614511565b801561140f5780601f106113e45761010080835404028352916020019161140f565b820191906000526020600020905b8154815290600101906020018083116113f257829003601f168201915b5050505050955081805461142290614511565b80601f016020809104026020016040519081016040528092919081815260200182805461144e90614511565b801561149b5780601f106114705761010080835404028352916020019161149b565b820191906000526020600020905b81548152906001019060200180831161147e57829003601f168201915b50505050509150975097509750975097509750975050919395979092949650565b600e6020528060005260406000206000915054906101000a900473ffffffffffffffffffffffffffffffffffffffff1681565b600b805490508210611536576040517f08c379a000000000000000000000000000000000000000000000000000000000815260040161152d906148dd565b60405180910390fd5b6000600b838154811061154c5761154b614666565b5b906000526020600020906003020190508060020160149054906101000a900460ff16156115ae576040517f08c379a00000000000000000000000000000000000000000000000000000000081526004016115a590614949565b60405180910390fd5b806001015434116115f4576040517f08c379a00000000000000000000000000000000000000000000000000000000081526004016115eb906149db565b60405180910390fd5b600073ffffffffffffffffffffffffffffffffffffffff168160020160009054906101000a900473ffffffffffffffffffffffffffffffffffffffff1673ffffffffffffffffffffffffffffffffffffffff16146116c25760008160020160009054906101000a900473ffffffffffffffffffffffffffffffffffffffff1690508073ffffffffffffffffffffffffffffffffffffffff166108fc83600101549081150290604051600060405180830381858888f193505050501580156116bf573d6000803e3d6000fd5b50505b6000600a8260000154815481106116dc576116db614666565b5b9060005260206000209060060201905082816000019080519060200190611704929190613a6d565b50348160020181905550348260010181905550338260020160006101000a81548173ffffffffffffffffffffffffffffffffffffffff021916908373ffffffffffffffffffffffffffffffffffffffff16021790555060006117698360000154611aba565b905033600d60008560000154815260200190815260200160002060006101000a81548173ffffffffffffffffffffffffffffffffffffffff021916908373ffffffffffffffffffffffffffffffffffffffff16021790555080600e60008560000154815260200190815260200160002060006101000a81548173ffffffffffffffffffffffffffffffffffffffff021916908373ffffffffffffffffffffffffffffffffffffffff1602179055505050505050565b60006118298261283b565b611868576040517f08c379a000000000000000000000000000000000000000000000000000000000815260040161185f90614456565b60405180910390fd5b600e600083815260200190815260200160002060009054906101000a900473ffffffffffffffffffffffffffffffffffffffff169050919050565b600c60009054906101000a900473ffffffffffffffffffffffffffffffffffffffff1673ffffffffffffffffffffffffffffffffffffffff163373ffffffffffffffffffffffffffffffffffffffff1614611933576040517f08c379a000000000000000000000000000000000000000000000000000000000815260040161192a90614a6d565b60405180910390fd5b61193c8161283b565b61197b576040517f08c379a000000000000000000000000000000000000000000000000000000000815260040161197290614456565b60405180910390fd5b6001600a828154811061199157611990614666565b5b906000526020600020906006020160050160006101000a81548160ff02191690831515021790555050565b6119d783838360405180602001604052806000815250611e7f565b505050565b60006119e6610ebf565b8210611a27576040517f08c379a0000000000000000000000000000000000000000000000000000000008152600401611a1e90614aff565b60405180910390fd5b60088281548110611a3b57611a3a614666565b5b90600052602060002001549050919050565b600b8181548110611a5d57600080fd5b90600052602060002090600302016000915090508060000154908060010154908060020160009054906101000a900473ffffffffffffffffffffffffffffffffffffffff16908060020160149054906101000a900460ff16905084565b600080611ac683612d16565b9050600073ffffffffffffffffffffffffffffffffffffffff168173ffffffffffffffffffffffffffffffffffffffff1603611b37576040517f08c379a0000000000000000000000000000000000000000000000000000000008152600401611b2e90614b6b565b60405180910390fd5b80915050919050565b60008073ffffffffffffffffffffffffffffffffffffffff168273ffffffffffffffffffffffffffffffffffffffff1603611bb0576040517f08c379a0000000000000000000000000000000000000000000000000000000008152600401611ba790614bfd565b60405180910390fd5b600360008373ffffffffffffffffffffffffffffffffffffffff1673ffffffffffffffffffffffffffffffffffffffff168152602001908152602001600020549050919050565b600f6020528060005260406000206000915054906101000a900460ff1681565b606060018054611c2690614511565b80601f0160208091040260200160405190810160405280929190818152602001828054611c5290614511565b8015611c9f5780601f10611c7457610100808354040283529160200191611c9f565b820191906000526020600020905b815481529060010190602001808311611c8257829003601f168201915b5050505050905090565b611cbb611cb46128c7565b8383612d53565b5050565b6000600a805490509050600a6040518060c001604052808781526020018681526020018581526020016001151581526020018481526020016000151581525090806001815401808255809150506001900390600052602060002090600602016000909190919091506000820151816000019080519060200190611d43929190613a6d565b506020820151816001019080519060200190611d60929190613a6d565b506040820151816002015560608201518160030160006101000a81548160ff0219169083151502179055506080820151816004019080519060200190611da7929190613a6d565b5060a08201518160050160006101000a81548160ff0219169083151502179055505050611dd43382612ebf565b33600d600083815260200190815260200160002060006101000a81548173ffffffffffffffffffffffffffffffffffffffff021916908373ffffffffffffffffffffffffffffffffffffffff16021790555033600e600083815260200190815260200160002060006101000a81548173ffffffffffffffffffffffffffffffffffffffff021916908373ffffffffffffffffffffffffffffffffffffffff1602179055505050505050565b611e90611e8a6128c7565b83612c81565b611ecf576040517f08c379a0000000000000000000000000000000000000000000000000000000008152600401611ec6906147df565b60405180910390fd5b611edb84848484612edd565b50505050565b600b805490508110611f28576040517f08c379a0000000000000000000000000000000000000000000000000000000008152600401611f1f906148dd565b60405180910390fd5b6000600b8281548110611f3e57611f3d614666565b5b906000526020600020906003020190508060020160149054906101000a900460ff1615611fa0576040517f08c379a0000000000000000000000000000000000000000000000000000000008152600401611f9790614949565b60405180910390fd5b60018160020160146101000a81548160ff0219169083151502179055506000600a826000015481548110611fd757611fd6614666565b5b906000526020600020906006020190506000611ff68360000154611aba565b9050600081905060008173ffffffffffffffffffffffffffffffffffffffff16856001015460405161202790614c4e565b60006040518083038185875af1925050503d8060008114612064576040519150601f19603f3d011682016040523d82523d6000602084013e612069565b606091505b50509050806120ad576040517f08c379a00000000000000000000000000000000000000000000000000000000081526004016120a490614caf565b60405180910390fd5b6120e0838660020160009054906101000a900473ffffffffffffffffffffffffffffffffffffffff168760000154612988565b8460020160009054906101000a900473ffffffffffffffffffffffffffffffffffffffff16600d60008760000154815260200190815260200160002060006101000a81548173ffffffffffffffffffffffffffffffffffffffff021916908373ffffffffffffffffffffffffffffffffffffffff16021790555082600e60008760000154815260200190815260200160002060006101000a81548173ffffffffffffffffffffffffffffffffffffffff021916908373ffffffffffffffffffffffffffffffffffffffff16021790555060008460030160006101000a81548160ff02191690831515021790555060008560020160146101000a81548160ff021916908315150217905550600b86815481106121fe576121fd614666565b5b906000526020600020906003020160008082016000905560018201600090556002820160006101000a81549073ffffffffffffffffffffffffffffffffffffffff02191690556002820160146101000a81549060ff02191690555050505050505050565b600080600090505b600b805490508110156122c05782600b828154811061228c5761228b614666565b5b906000526020600020906003020160000154036122ad5760019150506122c6565b80806122b890614cfe565b91505061226a565b50600090505b919050565b60606122d68261287c565b60006122e0612f39565b90506000815111612300576040518060200160405280600081525061232b565b8061230a84612f50565b60405160200161231b929190614d82565b6040516020818303038152906040525b915050919050565b6000600b80549050905090565b6000600560008473ffffffffffffffffffffffffffffffffffffffff1673ffffffffffffffffffffffffffffffffffffffff16815260200190815260200160002060008373ffffffffffffffffffffffffffffffffffffffff1673ffffffffffffffffffffffffffffffffffffffff16815260200190815260200160002060009054906101000a900460ff16905092915050565b6123dd8261283b565b61241c576040517f08c379a000000000000000000000000000000000000000000000000000000000815260040161241390614456565b60405180910390fd5b3373ffffffffffffffffffffffffffffffffffffffff1661243c83611aba565b73ffffffffffffffffffffffffffffffffffffffff1614612492576040517f08c379a0000000000000000000000000000000000000000000000000000000008152600401612489906144c2565b60405180910390fd5b6000600a83815481106124a8576124a7614666565b5b9060005260206000209060060201905081816002018190555060018160030160006101000a81548160ff02191690831515021790555033600e600085815260200190815260200160002060006101000a81548173ffffffffffffffffffffffffffffffffffffffff021916908373ffffffffffffffffffffffffffffffffffffffff160217905550505050565b600a818154811061254557600080fd5b906000526020600020906006020160009150905080600001805461256890614511565b80601f016020809104026020016040519081016040528092919081815260200182805461259490614511565b80156125e15780601f106125b6576101008083540402835291602001916125e1565b820191906000526020600020905b8154815290600101906020018083116125c457829003601f168201915b5050505050908060010180546125f690614511565b80601f016020809104026020016040519081016040528092919081815260200182805461262290614511565b801561266f5780601f106126445761010080835404028352916020019161266f565b820191906000526020600020905b81548152906001019060200180831161265257829003601f168201915b5050505050908060020154908060030160009054906101000a900460ff169080600401805461269d90614511565b80601f01602080910402602001604051908101604052809291908181526020018280546126c990614511565b80156127165780601f106126eb57610100808354040283529160200191612716565b820191906000526020600020905b8154815290600101906020018083116126f957829003601f168201915b5050505050908060050160009054906101000a900460ff16905086565b600c60009054906101000a900473ffffffffffffffffffffffffffffffffffffffff1681565b60007f80ac58cd000000000000000000000000000000000000000000000000000000007bffffffffffffffffffffffffffffffffffffffffffffffffffffffff1916827bffffffffffffffffffffffffffffffffffffffffffffffffffffffff1916148061282457507f5b5e139f000000000000000000000000000000000000000000000000000000007bffffffffffffffffffffffffffffffffffffffffffffffffffffffff1916827bffffffffffffffffffffffffffffffffffffffffffffffffffffffff1916145b8061283457506128338261301e565b5b9050919050565b60008073ffffffffffffffffffffffffffffffffffffffff1661285d83612d16565b73ffffffffffffffffffffffffffffffffffffffff1614159050919050565b6128858161283b565b6128c4576040517f08c379a00000000000000000000000000000000000000000000000000000000081526004016128bb90614b6b565b60405180910390fd5b50565b600033905090565b816004600083815260200190815260200160002060006101000a81548173ffffffffffffffffffffffffffffffffffffffff021916908373ffffffffffffffffffffffffffffffffffffffff160217905550808273ffffffffffffffffffffffffffffffffffffffff1661294283611aba565b73ffffffffffffffffffffffffffffffffffffffff167f8c5be1e5ebec7d5bd14f71427d1e84f3dd0314c0f7b2291e5b200ac8c7c3b92560405160405180910390a45050565b8273ffffffffffffffffffffffffffffffffffffffff166129a882611aba565b73ffffffffffffffffffffffffffffffffffffffff16146129fe576040517f08c379a00000000000000000000000000000000000000000000000000000000081526004016129f590614e18565b60405180910390fd5b600073ffffffffffffffffffffffffffffffffffffffff168273ffffffffffffffffffffffffffffffffffffffff1603612a6d576040517f08c379a0000000000000000000000000000000000000000000000000000000008152600401612a6490614eaa565b60405180910390fd5b612a7a8383836001613088565b8273ffffffffffffffffffffffffffffffffffffffff16612a9a82611aba565b73ffffffffffffffffffffffffffffffffffffffff1614612af0576040517f08c379a0000000000000000000000000000000000000000000000000000000008152600401612ae790614e18565b60405180910390fd5b6004600082815260200190815260200160002060006101000a81549073ffffffffffffffffffffffffffffffffffffffff02191690556001600360008573ffffffffffffffffffffffffffffffffffffffff1673ffffffffffffffffffffffffffffffffffffffff168152602001908152602001600020600082825403925050819055506001600360008473ffffffffffffffffffffffffffffffffffffffff1673ffffffffffffffffffffffffffffffffffffffff16815260200190815260200160002060008282540192505081905550816002600083815260200190815260200160002060006101000a81548173ffffffffffffffffffffffffffffffffffffffff021916908373ffffffffffffffffffffffffffffffffffffffff160217905550808273ffffffffffffffffffffffffffffffffffffffff168473ffffffffffffffffffffffffffffffffffffffff167fddf252ad1be2c89b69c2b068fc378daa952ba7f163c4a11628f55a4df523b3ef60405160405180910390a4612c7c83838360016131e6565b505050565b600080612c8d83611aba565b90508073ffffffffffffffffffffffffffffffffffffffff168473ffffffffffffffffffffffffffffffffffffffff161480612ccf5750612cce8185612340565b5b80612d0d57508373ffffffffffffffffffffffffffffffffffffffff16612cf584610bb1565b73ffffffffffffffffffffffffffffffffffffffff16145b91505092915050565b60006002600083815260200190815260200160002060009054906101000a900473ffffffffffffffffffffffffffffffffffffffff169050919050565b8173ffffffffffffffffffffffffffffffffffffffff168373ffffffffffffffffffffffffffffffffffffffff1603612dc1576040517f08c379a0000000000000000000000000000000000000000000000000000000008152600401612db890614f16565b60405180910390fd5b80600560008573ffffffffffffffffffffffffffffffffffffffff1673ffffffffffffffffffffffffffffffffffffffff16815260200190815260200160002060008473ffffffffffffffffffffffffffffffffffffffff1673ffffffffffffffffffffffffffffffffffffffff16815260200190815260200160002060006101000a81548160ff0219169083151502179055508173ffffffffffffffffffffffffffffffffffffffff168373ffffffffffffffffffffffffffffffffffffffff167f17307eab39ab6107e8899845ad3d59bd9653f200f220920489ca2b5937696c3183604051612eb29190613bc4565b60405180910390a3505050565b612ed98282604051806020016040528060008152506131ec565b5050565b612ee8848484612988565b612ef484848484613247565b612f33576040517f08c379a0000000000000000000000000000000000000000000000000000000008152600401612f2a90614fa8565b60405180910390fd5b50505050565b606060405180602001604052806000815250905090565b606060006001612f5f846133ce565b01905060008167ffffffffffffffff811115612f7e57612f7d613e39565b5b6040519080825280601f01601f191660200182016040528015612fb05781602001600182028036833780820191505090505b509050600082602001820190505b600115613013578080600190039150507f3031323334353637383961626364656600000000000000000000000000000000600a86061a8153600a858161300757613006614fc8565b5b04945060008503612fbe575b819350505050919050565b60007f01ffc9a7000000000000000000000000000000000000000000000000000000007bffffffffffffffffffffffffffffffffffffffffffffffffffffffff1916827bffffffffffffffffffffffffffffffffffffffffffffffffffffffff1916149050919050565b61309484848484613521565b60018111156130d8576040517f08c379a00000000000000000000000000000000000000000000000000000000081526004016130cf90615069565b60405180910390fd5b6000829050600073ffffffffffffffffffffffffffffffffffffffff168573ffffffffffffffffffffffffffffffffffffffff160361311f5761311a81613527565b61315e565b8373ffffffffffffffffffffffffffffffffffffffff168573ffffffffffffffffffffffffffffffffffffffff161461315d5761315c8582613570565b5b5b600073ffffffffffffffffffffffffffffffffffffffff168473ffffffffffffffffffffffffffffffffffffffff16036131a05761319b816136dd565b6131df565b8473ffffffffffffffffffffffffffffffffffffffff168473ffffffffffffffffffffffffffffffffffffffff16146131de576131dd84826137ae565b5b5b5050505050565b50505050565b6131f6838361382d565b6132036000848484613247565b613242576040517f08c379a000000000000000000000000000000000000000000000000000000000815260040161323990614fa8565b60405180910390fd5b505050565b60006132688473ffffffffffffffffffffffffffffffffffffffff16613a4a565b156133c1578373ffffffffffffffffffffffffffffffffffffffff1663150b7a026132916128c7565b8786866040518563ffffffff1660e01b81526004016132b394939291906150de565b6020604051808303816000875af19250505080156132ef57506040513d601f19601f820116820180604052508101906132ec919061513f565b60015b613371573d806000811461331f576040519150601f19603f3d011682016040523d82523d6000602084013e613324565b606091505b506000815103613369576040517f08c379a000000000000000000000000000000000000000000000000000000000815260040161336090614fa8565b60405180910390fd5b805181602001fd5b63150b7a0260e01b7bffffffffffffffffffffffffffffffffffffffffffffffffffffffff1916817bffffffffffffffffffffffffffffffffffffffffffffffffffffffff1916149150506133c6565b600190505b949350505050565b600080600090507a184f03e93ff9f4daa797ed6e38ed64bf6a1f010000000000000000831061342c577a184f03e93ff9f4daa797ed6e38ed64bf6a1f010000000000000000838161342257613421614fc8565b5b0492506040810190505b6d04ee2d6d415b85acef81000000008310613469576d04ee2d6d415b85acef8100000000838161345f5761345e614fc8565b5b0492506020810190505b662386f26fc10000831061349857662386f26fc10000838161348e5761348d614fc8565b5b0492506010810190505b6305f5e10083106134c1576305f5e10083816134b7576134b6614fc8565b5b0492506008810190505b61271083106134e65761271083816134dc576134db614fc8565b5b0492506004810190505b6064831061350957606483816134ff576134fe614fc8565b5b0492506002810190505b600a8310613518576001810190505b80915050919050565b50505050565b6008805490506009600083815260200190815260200160002081905550600881908060018154018082558091505060019003906000526020600020016000909190919091505550565b6000600161357d84611b40565b613587919061516c565b905060006007600084815260200190815260200160002054905081811461366c576000600660008673ffffffffffffffffffffffffffffffffffffffff1673ffffffffffffffffffffffffffffffffffffffff168152602001908152602001600020600084815260200190815260200160002054905080600660008773ffffffffffffffffffffffffffffffffffffffff1673ffffffffffffffffffffffffffffffffffffffff168152602001908152602001600020600084815260200190815260200160002081905550816007600083815260200190815260200160002081905550505b6007600084815260200190815260200160002060009055600660008573ffffffffffffffffffffffffffffffffffffffff1673ffffffffffffffffffffffffffffffffffffffff16815260200190815260200160002060008381526020019081526020016000206000905550505050565b600060016008805490506136f1919061516c565b905060006009600084815260200190815260200160002054905060006008838154811061372157613720614666565b5b90600052602060002001549050806008838154811061374357613742614666565b5b906000526020600020018190555081600960008381526020019081526020016000208190555060096000858152602001908152602001600020600090556008805480613792576137916151a0565b5b6001900381819060005260206000200160009055905550505050565b60006137b983611b40565b905081600660008573ffffffffffffffffffffffffffffffffffffffff1673ffffffffffffffffffffffffffffffffffffffff168152602001908152602001600020600083815260200190815260200160002081905550806007600084815260200190815260200160002081905550505050565b600073ffffffffffffffffffffffffffffffffffffffff168273ffffffffffffffffffffffffffffffffffffffff160361389c576040517f08c379a00000000000000000000000000000000000000000000000000000000081526004016138939061521b565b60405180910390fd5b6138a58161283b565b156138e5576040517f08c379a00000000000000000000000000000000000000000000000000000000081526004016138dc90615287565b60405180910390fd5b6138f3600083836001613088565b6138fc8161283b565b1561393c576040517f08c379a000000000000000000000000000000000000000000000000000000000815260040161393390615287565b60405180910390fd5b6001600360008473ffffffffffffffffffffffffffffffffffffffff1673ffffffffffffffffffffffffffffffffffffffff16815260200190815260200160002060008282540192505081905550816002600083815260200190815260200160002060006101000a81548173ffffffffffffffffffffffffffffffffffffffff021916908373ffffffffffffffffffffffffffffffffffffffff160217905550808273ffffffffffffffffffffffffffffffffffffffff16600073ffffffffffffffffffffffffffffffffffffffff167fddf252ad1be2c89b69c2b068fc378daa952ba7f163c4a11628f55a4df523b3ef60405160405180910390a4613a466000838360016131e6565b5050565b6000808273ffffffffffffffffffffffffffffffffffffffff163b119050919050565b828054613a7990614511565b90600052602060002090601f016020900481019282613a9b5760008555613ae2565b82601f10613ab457805160ff1916838001178555613ae2565b82800160010185558215613ae2579182015b82811115613ae1578251825591602001919060010190613ac6565b5b509050613aef9190613af3565b5090565b5b80821115613b0c576000816000905550600101613af4565b5090565b6000604051905090565b600080fd5b600080fd5b60007fffffffff0000000000000000000000000000000000000000000000000000000082169050919050565b613b5981613b24565b8114613b6457600080fd5b50565b600081359050613b7681613b50565b92915050565b600060208284031215613b9257613b91613b1a565b5b6000613ba084828501613b67565b91505092915050565b60008115159050919050565b613bbe81613ba9565b82525050565b6000602082019050613bd96000830184613bb5565b92915050565b6000819050919050565b613bf281613bdf565b8114613bfd57600080fd5b50565b600081359050613c0f81613be9565b92915050565b600060208284031215613c2b57613c2a613b1a565b5b6000613c3984828501613c00565b91505092915050565b600081519050919050565b600082825260208201905092915050565b60005b83811015613c7c578082015181840152602081019050613c61565b83811115613c8b576000848401525b50505050565b6000601f19601f8301169050919050565b6000613cad82613c42565b613cb78185613c4d565b9350613cc7818560208601613c5e565b613cd081613c91565b840191505092915050565b60006020820190508181036000830152613cf58184613ca2565b905092915050565b600073ffffffffffffffffffffffffffffffffffffffff82169050919050565b6000613d2882613cfd565b9050919050565b613d3881613d1d565b82525050565b6000602082019050613d536000830184613d2f565b92915050565b613d6281613d1d565b8114613d6d57600080fd5b50565b600081359050613d7f81613d59565b92915050565b60008060408385031215613d9c57613d9b613b1a565b5b6000613daa85828601613d70565b9250506020613dbb85828601613c00565b9150509250929050565b60008060408385031215613ddc57613ddb613b1a565b5b6000613dea85828601613c00565b9250506020613dfb85828601613c00565b9150509250929050565b613e0e81613bdf565b82525050565b6000602082019050613e296000830184613e05565b92915050565b600080fd5b600080fd5b7f4e487b7100000000000000000000000000000000000000000000000000000000600052604160045260246000fd5b613e7182613c91565b810181811067ffffffffffffffff82111715613e9057613e8f613e39565b5b80604052505050565b6000613ea3613b10565b9050613eaf8282613e68565b919050565b600067ffffffffffffffff821115613ecf57613ece613e39565b5b613ed882613c91565b9050602081019050919050565b82818337600083830152505050565b6000613f07613f0284613eb4565b613e99565b905082815260208101848484011115613f2357613f22613e34565b5b613f2e848285613ee5565b509392505050565b600082601f830112613f4b57613f4a613e2f565b5b8135613f5b848260208601613ef4565b91505092915050565b60008060408385031215613f7b57613f7a613b1a565b5b6000613f8985828601613c00565b925050602083013567ffffffffffffffff811115613faa57613fa9613b1f565b5b613fb685828601613f36565b9150509250929050565b600080600060608486031215613fd957613fd8613b1a565b5b6000613fe786828701613d70565b9350506020613ff886828701613d70565b925050604061400986828701613c00565b9150509250925092565b600060e082019050818103600083015261402d818a613ca2565b905081810360208301526140418189613ca2565b90506140506040830188613e05565b61405d6060830187613d2f565b61406a6080830186613bb5565b81810360a083015261407c8185613ca2565b905061408b60c0830184613bb5565b98975050505050505050565b60006080820190506140ac6000830187613e05565b6140b96020830186613e05565b6140c66040830185613d2f565b6140d36060830184613bb5565b95945050505050565b6000602082840312156140f2576140f1613b1a565b5b600061410084828501613d70565b91505092915050565b61411281613ba9565b811461411d57600080fd5b50565b60008135905061412f81614109565b92915050565b6000806040838503121561414c5761414b613b1a565b5b600061415a85828601613d70565b925050602061416b85828601614120565b9150509250929050565b6000806000806080858703121561418f5761418e613b1a565b5b600085013567ffffffffffffffff8111156141ad576141ac613b1f565b5b6141b987828801613f36565b945050602085013567ffffffffffffffff8111156141da576141d9613b1f565b5b6141e687828801613f36565b93505060406141f787828801613c00565b925050606085013567ffffffffffffffff81111561421857614217613b1f565b5b61422487828801613f36565b91505092959194509250565b600067ffffffffffffffff82111561424b5761424a613e39565b5b61425482613c91565b9050602081019050919050565b600061427461426f84614230565b613e99565b9050828152602081018484840111156142905761428f613e34565b5b61429b848285613ee5565b509392505050565b600082601f8301126142b8576142b7613e2f565b5b81356142c8848260208601614261565b91505092915050565b600080600080608085870312156142eb576142ea613b1a565b5b60006142f987828801613d70565b945050602061430a87828801613d70565b935050604061431b87828801613c00565b925050606085013567ffffffffffffffff81111561433c5761433b613b1f565b5b614348878288016142a3565b91505092959194509250565b6000806040838503121561436b5761436a613b1a565b5b600061437985828601613d70565b925050602061438a85828601613d70565b9150509250929050565b600060c08201905081810360008301526143ae8189613ca2565b905081810360208301526143c28188613ca2565b90506143d16040830187613e05565b6143de6060830186613bb5565b81810360808301526143f08185613ca2565b90506143ff60a0830184613bb5565b979650505050505050565b7f50726f706572747920646f6573206e6f74206578697374000000000000000000600082015250565b6000614440601783613c4d565b915061444b8261440a565b602082019050919050565b6000602082019050818103600083015261446f81614433565b9050919050565b7f4e6f74207468652070726f7065727479206f776e657200000000000000000000600082015250565b60006144ac601683613c4d565b91506144b782614476565b602082019050919050565b600060208201905081810360008301526144db8161449f565b9050919050565b7f4e487b7100000000000000000000000000000000000000000000000000000000600052602260045260246000fd5b6000600282049050600182168061452957607f821691505b60208210810361453c5761453b6144e2565b5b50919050565b7f4552433732313a20617070726f76616c20746f2063757272656e74206f776e6560008201527f7200000000000000000000000000000000000000000000000000000000000000602082015250565b600061459e602183613c4d565b91506145a982614542565b604082019050919050565b600060208201905081810360008301526145cd81614591565b9050919050565b7f4552433732313a20617070726f76652063616c6c6572206973206e6f7420746f60008201527f6b656e206f776e6572206f7220617070726f76656420666f7220616c6c000000602082015250565b6000614630603d83613c4d565b915061463b826145d4565b604082019050919050565b6000602082019050818103600083015261465f81614623565b9050919050565b7f4e487b7100000000000000000000000000000000000000000000000000000000600052603260045260246000fd5b7f50726f7065727479206973206e6f7420666f722073616c650000000000000000600082015250565b60006146cb601883613c4d565b91506146d682614695565b602082019050919050565b600060208201905081810360008301526146fa816146be565b9050919050565b7f496e636f7272656374207061796d656e7420616d6f756e740000000000000000600082015250565b6000614737601883613c4d565b915061474282614701565b602082019050919050565b600060208201905081810360008301526147668161472a565b9050919050565b7f4552433732313a2063616c6c6572206973206e6f7420746f6b656e206f776e6560008201527f72206f7220617070726f76656400000000000000000000000000000000000000602082015250565b60006147c9602d83613c4d565b91506147d48261476d565b604082019050919050565b600060208201905081810360008301526147f8816147bc565b9050919050565b7f455243373231456e756d657261626c653a206f776e657220696e646578206f7560008201527f74206f6620626f756e6473000000000000000000000000000000000000000000602082015250565b600061485b602b83613c4d565b9150614866826147ff565b604082019050919050565b6000602082019050818103600083015261488a8161484e565b9050919050565b7f41756374696f6e20646f6573206e6f7420657869737400000000000000000000600082015250565b60006148c7601683613c4d565b91506148d282614891565b602082019050919050565b600060208201905081810360008301526148f6816148ba565b9050919050565b7f41756374696f6e2068617320616c726561647920656e64656400000000000000600082015250565b6000614933601983613c4d565b915061493e826148fd565b602082019050919050565b6000602082019050818103600083015261496281614926565b9050919050565b7f42696420616d6f756e74206d75737420626520686967686572207468616e207460008201527f68652063757272656e7420686967686573742062696400000000000000000000602082015250565b60006149c5603683613c4d565b91506149d082614969565b604082019050919050565b600060208201905081810360008301526149f4816149b8565b9050919050565b7f4f6e6c79207468652076657269666965722063616e20706572666f726d20746860008201527f697320616374696f6e0000000000000000000000000000000000000000000000602082015250565b6000614a57602983613c4d565b9150614a62826149fb565b604082019050919050565b60006020820190508181036000830152614a8681614a4a565b9050919050565b7f455243373231456e756d657261626c653a20676c6f62616c20696e646578206f60008201527f7574206f6620626f756e64730000000000000000000000000000000000000000602082015250565b6000614ae9602c83613c4d565b9150614af482614a8d565b604082019050919050565b60006020820190508181036000830152614b1881614adc565b9050919050565b7f4552433732313a20696e76616c696420746f6b656e2049440000000000000000600082015250565b6000614b55601883613c4d565b9150614b6082614b1f565b602082019050919050565b60006020820190508181036000830152614b8481614b48565b9050919050565b7f4552433732313a2061646472657373207a65726f206973206e6f74206120766160008201527f6c6964206f776e65720000000000000000000000000000000000000000000000602082015250565b6000614be7602983613c4d565b9150614bf282614b8b565b604082019050919050565b60006020820190508181036000830152614c1681614bda565b9050919050565b600081905092915050565b50565b6000614c38600083614c1d565b9150614c4382614c28565b600082019050919050565b6000614c5982614c2b565b9150819050919050565b7f5472616e73666572206661696c65640000000000000000000000000000000000600082015250565b6000614c99600f83613c4d565b9150614ca482614c63565b602082019050919050565b60006020820190508181036000830152614cc881614c8c565b9050919050565b7f4e487b7100000000000000000000000000000000000000000000000000000000600052601160045260246000fd5b6000614d0982613bdf565b91507fffffffffffffffffffffffffffffffffffffffffffffffffffffffffffffffff8203614d3b57614d3a614ccf565b5b600182019050919050565b600081905092915050565b6000614d5c82613c42565b614d668185614d46565b9350614d76818560208601613c5e565b80840191505092915050565b6000614d8e8285614d51565b9150614d9a8284614d51565b91508190509392505050565b7f4552433732313a207472616e736665722066726f6d20696e636f72726563742060008201527f6f776e6572000000000000000000000000000000000000000000000000000000602082015250565b6000614e02602583613c4d565b9150614e0d82614da6565b604082019050919050565b60006020820190508181036000830152614e3181614df5565b9050919050565b7f4552433732313a207472616e7366657220746f20746865207a65726f2061646460008201527f7265737300000000000000000000000000000000000000000000000000000000602082015250565b6000614e94602483613c4d565b9150614e9f82614e38565b604082019050919050565b60006020820190508181036000830152614ec381614e87565b9050919050565b7f4552433732313a20617070726f766520746f2063616c6c657200000000000000600082015250565b6000614f00601983613c4d565b9150614f0b82614eca565b602082019050919050565b60006020820190508181036000830152614f2f81614ef3565b9050919050565b7f4552433732313a207472616e7366657220746f206e6f6e20455243373231526560008201527f63656976657220696d706c656d656e7465720000000000000000000000000000602082015250565b6000614f92603283613c4d565b9150614f9d82614f36565b604082019050919050565b60006020820190508181036000830152614fc181614f85565b9050919050565b7f4e487b7100000000000000000000000000000000000000000000000000000000600052601260045260246000fd5b7f455243373231456e756d657261626c653a20636f6e736563757469766520747260008201527f616e7366657273206e6f7420737570706f727465640000000000000000000000602082015250565b6000615053603583613c4d565b915061505e82614ff7565b604082019050919050565b6000602082019050818103600083015261508281615046565b9050919050565b600081519050919050565b600082825260208201905092915050565b60006150b082615089565b6150ba8185615094565b93506150ca818560208601613c5e565b6150d381613c91565b840191505092915050565b60006080820190506150f36000830187613d2f565b6151006020830186613d2f565b61510d6040830185613e05565b818103606083015261511f81846150a5565b905095945050505050565b60008151905061513981613b50565b92915050565b60006020828403121561515557615154613b1a565b5b60006151638482850161512a565b91505092915050565b600061517782613bdf565b915061518283613bdf565b92508282101561519557615194614ccf565b5b828203905092915050565b7f4e487b7100000000000000000000000000000000000000000000000000000000600052603160045260246000fd5b7f4552433732313a206d696e7420746f20746865207a65726f2061646472657373600082015250565b6000615205602083613c4d565b9150615210826151cf565b602082019050919050565b60006020820190508181036000830152615234816151f8565b9050919050565b7f4552433732313a20746f6b656e20616c7265616479206d696e74656400000000600082015250565b6000615271601c83613c4d565b915061527c8261523b565b602082019050919050565b600060208201905081810360008301526152a081615264565b905091905056fea26469706673582212200aa791a9c94051e998712c3f1e3c9a39544c0419b679c8c7c6d45120c74e1d3164736f6c634300080d0033",
  "immutableReferences": {},
  "source": "// SPDX-License-Identifier: MIT\npragma solidity ^0.8.0;\n\nimport \"@openzeppelin/contracts/token/ERC721/extensions/ERC721Enumerable.sol\";\n\ncontract RealEstateMarketplace is ERC721Enumerable {\n    struct Property {\n        string name;\n        string description;\n        uint256 price;\n        bool forSale;\n        string imageurl;\n        bool verified;\n    }\n\n    struct Auction {\n        uint256 propertyId;\n        uint256 highestBid;\n        address highestBidder;\n        bool ended;\n    }\n\n    Property[] public properties;\n    Auction[] public auctions;\n    address public admin;\n\n    mapping(uint256 => address) public propertyToOwner;\n    mapping(uint256 => address) public propertyToSeller;\n    mapping(uint256 => bool) public propertyVerificationStatus;\n\n    constructor() ERC721(\"RealEstateNFT\", \"RE\") {\n        admin = msg.sender;\n    }\n\n    modifier onlyVerifier() {\n        require(msg.sender == admin, \"Only the verifier can perform this action\");\n        _;\n    }\n\n    function createProperty(\n        string memory _name,\n        string memory _description,\n        uint256 _price,\n        string memory _imageurl\n    ) external {\n        uint256 propertyId = properties.length;\n        properties.push(Property(_name, _description, _price, true, _imageurl, false));\n        _safeMint(msg.sender, propertyId);\n        propertyToOwner[propertyId] = msg.sender;\n        propertyToSeller[propertyId] = msg.sender;\n    }\n\n    function getProperty(uint256 _propertyId)\n        external\n        view\n        returns (\n            string memory name,\n            string memory description,\n            uint256 price,\n            address owner,\n            bool forSale,\n            string memory imageurl,\n            bool verified\n        )\n    {\n        require(_exists(_propertyId), \"Property does not exist\");\n        Property storage property = properties[_propertyId];\n        return (\n            property.name,\n            property.description,\n            property.price,\n            propertyToOwner[_propertyId],\n            property.forSale,\n            property.imageurl,\n            property.verified\n        );\n    }\n\n    function verifyProperty(uint256 _propertyId) external onlyVerifier {\n        require(_exists(_propertyId), \"Property does not exist\");\n        properties[_propertyId].verified = true; // Set verified status to true after successful verification\n    }\n\n    function buyProperty(uint256 _propertyId, string memory name) external payable {\n        require(_exists(_propertyId), \"Property does not exist\");\n        Property storage property = properties[_propertyId];\n        require(property.forSale, \"Property is not for sale\");\n        require(msg.value == property.price, \"Incorrect payment amount\");\n\n        address propertyOwner = ownerOf(_propertyId);\n        address payable seller = payable(propertyOwner);\n        seller.transfer(msg.value);\n        _transfer(propertyOwner, msg.sender, _propertyId);\n        property.name = name;\n        propertyToOwner[_propertyId] = msg.sender;\n        propertyToSeller[_propertyId] = propertyOwner;\n        property.forSale = false;\n    }\n\n    function listPropertyForSale(uint256 _propertyId, uint256 _price) external {\n        require(_exists(_propertyId), \"Property does not exist\");\n        require(ownerOf(_propertyId) == msg.sender, \"Not the property owner\");\n        Property storage property = properties[_propertyId];\n        propertyToSeller[_propertyId] = msg.sender;\n        property.price = _price;\n        property.forSale = true;\n        property.verified = false;\n    }\n\n    function sellProperty(uint256 _propertyId, uint256 _price) external {\n        require(_exists(_propertyId), \"Property does not exist\");\n        require(ownerOf(_propertyId) == msg.sender, \"Not the property owner\");\n        Property storage property = properties[_propertyId];\n        property.price = _price;\n        property.forSale = true;\n        propertyToSeller[_propertyId] = msg.sender;\n    }\n\n    function getPropertySeller(uint256 _propertyId) external view returns (address) {\n        require(_exists(_propertyId), \"Property does not exist\");\n        return propertyToSeller[_propertyId];\n    }\n\n    function startAuction(uint256 _propertyId) external {\n        require(_exists(_propertyId), \"Property does not exist\");\n        require(ownerOf(_propertyId) == msg.sender, \"Not the property owner\");\n\n        auctions.push(Auction(_propertyId, 0, address(0), false));\n        // auctions.push(Auction(_propertyId, 0, address(0), _auctionEndTime));\n        // Property storage property = properties[_propertyId];\n        propertyToSeller[_propertyId] = msg.sender;\n        // property.forSale = false;\n    }\n\n    function placeBid(uint256 _auctionId, string memory _name) external payable {\n        require(_auctionId < auctions.length, \"Auction does not exist\");\n        Auction storage auction = auctions[_auctionId];\n        require(!auction.ended, \"Auction has already ended\");\n        require(msg.value > auction.highestBid, \"Bid amount must be higher than the current highest bid\");\n\n        if (auction.highestBidder != address(0)) {\n            // Refund the previous highest bidder\n            address payable previousBidder = payable(auction.highestBidder);\n            previousBidder.transfer(auction.highestBid);\n        }\n\n        Property storage property = properties[auction.propertyId];\n        property.name = _name;\n        property.price = msg.value;\n        auction.highestBid = msg.value;\n        auction.highestBidder = msg.sender;\n        address powner = ownerOf(auction.propertyId);\n        propertyToOwner[auction.propertyId] = msg.sender;\n        propertyToSeller[auction.propertyId] = powner;\n    }\n\n    function getAuctionsLength() external view returns (uint256) {\n    return auctions.length;\n}\n\n\n    function endAuction(uint256 _auctionId) external {\n        require(_auctionId < auctions.length, \"Auction does not exist\");\n        Auction storage auction = auctions[_auctionId];\n        require(!auction.ended, \"Auction has already ended\");\n        // require(block.timestamp >= (block.timestamp + auction.auctionEndTime), \"Auction has not yet ended\");\n\n        auction.ended = true;\n\n        Property storage property = properties[auction.propertyId];\n        address propertyOwner = ownerOf(auction.propertyId);\n        address payable seller = payable(propertyOwner);\n        (bool success, ) = seller.call{value: auction.highestBid}(\"\");\n        require(success, \"Transfer failed\");\n\n        // seller.transfer(auction.highestBid);\n        _transfer(propertyOwner, auction.highestBidder, auction.propertyId);\n        propertyToOwner[auction.propertyId] = auction.highestBidder;\n        propertyToSeller[auction.propertyId] = propertyOwner;\n        property.forSale = false;\n        auction.ended = false;\n        delete auctions[_auctionId];\n    }\n\n    function isAuctionStarted(uint256 _propertyId) public view returns (bool) {\n    // require(_exists(_propertyId), \"Property does not exist\");\n    \n    for (uint256 i = 0; i < auctions.length; i++) {\n        if (auctions[i].propertyId == _propertyId) {\n            return true;\n        }\n    }\n    \n    return false;\n}\n\n\n\n}\n",
  "sourcePath": "/home/bharat/Desktop/Thesis/RealEstate_dapp/contracts/restate.sol",
  "compiler": {
    "name": "solc",
    "version": "0.8.13+commit.abaa5c0e.Emscripten.clang"
  },
  "schemaVersion": "3.4.14",
  "updatedAt": "2023-06-14T05:39:15.490Z",
  "networkType": "ethereum",
  "devdoc": {
    "kind": "dev",
    "methods": {
      "approve(address,uint256)": {
        "details": "See {IERC721-approve}."
      },
      "balanceOf(address)": {
        "details": "See {IERC721-balanceOf}."
      },
      "getApproved(uint256)": {
        "details": "See {IERC721-getApproved}."
      },
      "isApprovedForAll(address,address)": {
        "details": "See {IERC721-isApprovedForAll}."
      },
      "name()": {
        "details": "See {IERC721Metadata-name}."
      },
      "ownerOf(uint256)": {
        "details": "See {IERC721-ownerOf}."
      },
      "safeTransferFrom(address,address,uint256)": {
        "details": "See {IERC721-safeTransferFrom}."
      },
      "safeTransferFrom(address,address,uint256,bytes)": {
        "details": "See {IERC721-safeTransferFrom}."
      },
      "setApprovalForAll(address,bool)": {
        "details": "See {IERC721-setApprovalForAll}."
      },
      "supportsInterface(bytes4)": {
        "details": "See {IERC165-supportsInterface}."
      },
      "symbol()": {
        "details": "See {IERC721Metadata-symbol}."
      },
      "tokenByIndex(uint256)": {
        "details": "See {IERC721Enumerable-tokenByIndex}."
      },
      "tokenOfOwnerByIndex(address,uint256)": {
        "details": "See {IERC721Enumerable-tokenOfOwnerByIndex}."
      },
      "tokenURI(uint256)": {
        "details": "See {IERC721Metadata-tokenURI}."
      },
      "totalSupply()": {
        "details": "See {IERC721Enumerable-totalSupply}."
      },
      "transferFrom(address,address,uint256)": {
        "details": "See {IERC721-transferFrom}."
      }
    },
    "version": 1
  },
  "userdoc": {
    "kind": "user",
    "methods": {},
    "version": 1
  }
}